{
  "contractName": "AaveManager",
  "abi": [
    {
      "inputs": [
        {
          "internalType": "address",
          "name": "_lendingPoolRegistry",
          "type": "address"
        },
        {
          "internalType": "address",
          "name": "_token",
          "type": "address"
        }
      ],
      "stateMutability": "nonpayable",
      "type": "constructor"
    },
    {
      "inputs": [],
      "name": "provider",
      "outputs": [
        {
          "internalType": "contract ILendingPoolAddressesProvider",
          "name": "",
          "type": "address"
        }
      ],
      "stateMutability": "view",
      "type": "function"
    },
    {
      "inputs": [],
      "name": "inAaveSupply",
      "outputs": [
        {
          "internalType": "uint256",
          "name": "",
          "type": "uint256"
        }
      ],
      "stateMutability": "view",
      "type": "function"
    },
    {
      "inputs": [],
      "name": "isAssetSupported",
      "outputs": [
        {
          "internalType": "bool",
          "name": "",
          "type": "bool"
        }
      ],
      "stateMutability": "view",
      "type": "function"
    }
  ],
  "bytecode": "0x608060405234801561001057600080fd5b506040516103eb3803806103eb8339818101604052604081101561003357600080fd5b508051602090910151600080546001600160a01b039384166001600160a01b031991821617909155600180549390921692169190911790556103718061007a6000396000f3fe608060405234801561001057600080fd5b50600436106100415760003560e01c8063085d488314610046578063de761c8b1461006a578063f5671abc14610084575b600080fd5b61004e6100a0565b604080516001600160a01b039092168252519081900360200190f35b6100726100af565b60408051918252519081900360200190f35b61008c610222565b604080519115158252519081900360200190f35b6000546001600160a01b031681565b6000805460408051630261bf8b60e01b8152905183926001600160a01b031691630261bf8b916004808301926020929190829003018186803b1580156100f457600080fd5b505afa158015610108573d6000803e3d6000fd5b505050506040513d602081101561011e57600080fd5b5051600154604080516335ea6a7560e01b81526001600160a01b0392831660048201529051929350600092918416916335ea6a759160248082019261018092909190829003018186803b15801561017457600080fd5b505afa158015610188573d6000803e3d6000fd5b505050506040513d61018081101561019f57600080fd5b5060e00151604080516370a0823160e01b815230600482015290519192506001600160a01b038316916370a0823191602480820192602092909190829003018186803b1580156101ee57600080fd5b505afa158015610202573d6000803e3d6000fd5b505050506040513d602081101561021857600080fd5b5051925050505b90565b6000805460408051630261bf8b60e01b8152905183926001600160a01b031691630261bf8b916004808301926020929190829003018186803b15801561026757600080fd5b505afa15801561027b573d6000803e3d6000fd5b505050506040513d602081101561029157600080fd5b5051600154604080516335ea6a7560e01b81526001600160a01b0392831660048201529051929350600092918416916335ea6a759160248082019261018092909190829003018186803b1580156102e757600080fd5b505afa1580156102fb573d6000803e3d6000fd5b505050506040513d61018081101561031257600080fd5b5060e0015190506001600160a01b0381166103325760009250505061021f565b6001925050509056fea2646970667358221220c669249fa0946c60c21bb9dedbb4225886074bb8404f0177b8b83fad8e7e7ad864736f6c63430006020033",
  "source": "pragma solidity ^0.6.2;\n\nimport \"@openzeppelin/contracts/token/ERC20/IERC20.sol\";\nimport \"@openzeppelin/contracts/token/ERC20/SafeERC20.sol\";\n\nimport \"./ILendingPool.sol\";\nimport \"./ILendingPoolAddressesProvider.sol\";\n\ncontract AaveManager {\n    using SafeERC20 for IERC20;\n\n    ILendingPoolAddressesProvider public provider;\n    IERC20 token;\n\n    uint16 constant AAVE_REFERRAL_CODE = 148;\n\n    constructor(address _lendingPoolRegistry, address _token) public {\n      provider = ILendingPoolAddressesProvider(_lendingPoolRegistry);\n      token = IERC20(_token);\n    }\n\n    function depositToAave(uint256 _amount) internal {\n      if (_amount == 0) return;\n      ILendingPool lendingPool = ILendingPool(provider.getLendingPool());\n      token.safeIncreaseAllowance(address(lendingPool), _amount);\n      lendingPool.deposit(address(token), _amount, address(this), AAVE_REFERRAL_CODE);\n    }\n\n    function withdrawFromAave(uint256 _amount) internal {\n      if (_amount == 0) return;\n      ILendingPool lendingPool = ILendingPool(provider.getLendingPool());\n      lendingPool.withdraw(address(token), _amount, address(this));\n    }\n\n    function inAaveSupply() public view returns (uint256) {\n      ILendingPool lendingPool = ILendingPool(provider.getLendingPool());\n\n      // Initialize aToken\n      ( , , , , , , , address aTokenAddress, , , , ) = lendingPool.getReserveData(address(token));\n\n      return IERC20(aTokenAddress).balanceOf(address(this));\n    }\n\n    function isAssetSupported() public view returns (bool) {\n      ILendingPool lendingPool = ILendingPool(provider.getLendingPool());\n\n      // Initialize aToken\n      ( , , , , , , , address aTokenAddress, , , , ) = lendingPool.getReserveData(address(token));\n\n      if(aTokenAddress == address(0)) return false;\n\n      return true;\n    }\n\n}\n",
  "sourcePath": "/Users/willharborne/Desktop/EFX/repos/lp-contracts/contracts/aave/AaveManager.sol",
  "compiler": {
    "name": "solc",
    "version": "0.6.2+commit.bacdbe57.Emscripten.clang"
  },
  "schemaVersion": "3.2.4",
  "updatedAt": "2020-11-16T00:53:43.430Z",
  "devdoc": {
    "methods": {}
  },
  "userdoc": {
    "methods": {}
  }
}