{
  "contractName": "FactRegistry",
  "abi": [
    {
      "inputs": [
        {
          "internalType": "bytes32",
          "name": "fact",
          "type": "bytes32"
        }
      ],
      "name": "isValid",
      "outputs": [
        {
          "internalType": "bool",
          "name": "",
          "type": "bool"
        }
      ],
      "stateMutability": "view",
      "type": "function"
    },
    {
      "inputs": [],
      "name": "hasRegisteredFact",
      "outputs": [
        {
          "internalType": "bool",
          "name": "",
          "type": "bool"
        }
      ],
      "stateMutability": "view",
      "type": "function"
    }
  ],
  "bytecode": "0x608060405234801561001057600080fd5b5060ce8061001f6000396000f3fe6080604052348015600f57600080fd5b506004361060325760003560e01c80636a938567146037578063d6354e15146065575b600080fd5b605160048036036020811015604b57600080fd5b5035606b565b604080519115158252519081900360200190f35b6051607a565b60006074826083565b92915050565b60015460ff1690565b60009081526020819052604090205460ff169056fea26469706673582212200f987658d1e7b3dfbe31fdd66967d558630b1403cd8d0da8012486607ea1684764736f6c63430006020033",
  "source": "/*\n  Copyright 2019,2020 StarkWare Industries Ltd.\n\n  Licensed under the Apache License, Version 2.0 (the \"License\").\n  You may not use this file except in compliance with the License.\n  You may obtain a copy of the License at\n\n  https://www.starkware.co/open-source-license/\n\n  Unless required by applicable law or agreed to in writing,\n  software distributed under the License is distributed on an \"AS IS\" BASIS,\n  WITHOUT WARRANTIES OR CONDITIONS OF ANY KIND, either express or implied.\n  See the License for the specific language governing permissions\n  and limitations under the License.\n*/\npragma solidity ^0.6.2;\n\nimport \"./IQueryableFactRegistry.sol\";\n\ncontract FactRegistry is IQueryableFactRegistry {\n    // Mapping: fact hash -> true.\n    mapping (bytes32 => bool) private verifiedFact;\n\n    // Indicates whether the Fact Registry has at least one fact registered.\n    bool anyFactRegistered;\n\n    /*\n      Checks if a fact has been verified.\n    */\n    function isValid(bytes32 fact)\n        external view override\n        returns(bool)\n    {\n        return _factCheck(fact);\n    }\n\n\n    /*\n      This is an internal method to check if the fact is already registered.\n      In current implementation of FactRegistry it's identical to isValid().\n      But the check is against the local fact registrey,\n      So for a derived referral fact registry, it's not the same.\n    */\n    function _factCheck(bytes32 fact)\n        internal view\n        returns(bool)\n    {\n        return verifiedFact[fact];\n    }\n\n    function registerFact(\n        bytes32 factHash\n        )\n        internal\n    {\n        // This function stores the fact hash in the mapping.\n        verifiedFact[factHash] = true;\n\n        // Mark first time off.\n        if (!anyFactRegistered) {\n            anyFactRegistered = true;\n        }\n    }\n\n    /*\n      Indicates whether at least one fact was registered.\n    */\n    function hasRegisteredFact()\n        external view override\n        returns(bool)\n    {\n        return anyFactRegistered;\n    }\n\n}\n",
  "sourcePath": "/Users/willharborne/Desktop/EFX/repos/lp-contracts/contracts/starkEx/FactRegistry.sol",
  "compiler": {
    "name": "solc",
    "version": "0.6.2+commit.bacdbe57.Emscripten.clang"
  },
  "schemaVersion": "3.2.4",
  "updatedAt": "2020-11-16T10:45:36.942Z",
  "devdoc": {
    "methods": {}
  },
  "userdoc": {
    "methods": {}
  }
}