{
  "contractName": "MasterTransferRegistry",
  "abi": [
    {
      "anonymous": false,
      "inputs": [
        {
          "indexed": false,
          "internalType": "address",
          "name": "recipient",
          "type": "address"
        },
        {
          "indexed": false,
          "internalType": "uint256",
          "name": "amount",
          "type": "uint256"
        }
      ],
      "name": "LogInsurancePayout",
      "type": "event"
    },
    {
      "anonymous": false,
      "inputs": [
        {
          "indexed": false,
          "internalType": "address",
          "name": "underlyingToken",
          "type": "address"
        },
        {
          "indexed": false,
          "internalType": "address",
          "name": "newPool",
          "type": "address"
        }
      ],
      "name": "LogNewPoolCreated",
      "type": "event"
    },
    {
      "anonymous": false,
      "inputs": [
        {
          "indexed": false,
          "internalType": "address",
          "name": "recipient",
          "type": "address"
        },
        {
          "indexed": false,
          "internalType": "address",
          "name": "token",
          "type": "address"
        },
        {
          "indexed": false,
          "internalType": "uint256",
          "name": "amount",
          "type": "uint256"
        },
        {
          "indexed": false,
          "internalType": "uint256",
          "name": "salt",
          "type": "uint256"
        }
      ],
      "name": "LogRegisteredTransfer",
      "type": "event"
    },
    {
      "anonymous": false,
      "inputs": [
        {
          "indexed": false,
          "internalType": "address",
          "name": "recipient",
          "type": "address"
        },
        {
          "indexed": false,
          "internalType": "address",
          "name": "token",
          "type": "address"
        },
        {
          "indexed": false,
          "internalType": "uint256",
          "name": "amount",
          "type": "uint256"
        }
      ],
      "name": "LogRepaid",
      "type": "event"
    },
    {
      "anonymous": false,
      "inputs": [
        {
          "indexed": false,
          "internalType": "address",
          "name": "staker",
          "type": "address"
        },
        {
          "indexed": false,
          "internalType": "uint256",
          "name": "amount",
          "type": "uint256"
        }
      ],
      "name": "LogStakedNEC",
      "type": "event"
    },
    {
      "anonymous": false,
      "inputs": [
        {
          "indexed": false,
          "internalType": "address",
          "name": "staker",
          "type": "address"
        },
        {
          "indexed": false,
          "internalType": "uint256",
          "name": "amount",
          "type": "uint256"
        }
      ],
      "name": "LogUnstakedNEC",
      "type": "event"
    },
    {
      "anonymous": false,
      "inputs": [
        {
          "indexed": true,
          "internalType": "address",
          "name": "previousOwner",
          "type": "address"
        },
        {
          "indexed": true,
          "internalType": "address",
          "name": "newOwner",
          "type": "address"
        }
      ],
      "name": "OwnershipTransferred",
      "type": "event"
    },
    {
      "inputs": [],
      "name": "PERIOD",
      "outputs": [
        {
          "internalType": "uint256",
          "name": "",
          "type": "uint256"
        }
      ],
      "stateMutability": "view",
      "type": "function"
    },
    {
      "inputs": [],
      "name": "WETH",
      "outputs": [
        {
          "internalType": "address",
          "name": "",
          "type": "address"
        }
      ],
      "stateMutability": "view",
      "type": "function"
    },
    {
      "inputs": [],
      "name": "allPoolsLentSupplyEquivNEC",
      "outputs": [
        {
          "internalType": "uint256",
          "name": "",
          "type": "uint256"
        }
      ],
      "stateMutability": "view",
      "type": "function"
    },
    {
      "inputs": [
        {
          "internalType": "address",
          "name": "",
          "type": "address"
        }
      ],
      "name": "blockTimestampLastUpdate",
      "outputs": [
        {
          "internalType": "uint32",
          "name": "",
          "type": "uint32"
        }
      ],
      "stateMutability": "view",
      "type": "function"
    },
    {
      "inputs": [],
      "name": "hasRegisteredFact",
      "outputs": [
        {
          "internalType": "bool",
          "name": "",
          "type": "bool"
        }
      ],
      "stateMutability": "view",
      "type": "function"
    },
    {
      "inputs": [],
      "name": "inverseFee",
      "outputs": [
        {
          "internalType": "uint256",
          "name": "",
          "type": "uint256"
        }
      ],
      "stateMutability": "view",
      "type": "function"
    },
    {
      "inputs": [
        {
          "internalType": "address",
          "name": "",
          "type": "address"
        }
      ],
      "name": "isAaveActive",
      "outputs": [
        {
          "internalType": "bool",
          "name": "",
          "type": "bool"
        }
      ],
      "stateMutability": "view",
      "type": "function"
    },
    {
      "inputs": [
        {
          "internalType": "bytes32",
          "name": "fact",
          "type": "bytes32"
        }
      ],
      "name": "isValid",
      "outputs": [
        {
          "internalType": "bool",
          "name": "",
          "type": "bool"
        }
      ],
      "stateMutability": "view",
      "type": "function"
    },
    {
      "inputs": [
        {
          "internalType": "address",
          "name": "",
          "type": "address"
        }
      ],
      "name": "lentSupply",
      "outputs": [
        {
          "internalType": "uint256",
          "name": "",
          "type": "uint256"
        }
      ],
      "stateMutability": "view",
      "type": "function"
    },
    {
      "inputs": [
        {
          "internalType": "address",
          "name": "",
          "type": "address"
        }
      ],
      "name": "lentSupplyEquivNEC",
      "outputs": [
        {
          "internalType": "uint256",
          "name": "",
          "type": "uint256"
        }
      ],
      "stateMutability": "view",
      "type": "function"
    },
    {
      "inputs": [
        {
          "internalType": "address",
          "name": "token",
          "type": "address"
        },
        {
          "internalType": "uint256",
          "name": "amountInToken",
          "type": "uint256"
        }
      ],
      "name": "necExchangeRate",
      "outputs": [
        {
          "internalType": "uint256",
          "name": "amountInNEC",
          "type": "uint256"
        }
      ],
      "stateMutability": "view",
      "type": "function"
    },
    {
      "inputs": [],
      "name": "owner",
      "outputs": [
        {
          "internalType": "address",
          "name": "",
          "type": "address"
        }
      ],
      "stateMutability": "view",
      "type": "function"
    },
    {
      "inputs": [
        {
          "internalType": "address",
          "name": "token",
          "type": "address"
        }
      ],
      "name": "registerNewOracle",
      "outputs": [
        {
          "internalType": "bool",
          "name": "",
          "type": "bool"
        }
      ],
      "stateMutability": "nonpayable",
      "type": "function"
    },
    {
      "inputs": [],
      "name": "renounceOwnership",
      "outputs": [],
      "stateMutability": "nonpayable",
      "type": "function"
    },
    {
      "inputs": [],
      "name": "reserveRatio",
      "outputs": [
        {
          "internalType": "uint8",
          "name": "",
          "type": "uint8"
        }
      ],
      "stateMutability": "view",
      "type": "function"
    },
    {
      "inputs": [],
      "name": "targetAvailabilityPercentage",
      "outputs": [
        {
          "internalType": "uint8",
          "name": "",
          "type": "uint8"
        }
      ],
      "stateMutability": "view",
      "type": "function"
    },
    {
      "inputs": [
        {
          "internalType": "address",
          "name": "",
          "type": "address"
        }
      ],
      "name": "tokenPools",
      "outputs": [
        {
          "internalType": "address",
          "name": "",
          "type": "address"
        }
      ],
      "stateMutability": "view",
      "type": "function"
    },
    {
      "inputs": [
        {
          "internalType": "address",
          "name": "newOwner",
          "type": "address"
        }
      ],
      "name": "transferOwnership",
      "outputs": [],
      "stateMutability": "nonpayable",
      "type": "function"
    },
    {
      "inputs": [],
      "name": "uniswapFactory",
      "outputs": [
        {
          "internalType": "address",
          "name": "",
          "type": "address"
        }
      ],
      "stateMutability": "view",
      "type": "function"
    },
    {
      "inputs": [
        {
          "internalType": "address",
          "name": "",
          "type": "address"
        }
      ],
      "name": "uniswapPairs",
      "outputs": [
        {
          "internalType": "contract IUniswapV2Pair",
          "name": "",
          "type": "address"
        }
      ],
      "stateMutability": "view",
      "type": "function"
    },
    {
      "inputs": [
        {
          "internalType": "address",
          "name": "token",
          "type": "address"
        }
      ],
      "name": "updateExchangeRate",
      "outputs": [
        {
          "internalType": "bool",
          "name": "",
          "type": "bool"
        }
      ],
      "stateMutability": "nonpayable",
      "type": "function"
    },
    {
      "inputs": [
        {
          "internalType": "address",
          "name": "_uniswapFactory",
          "type": "address"
        },
        {
          "internalType": "address",
          "name": "_WETH",
          "type": "address"
        },
        {
          "internalType": "address",
          "name": "_NEC",
          "type": "address"
        },
        {
          "internalType": "address",
          "name": "_aaveLendingPoolRegistry",
          "type": "address"
        }
      ],
      "name": "initialize",
      "outputs": [],
      "stateMutability": "nonpayable",
      "type": "function"
    },
    {
      "inputs": [],
      "name": "identify",
      "outputs": [
        {
          "internalType": "string",
          "name": "",
          "type": "string"
        }
      ],
      "stateMutability": "view",
      "type": "function"
    },
    {
      "inputs": [
        {
          "internalType": "address",
          "name": "erc20",
          "type": "address"
        },
        {
          "internalType": "address",
          "name": "recipient",
          "type": "address"
        },
        {
          "internalType": "uint256",
          "name": "amount",
          "type": "uint256"
        },
        {
          "internalType": "uint256",
          "name": "salt",
          "type": "uint256"
        }
      ],
      "name": "transferForDeversifiWithdrawals",
      "outputs": [],
      "stateMutability": "nonpayable",
      "type": "function"
    },
    {
      "inputs": [
        {
          "internalType": "address",
          "name": "erc20",
          "type": "address"
        },
        {
          "internalType": "uint256",
          "name": "amount",
          "type": "uint256"
        }
      ],
      "name": "repayToPool",
      "outputs": [
        {
          "internalType": "bool",
          "name": "",
          "type": "bool"
        }
      ],
      "stateMutability": "nonpayable",
      "type": "function"
    },
    {
      "inputs": [
        {
          "internalType": "uint256",
          "name": "amount",
          "type": "uint256"
        }
      ],
      "name": "stakeNECCollateral",
      "outputs": [
        {
          "internalType": "bool",
          "name": "",
          "type": "bool"
        }
      ],
      "stateMutability": "nonpayable",
      "type": "function"
    },
    {
      "inputs": [
        {
          "internalType": "uint256",
          "name": "amount",
          "type": "uint256"
        }
      ],
      "name": "unstakeNECCollateral",
      "outputs": [
        {
          "internalType": "bool",
          "name": "",
          "type": "bool"
        }
      ],
      "stateMutability": "nonpayable",
      "type": "function"
    },
    {
      "inputs": [
        {
          "internalType": "address",
          "name": "erc20",
          "type": "address"
        },
        {
          "internalType": "address",
          "name": "recipient",
          "type": "address"
        },
        {
          "internalType": "uint256",
          "name": "amount",
          "type": "uint256"
        }
      ],
      "name": "payFromInsuranceFund",
      "outputs": [
        {
          "internalType": "bool",
          "name": "",
          "type": "bool"
        }
      ],
      "stateMutability": "nonpayable",
      "type": "function"
    },
    {
      "inputs": [
        {
          "internalType": "address",
          "name": "_newPoolToken",
          "type": "address"
        }
      ],
      "name": "createNewPool",
      "outputs": [],
      "stateMutability": "nonpayable",
      "type": "function"
    },
    {
      "inputs": [
        {
          "internalType": "uint256",
          "name": "_newFee",
          "type": "uint256"
        }
      ],
      "name": "setTransferFee",
      "outputs": [],
      "stateMutability": "nonpayable",
      "type": "function"
    },
    {
      "inputs": [
        {
          "internalType": "uint8",
          "name": "_newPercentage",
          "type": "uint8"
        }
      ],
      "name": "setAvailabilityPercentage",
      "outputs": [],
      "stateMutability": "nonpayable",
      "type": "function"
    },
    {
      "inputs": [
        {
          "internalType": "address",
          "name": "_tokenAddress",
          "type": "address"
        },
        {
          "internalType": "bool",
          "name": "_isActive",
          "type": "bool"
        }
      ],
      "name": "setAaveIsActive",
      "outputs": [],
      "stateMutability": "nonpayable",
      "type": "function"
    },
    {
      "inputs": [
        {
          "internalType": "address",
          "name": "_admin",
          "type": "address"
        }
      ],
      "name": "setTransferAdmin",
      "outputs": [],
      "stateMutability": "nonpayable",
      "type": "function"
    }
  ],
  "bytecode": "0x608060405234801561001057600080fd5b50615e67806100206000396000f3fe60806040523480156200001157600080fd5b50600436106200022c5760003560e01c80638da5cb5b1162000135578063d6354e1511620000bd578063f0b810231162000087578063f0b810231462000637578063f2fde38b1462000660578063f8c8765e1462000689578063fe2f97e114620006ca578063ff97171f1462000709576200022c565b8063d6354e151462000568578063d67784221462000572578063eeb72866146200057c578063f04edd5414620005fe576200022c565b8063ad5c464811620000ff578063ad5c4648146200050b578063b4d1d7951462000515578063c3d2c3c1146200051f578063cbb0f9e01462000548576200022c565b80638da5cb5b14620004765780638f02bb5b1462000480578063993a632514620004a0578063a199f83414620004c9576200022c565b806343ca836311620001b9578063735c0b681162000183578063735c0b6814620003f45780638391e98e1462000414578063847636e614620004435780638bdb2afa146200046c576200022c565b806343ca8363146200035c57806367e00e8814620003855780636a93856714620003ca578063715018a614620003ea576200022c565b806321da1b1d11620001fb57806321da1b1d14620002e8578063330c2f24146200032557806336e1da4314620003485780633c9b24431462000352576200022c565b80630c7d5cd81462000231578063114396df14620002515780631968ef3b146200028c5780631a9b688e14620002bf575b600080fd5b6200023b62000738565b6040805160ff9092168252519081900360200190f35b6200027a600480360360208110156200026957600080fd5b50356001600160a01b031662000741565b60408051918252519081900360200190f35b620002bd60048036036040811015620002a457600080fd5b506001600160a01b038135169060200135151562000753565b005b620002bd60048036036020811015620002d757600080fd5b50356001600160a01b03166200093f565b62000311600480360360208110156200030057600080fd5b50356001600160a01b031662000d17565b604080519115158252519081900360200190f35b620002bd600480360360208110156200033d57600080fd5b503560ff1662000fc9565b6200027a62001086565b6200027a6200108c565b620002bd600480360360208110156200037457600080fd5b50356001600160a01b031662001092565b620003ae600480360360208110156200039d57600080fd5b50356001600160a01b031662001110565b604080516001600160a01b039092168252519081900360200190f35b6200031160048036036020811015620003e257600080fd5b50356200112b565b620002bd6200113e565b62000311600480360360208110156200040c57600080fd5b5035620011e4565b6200027a600480360360408110156200042c57600080fd5b506001600160a01b038135169060200135620012a5565b62000311600480360360208110156200045b57600080fd5b50356001600160a01b031662001432565b620003ae62001447565b620003ae6200145b565b620002bd600480360360208110156200049857600080fd5b50356200146b565b6200027a60048036036020811015620004b857600080fd5b50356001600160a01b031662001552565b620004f260048036036020811015620004e157600080fd5b50356001600160a01b031662001564565b6040805163ffffffff9092168252519081900360200190f35b620003ae6200157c565b6200027a6200158b565b620003ae600480360360208110156200053757600080fd5b50356001600160a01b031662001592565b62000311600480360360208110156200056057600080fd5b5035620015ad565b6200031162001722565b6200023b6200172b565b6200058662001739565b6040805160208082528351818301528351919283929083019185019080838360005b83811015620005c2578181015183820152602001620005a8565b50505050905090810190601f168015620005f05780820380516001836020036101000a031916815260200191505b509250505060405180910390f35b62000311600480360360608110156200061657600080fd5b506001600160a01b03813581169160208101359091169060400135620017d3565b62000311600480360360208110156200064f57600080fd5b50356001600160a01b0316620018d2565b620002bd600480360360208110156200067857600080fd5b50356001600160a01b031662001c4e565b620002bd60048036036080811015620006a157600080fd5b506001600160a01b03813581169160208101358216916040820135811691606001351662001d4d565b620002bd60048036036080811015620006e257600080fd5b506001600160a01b0381358116916020810135909116906040810135906060013562001edc565b62000311600480360360408110156200072157600080fd5b506001600160a01b0381351690602001356200218f565b60ab5460ff1681565b60a76020526000908152604090205481565b6200075d6200224a565b606f546001600160a01b03908116911614620007af576040805162461bcd60e51b8152602060048201819052602482015260008051602062005d1b833981519152604482015290519081900360640190fd5b6001600160a01b03808316600090815260a4602052604090205416806200081d576040805162461bcd60e51b815260206004820152601960248201527f52656769737472793a20504f4f4c5f4d5553545f455849535400000000000000604482015290519081900360640190fd5b6001600160a01b038116600090815260a660205260409020805460ff1916831515179081905560ff16620008a157806001600160a01b031663b1dec9eb6040518163ffffffff1660e01b8152600401600060405180830381600087803b1580156200088757600080fd5b505af11580156200089c573d6000803e3d6000fd5b505050505b6001600160a01b038116600090815260a6602052604090205460ff161515600114156200093a57806001600160a01b031663f5671abc6040518163ffffffff1660e01b815260040160206040518083038186803b1580156200090257600080fd5b505afa15801562000917573d6000803e3d6000fd5b505050506040513d60208110156200092e57600080fd5b50516200093a57600080fd5b505050565b620009496200224a565b606f546001600160a01b039081169116146200099b576040805162461bcd60e51b8152602060048201819052602482015260008051602062005d1b833981519152604482015290519081900360640190fd5b6001600160a01b03818116600090815260a46020526040902054161562000a09576040805162461bcd60e51b815260206004820152601e60248201527f52656769737472793a20544f4b454e5f4e4f545f4f4e5f554e49535741500000604482015290519081900360640190fd5b62000a148162000d17565b506060816001600160a01b03166395d89b416040518163ffffffff1660e01b815260040160006040518083038186803b15801562000a5157600080fd5b505afa15801562000a66573d6000803e3d6000fd5b505050506040513d6000823e601f3d908101601f19168201604052602081101562000a9057600080fd5b810190808051604051939291908464010000000082111562000ab157600080fd5b90830190602082018581111562000ac757600080fd5b825164010000000081118282018810171562000ae257600080fd5b82525081516020918201929091019080838360005b8381101562000b1157818101518382015260200162000af7565b50505050905090810190601f16801562000b3f5780820380516001836020036101000a031916815260200191505b5060405250505090506000816040516020018080664456462d4c502d60c81b81525060070182805190602001908083835b6020831062000b915780518252601f19909201916020918201910162000b70565b6001836020036101000a0380198251168184511680821785525050505050509050019150506040516020818303038152906040528360a260009054906101000a90046001600160a01b031660405162000bea9062003208565b6001600160a01b03808416602080840191909152908316604083015260608083528551908301528451829160808301919087019080838360005b8381101562000c3e57818101518382015260200162000c24565b50505050905090810190601f16801562000c6c5780820380516001836020036101000a031916815260200191505b50945050505050604051809103906000f08015801562000c90573d6000803e3d6000fd5b506001600160a01b03848116600081815260a46020908152604080832080546001600160a01b031916958716958617905584835260a5825291829020805460ff19166001179055815192835282019290925281519293507f2f600c594ee6607895b92c7654c4b9a3c71aaaaecb8e048f66d7f84e67e294b1929081900390910190a1505050565b6001600160a01b038181166000908152603c602052604081205490911615158062000d4f57506035546001600160a01b038381169116145b1562000d5e5750600162000fc4565b60345460355460009162000d86916001600160a01b036101009092048216918691166200224e565b90506000806000836001600160a01b0316630902f1ac6040518163ffffffff1660e01b815260040160606040518083038186803b15801562000dc757600080fd5b505afa15801562000ddc573d6000803e3d6000fd5b505050506040513d606081101562000df357600080fd5b50805160208201516040909201516001600160701b039182169550911692509050821580159062000e2357508115155b62000e75576040805162461bcd60e51b815260206004820152601a60248201527f4f7261636c654d616e616765723a204e4f5f5245534552564553000000000000604482015290519081900360640190fd5b836001600160a01b0316635909c0d56040518163ffffffff1660e01b815260040160206040518083038186803b15801562000eaf57600080fd5b505afa15801562000ec4573d6000803e3d6000fd5b505050506040513d602081101562000edb57600080fd5b50516001600160a01b03808816600090815260396020908152604091829020939093558051635a3d549360e01b8152905191871692635a3d549392600480840193829003018186803b15801562000f3157600080fd5b505afa15801562000f46573d6000803e3d6000fd5b505050506040513d602081101562000f5d57600080fd5b50516001600160a01b038781166000908152603a6020908152604080832094909455603b8152838220805463ffffffff191663ffffffff9690961695909517909455603c909352912080546001600160a01b03191694909116939093179092555060019150505b919050565b62000fd36200224a565b606f546001600160a01b0390811691161462001025576040805162461bcd60e51b8152602060048201819052602482015260008051602062005d1b833981519152604482015290519081900360640190fd5b60648160ff1611156200106a5760405162461bcd60e51b815260040180806020018281038252602881526020018062005c606028913960400191505060405180910390fd5b60ab805460ff9092166101000261ff0019909216919091179055565b60aa5481565b60a95481565b6200109c6200224a565b606f546001600160a01b03908116911614620010ee576040805162461bcd60e51b8152602060048201819052602482015260008051602062005d1b833981519152604482015290519081900360640190fd5b60a380546001600160a01b0319166001600160a01b0392909216919091179055565b603c602052600090815260409020546001600160a01b031681565b6000620011388262002310565b92915050565b620011486200224a565b606f546001600160a01b039081169116146200119a576040805162461bcd60e51b8152602060048201819052602482015260008051602062005d1b833981519152604482015290519081900360640190fd5b606f546040516000916001600160a01b0316907f8be0079c531659141344cd1fd0a4f28419497f9722a3daafe3b4186f6b6457e0908390a3606f80546001600160a01b0319169055565b6000620011f06200224a565b606f546001600160a01b0390811691161462001242576040805162461bcd60e51b8152602060048201819052602482015260008051602062005d1b833981519152604482015290519081900360640190fd5b60365462001262906001600160a01b031633308563ffffffff6200232516565b604080513381526020810184905281517f5128f687687fdcc3b085d135586a2ca4c762ee0834a24f8320d110096318483e929181900390910190a1506001919050565b6036546000906001600160a01b0384811691161415620012c7575080620013df565b6035546001600160a01b03848116911614156200133f576036546001600160a01b0316600090815260386020908152604091829020825191820190925290546001600160e01b031681526200132e9062001328908463ffffffff6200238716565b6200240b565b6001600160901b03169050620013df565b6036546001600160a01b0316600090815260386020908152604091829020825191820190925290546001600160e01b031681526200137d9062002412565b6001600160a01b038416600090815260376020908152604091829020825191820190925290546001600160e01b031681526001600160701b039190911690620013d29062001328908563ffffffff6200238716565b026001600160901b031690505b8062001138576040805162461bcd60e51b815260206004820152601960248201527f4f7261636c654d616e616765723a2050524943455f5a45524f00000000000000604482015290519081900360640190fd5b60a66020526000908152604090205460ff1681565b60345461010090046001600160a01b031681565b606f546001600160a01b03165b90565b620014756200224a565b606f546001600160a01b03908116911614620014c7576040805162461bcd60e51b8152602060048201819052602482015260008051602062005d1b833981519152604482015290519081900360640190fd5b6127108111156200150a5760405162461bcd60e51b815260040180806020018281038252602681526020018062005ba56026913960400191505060405180910390fd5b6126ac8110156200154d5760405162461bcd60e51b815260040180806020018281038252602681526020018062005e0c6026913960400191505060405180910390fd5b60aa55565b60a86020526000908152604090205481565b603b6020526000908152604090205463ffffffff1681565b6035546001600160a01b031681565b6201518081565b60a4602052600090815260409020546001600160a01b031681565b6000620015b96200224a565b606f546001600160a01b039081169116146200160b576040805162461bcd60e51b8152602060048201819052602482015260008051602062005d1b833981519152604482015290519081900360640190fd5b603654604080516370a0823160e01b815230600482015290516000926001600160a01b0316916370a08231916024808301926020929190829003018186803b1580156200165757600080fd5b505afa1580156200166c573d6000803e3d6000fd5b505050506040513d60208110156200168357600080fd5b5051905062001699818463ffffffff6200242216565b60ab5460a954620016b39160ff1663ffffffff6200246d16565b1115620016bf57600080fd5b603654620016de906001600160a01b0316338563ffffffff620024cb16565b604080513381526020810185905281517f0298df7c07c49722d2d1b7a5848536f8af5c0eea4d325c6814009f65abd22ccd929181900390910190a150600192915050565b60345460ff1690565b60ab54610100900460ff1681565b60a18054604080516020601f6002600019610100600188161502019095169490940493840181900481028201810190925282815260609390929091830182828015620017c95780601f106200179d57610100808354040283529160200191620017c9565b820191906000526020600020905b815481529060010190602001808311620017ab57829003601f168201915b5050505050905090565b33600090815260a5602052604081205460ff1662001838576040805162461bcd60e51b815260206004820152601d60248201527f52656769737472793a2043414c4c45525f4d5553545f42455f504f4f4c000000604482015290519081900360640190fd5b6000620018468584620012a5565b60ab54909150620018839085906200186990849060ff1663ffffffff6200246d16565b6036546001600160a01b0316919063ffffffff620024cb16565b604080516001600160a01b03861681526020810185905281517fde4e3e997a5c1289064ac35e843bfcba5d32be10e3e1d4ce54b364bb3e2dedef929181900390910190a1506001949350505050565b6035546000906001600160a01b0383811691161415620019245760405162461bcd60e51b815260040180806020018281038252602c81526020018062005c88602c913960400191505060405180910390fd5b6001600160a01b038281166000908152603c6020526040902054166200197c5760405162461bcd60e51b815260040180806020018281038252602381526020018062005c3d6023913960400191505060405180910390fd5b6001600160a01b038083166000908152603c6020526040812054909116908080620019a7846200251f565b6001600160a01b0389166000908152603b6020526040902054929550909350915063ffffffff90811682039062015180908216101562001a195760405162461bcd60e51b815260040180806020018281038252602181526020018062005cfa6021913960400191505060405180910390fd5b62001a2362003216565b60405180602001604052808363ffffffff16603960008c6001600160a01b03166001600160a01b031681526020019081526020016000205488038162001a6557fe5b046001600160e01b031690526001600160a01b0389166000908152603960205260409020869055905062001a9862003216565b60405180602001604052808463ffffffff16603a60008d6001600160a01b03166001600160a01b031681526020019081526020016000205488038162001ada57fe5b046001600160e01b031690526001600160a01b038a81166000908152603a602090815260408083208a9055603b825291829020805463ffffffff191663ffffffff8a161790556035548251630dfe168160e01b81529251949550831693928b1692630dfe1681926004808201939291829003018186803b15801562001b5e57600080fd5b505afa15801562001b73573d6000803e3d6000fd5b505050506040513d602081101562001b8a57600080fd5b50516001600160a01b0316141562001bf0576001600160a01b0389166000908152603860209081526040808320855181546001600160e01b039182166001600160e01b031991821617909255603790935292208351815492169190921617905562001c3f565b6001600160a01b0389166000908152603760209081526040808320855181546001600160e01b039182166001600160e01b03199182161790925560389093529220835181549216919092161790555b50600198975050505050505050565b62001c586200224a565b606f546001600160a01b0390811691161462001caa576040805162461bcd60e51b8152602060048201819052602482015260008051602062005d1b833981519152604482015290519081900360640190fd5b6001600160a01b03811662001cf15760405162461bcd60e51b815260040180806020018281038252602681526020018062005c176026913960400191505060405180910390fd5b606f546040516001600160a01b038084169216907f8be0079c531659141344cd1fd0a4f28419497f9722a3daafe3b4186f6b6457e090600090a3606f80546001600160a01b0319166001600160a01b0392909216919091179055565b600054610100900460ff168062001d69575062001d69620026fe565b8062001d78575060005460ff16155b62001db55760405162461bcd60e51b815260040180806020018281038252602e81526020018062005d3b602e913960400191505060405180910390fd5b600054610100900460ff1615801562001de1576000805460ff1961ff0019909116610100171660011790555b62001dee85858562002704565b62001df86200280b565b60405160200180602762005bcb823960408051808303600701815260279092019052805162001e2f925060a1916020019062003228565b5060a280546001600160a01b0319166001600160a01b03841617905561270660aa5560ab8054600260ff199091161761ff00191661140017905560ab54606461010090910460ff16111562001e8357600080fd5b60ab54600160ff9091161162001e9857600080fd5b62001ea26200145b565b60a380546001600160a01b0319166001600160a01b0392909216919091179055801562001ed5576000805461ff00191690555b5050505050565b60a3546001600160a01b0316331462001f275760405162461bcd60e51b815260040180806020018281038252602781526020018062005d8c6027913960400191505060405180910390fd5b60408051606085811b6bffffffffffffffffffffffff19908116602080850191909152603484018790529188901b1660548301526068808301859052835180840390910181526088909201909252805191012062001f858162002310565b1562001fc35760405162461bcd60e51b815260040180806020018281038252602581526020018062005bf26025913960400191505060405180910390fd5b62001fce81620028c9565b604080516001600160a01b038087168252871660208201528082018590526060810184905290517f36c96ccc320eab9b6da1de6cc1e8ebc52a51cb114710b9c7db204cdad3067ce19181900360800190a16001600160a01b038516620020e6576035546001600160a01b03908116600090815260a4602052604090205416631d62ddd3856200205d86620028fd565b6040518363ffffffff1660e01b815260040180836001600160a01b03166001600160a01b0316815260200182815260200192505050600060405180830381600087803b158015620020ad57600080fd5b505af1158015620020c2573d6000803e3d6000fd5b5050603554620020df92506001600160a01b03169050846200292a565b5062001ed5565b6001600160a01b03808616600090815260a4602052604090205416637a5464e2856200211286620028fd565b6040518363ffffffff1660e01b815260040180836001600160a01b03166001600160a01b0316815260200182815260200192505050600060405180830381600087803b1580156200216257600080fd5b505af115801562002177573d6000803e3d6000fd5b505050506200218785846200292a565b505050505050565b6001600160a01b038216600090815260a76020526040812054620021ba908363ffffffff6200242216565b6001600160a01b03808516600081815260a7602090815260408083209590955560a490529290922054620021f992913391168563ffffffff6200232516565b604080513381526001600160a01b038516602082015280820184905290517fc17021b19f7bc64bcd91caf076d46a2fa34aab234dc4fe63389115dbfb85015a9181900360600190a150600192915050565b3390565b60008060006200225f858562002a4b565b604080516bffffffffffffffffffffffff19606094851b811660208084019190915293851b81166034830152825160288184030181526048830184528051908501206001600160f81b031960688401529a90941b9093166069840152607d8301989098527f96e8ac4277198ff8b6f785478aa9a39f403cb768dd02cbee326c3e7da348845f609d808401919091528851808403909101815260bd909201909752805196019590952095945050505050565b60009081526033602052604090205460ff1690565b604080516001600160a01b0380861660248301528416604482015260648082018490528251808303909101815260849091019091526020810180516001600160e01b03166323b872dd60e01b1790526200238190859062002b2e565b50505050565b62002391620032ad565b6000821580620023b957505082516001600160e01b031682810290838281620023b657fe5b04145b620023f65760405162461bcd60e51b815260040180806020018281038252602381526020018062005d696023913960400191505060405180910390fd5b60408051602081019091529081529392505050565b5160701c90565b5160701c6001600160701b031690565b60006200246683836040518060400160405280601e81526020017f536166654d6174683a207375627472616374696f6e206f766572666c6f77000081525062002be5565b9392505050565b6000826200247e5750600062001138565b828202828482816200248c57fe5b0414620024665760405162461bcd60e51b815260040180806020018281038252602181526020018062005cd96021913960400191505060405180910390fd5b604080516001600160a01b038416602482015260448082018490528251808303909101815260649091019091526020810180516001600160e01b031663a9059cbb60e01b1790526200093a90849062002b2e565b60008060006200252e62002c80565b9050836001600160a01b0316635909c0d56040518163ffffffff1660e01b815260040160206040518083038186803b1580156200256a57600080fd5b505afa1580156200257f573d6000803e3d6000fd5b505050506040513d60208110156200259657600080fd5b505160408051635a3d549360e01b815290519194506001600160a01b03861691635a3d549391600480820192602092909190829003018186803b158015620025dd57600080fd5b505afa158015620025f2573d6000803e3d6000fd5b505050506040513d60208110156200260957600080fd5b505160408051630240bc6b60e21b81529051919350600091829182916001600160a01b03891691630902f1ac916004808301926060929190829003018186803b1580156200265657600080fd5b505afa1580156200266b573d6000803e3d6000fd5b505050506040513d60608110156200268257600080fd5b5080516020820151604090920151909450909250905063ffffffff80821690851614620026f45780840363ffffffff8116620026bf848662002c8a565b516001600160e01b031602969096019563ffffffff8116620026e2858562002c8a565b516001600160e01b0316029590950194505b5050509193909250565b303b1590565b600054610100900460ff168062002720575062002720620026fe565b806200272f575060005460ff16155b6200276c5760405162461bcd60e51b815260040180806020018281038252602e81526020018062005d3b602e913960400191505060405180910390fd5b600054610100900460ff1615801562002798576000805460ff1961ff0019909116610100171660011790555b60348054610100600160a81b0319166101006001600160a01b038781169190910291909117909155603580546001600160a01b031990811686841617909155603680549091168483161790819055620027f2911662000d17565b50801562002381576000805461ff001916905550505050565b600054610100900460ff168062002827575062002827620026fe565b8062002836575060005460ff16155b620028735760405162461bcd60e51b815260040180806020018281038252602e81526020018062005d3b602e913960400191505060405180910390fd5b600054610100900460ff161580156200289f576000805460ff1961ff0019909116610100171660011790555b620028a962002d3e565b620028b362002de6565b8015620028c6576000805461ff00191690555b50565b6000818152603360205260409020805460ff1916600117905560345460ff16620028c6576034805460ff1916600117905550565b6000620011386127106200291d60aa54856200246d90919063ffffffff16565b9063ffffffff62002ee916565b6001600160a01b038216600090815260a8602052604081205460a954620029579163ffffffff6200242216565b60a9556001600160a01b038316600090815260a7602052604090205462002985908363ffffffff62002f2d16565b6001600160a01b038416600090815260a760205260409020819055620029ad908490620012a5565b6001600160a01b038416600090815260a86020526040902081905560a954620029dc9163ffffffff62002f2d16565b60a955620029e962002f88565b60ab5460a95462002a039160ff1663ffffffff6200246d16565b111562002a425760405162461bcd60e51b815260040180806020018281038252602f81526020018062005db3602f913960400191505060405180910390fd5b50600192915050565b600080826001600160a01b0316846001600160a01b0316141562002aa15760405162461bcd60e51b815260040180806020018281038252602581526020018062005cb46025913960400191505060405180910390fd5b826001600160a01b0316846001600160a01b03161062002ac357828462002ac6565b83835b90925090506001600160a01b03821662002b27576040805162461bcd60e51b815260206004820152601e60248201527f556e697377617056324c6962726172793a205a45524f5f414444524553530000604482015290519081900360640190fd5b9250929050565b606062002b85826040518060400160405280602081526020017f5361666545524332303a206c6f772d6c6576656c2063616c6c206661696c6564815250856001600160a01b0316620030079092919063ffffffff16565b8051909150156200093a5780806020019051602081101562002ba657600080fd5b50516200093a5760405162461bcd60e51b815260040180806020018281038252602a81526020018062005de2602a913960400191505060405180910390fd5b6000818484111562002c785760405162461bcd60e51b81526004018080602001828103825283818151815260200191508051906020019080838360005b8381101562002c3c57818101518382015260200162002c22565b50505050905090810190601f16801562002c6a5780820380516001836020036101000a031916815260200191505b509250505060405180910390fd5b505050900390565b63ffffffff421690565b62002c9462003216565b6000826001600160701b03161162002cf3576040805162461bcd60e51b815260206004820152601760248201527f4669786564506f696e743a204449565f42595f5a45524f000000000000000000604482015290519081900360640190fd5b6040805160208101909152806001600160701b0384166dffffffffffffffffffffffffffff60701b607087901b168162002d2957fe5b046001600160e01b0316815250905092915050565b600054610100900460ff168062002d5a575062002d5a620026fe565b8062002d69575060005460ff16155b62002da65760405162461bcd60e51b815260040180806020018281038252602e81526020018062005d3b602e913960400191505060405180910390fd5b600054610100900460ff16158015620028b3576000805460ff1961ff0019909116610100171660011790558015620028c6576000805461ff001916905550565b600054610100900460ff168062002e02575062002e02620026fe565b8062002e11575060005460ff16155b62002e4e5760405162461bcd60e51b815260040180806020018281038252602e81526020018062005d3b602e913960400191505060405180910390fd5b600054610100900460ff1615801562002e7a576000805460ff1961ff0019909116610100171660011790555b600062002e866200224a565b606f80546001600160a01b0319166001600160a01b038316908117909155604051919250906000907f8be0079c531659141344cd1fd0a4f28419497f9722a3daafe3b4186f6b6457e0908290a3508015620028c6576000805461ff001916905550565b60006200246683836040518060400160405280601a81526020017f536166654d6174683a206469766973696f6e206279207a65726f00000000000081525062003020565b60008282018381101562002466576040805162461bcd60e51b815260206004820152601b60248201527f536166654d6174683a206164646974696f6e206f766572666c6f770000000000604482015290519081900360640190fd5b603654604080516370a0823160e01b815230600482015290516000926001600160a01b0316916370a08231916024808301926020929190829003018186803b15801562002fd457600080fd5b505afa15801562002fe9573d6000803e3d6000fd5b505050506040513d60208110156200300057600080fd5b5051905090565b606062003018848460008562003089565b949350505050565b60008183620030725760405162461bcd60e51b815260206004820181815283516024840152835190928392604490910191908501908083836000831562002c3c57818101518382015260200162002c22565b5060008385816200307f57fe5b0495945050505050565b6060620030968562003202565b620030e8576040805162461bcd60e51b815260206004820152601d60248201527f416464726573733a2063616c6c20746f206e6f6e2d636f6e7472616374000000604482015290519081900360640190fd5b60006060866001600160a01b031685876040518082805190602001908083835b60208310620031295780518252601f19909201916020918201910162003108565b6001836020036101000a03801982511681845116808217855250505050505090500191505060006040518083038185875af1925050503d80600081146200318d576040519150601f19603f3d011682016040523d82523d6000602084013e62003192565b606091505b50915091508115620031a8579150620030189050565b805115620031b95780518082602001fd5b60405162461bcd60e51b815260206004820181815286516024840152865187939192839260440191908501908083836000831562002c3c57818101518382015260200162002c22565b3b151590565b6128c780620032de83390190565b60408051602081019091526000815290565b828054600181600116156101000203166002900490600052602060002090601f016020900481019282601f106200326b57805160ff19168380011785556200329b565b828001600101855582156200329b579182015b828111156200329b5782518255916020019190600101906200327e565b50620032a9929150620032c0565b5090565b6040518060200160405280600081525090565b6200146891905b80821115620032a95760008155600101620032c756fe60806040523480156200001157600080fd5b50604051620028c7380380620028c7833981810160405260608110156200003757600080fd5b81019080805160405193929190846401000000008211156200005857600080fd5b9083019060208201858111156200006e57600080fd5b82516401000000008111828201881017156200008957600080fd5b82525081516020918201929091019080838360005b83811015620000b85781810151838201526020016200009e565b50505050905090810190601f168015620000e65780820380516001836020036101000a031916815260200191505b5060409081526020828101519290910151855192945092508291849186918291829182916200011b916003918401906200019d565b508051620001319060049060208401906200019d565b5050600580546001600160a01b0396871661010002610100600160a81b031960ff19909216601217919091161790555050600680549284166001600160a01b03199384161790555060078054949092169381169390931790555060088054909116331790555062000242565b828054600181600116156101000203166002900490600052602060002090601f016020900481019282601f10620001e057805160ff191683800117855562000210565b8280016001018555821562000210579182015b8281111562000210578251825591602001919060010190620001f3565b506200021e92915062000222565b5090565b6200023f91905b808211156200021e576000815560010162000229565b90565b61267580620002526000396000f3fe6080604052600436106101c65760003560e01c806370a08231116100f7578063b1dec9eb11610095578063cbdf382c11610064578063cbdf382c1461066f578063dd62ed3e14610684578063de761c8b146106bf578063f5671abc146106d4576101cd565b8063b1dec9eb14610606578063bdde3a341461061b578063be1d24ad14610630578063c4353d8d1461065a576101cd565b806395d89b41116100d157806395d89b411461056a578063a222d7e91461057f578063a457c2d714610594578063a9059cbb146105cd576101cd565b806370a08231146104cb57806376e7ad92146104fe5780637a5464e214610531576101cd565b806330027a9711610164578063395093511161013e57806339509351146103fe57806343f2a85c1461043757806351da8acf1461046a5780636578ecc4146104b6576101cd565b806330027a9714610394578063313ce567146103a957806334e7a19f146103d4576101cd565b806318160ddd116101a057806318160ddd146102da5780631d62ddd31461030157806323b872dd1461033c57806329ab4dcb1461037f576101cd565b806306fdde03146101d2578063085d48831461025c578063095ea7b31461028d576101cd565b366101cd57005b600080fd5b3480156101de57600080fd5b506101e76106e9565b6040805160208082528351818301528351919283929083019185019080838360005b83811015610221578181015183820152602001610209565b50505050905090810190601f16801561024e5780820380516001836020036101000a031916815260200191505b509250505060405180910390f35b34801561026857600080fd5b50610271610780565b604080516001600160a01b039092168252519081900360200190f35b34801561029957600080fd5b506102c6600480360360408110156102b057600080fd5b506001600160a01b038135169060200135610794565b604080519115158252519081900360200190f35b3480156102e657600080fd5b506102ef6107b2565b60408051918252519081900360200190f35b34801561030d57600080fd5b5061033a6004803603604081101561032457600080fd5b506001600160a01b0381351690602001356107b8565b005b34801561034857600080fd5b506102c66004803603606081101561035f57600080fd5b506001600160a01b03813581169160208101359091169060400135610945565b34801561038b57600080fd5b506102716109d2565b3480156103a057600080fd5b506102ef6109e1565b3480156103b557600080fd5b506103be6109e7565b6040805160ff9092168252519081900360200190f35b3480156103e057600080fd5b5061033a600480360360208110156103f757600080fd5b50356109f0565b34801561040a57600080fd5b506102c66004803603604081101561042157600080fd5b506001600160a01b038135169060200135610acc565b34801561044357600080fd5b506102ef6004803603602081101561045a57600080fd5b50356001600160a01b0316610b20565b34801561047657600080fd5b5061049d6004803603602081101561048d57600080fd5b50356001600160a01b0316610b3b565b6040805192835260208301919091528051918290030190f35b3480156104c257600080fd5b506102ef610b54565b3480156104d757600080fd5b506102ef600480360360208110156104ee57600080fd5b50356001600160a01b0316610b9c565b34801561050a57600080fd5b506102c66004803603602081101561052157600080fd5b50356001600160a01b0316610bb7565b34801561053d57600080fd5b5061033a6004803603604081101561055457600080fd5b506001600160a01b038135169060200135610cb4565b34801561057657600080fd5b506101e7610d3d565b34801561058b57600080fd5b506102ef610d9e565b3480156105a057600080fd5b506102c6600480360360408110156105b757600080fd5b506001600160a01b038135169060200135610da4565b3480156105d957600080fd5b506102c6600480360360408110156105f057600080fd5b506001600160a01b038135169060200135610e12565b34801561061257600080fd5b5061033a610e26565b34801561062757600080fd5b506102ef610ea2565b34801561063c57600080fd5b5061033a6004803603602081101561065357600080fd5b5035610ea9565b34801561066657600080fd5b506102ef610f88565b34801561067b57600080fd5b506102716110ac565b34801561069057600080fd5b506102ef600480360360408110156106a757600080fd5b506001600160a01b03813581169160200135166110bb565b3480156106cb57600080fd5b506102ef6110e6565b3480156106e057600080fd5b506102c6611264565b60038054604080516020601f60026000196101006001881615020190951694909404938401819004810282018101909252828152606093909290918301828280156107755780601f1061074a57610100808354040283529160200191610775565b820191906000526020600020905b81548152906001019060200180831161075857829003601f168201915b505050505090505b90565b60055461010090046001600160a01b031681565b60006107a86107a1611389565b848461138d565b5060015b92915050565b60025490565b6008546001600160a01b03163314610817576040805162461bcd60e51b815260206004820152601d60248201527f506f6f6c3a2043414c4c45525f4d5553545f42455f5245474953545259000000604482015290519081900360640190fd5b600854604080516315ab88c960e31b815290516000926001600160a01b03169163ad5c4648916004808301926020929190829003018186803b15801561085c57600080fd5b505afa158015610870573d6000803e3d6000fd5b505050506040513d602081101561088657600080fd5b50516007549091506001600160a01b038083169116146108a257fe5b6108ab82611479565b806001600160a01b0316632e1a7d4d836040518263ffffffff1660e01b815260040180828152602001915050600060405180830381600087803b1580156108f157600080fd5b505af1158015610905573d6000803e3d6000fd5b50506040516001600160a01b038616925084156108fc02915084906000818181858888f1935050505015801561093f573d6000803e3d6000fd5b50505050565b6000610952848484611516565b6109c88461095e611389565b6109c38560405180606001604052806028815260200161255f602891396001600160a01b038a1660009081526001602052604081209061099c611389565b6001600160a01b03168152602081019190915260400160002054919063ffffffff61167d16565b61138d565b5060019392505050565b6008546001600160a01b031681565b60095481565b60055460ff1690565b60006109fa6107b2565b90506000610a06610f88565b610a1a575068056bc75e2d63100000610a44565b610a41610a25610f88565b610a35848663ffffffff61171416565b9063ffffffff61177416565b90505b600754604080513381526001600160a01b03909216602083015281810185905260608201839052517f3beacad699560392d63db279b742fd6a5c94e0258a7f2f99dbddeb4ddc058c289181900360800190a1600754610ab4906001600160a01b031633308663ffffffff6117b616565b610abe3382611810565b610ac78361190c565b505050565b60006107a8610ad9611389565b846109c38560016000610aea611389565b6001600160a01b03908116825260208083019390935260409182016000908120918c16815292529020549063ffffffff61197b16565b6000610b33610b2e83610b9c565b6119d5565b90505b919050565b600a602052600090815260409020805460019091015482565b6000610b75610b616119fa565b610b69610f88565b9063ffffffff611a7f16565b6009541115610b865750600061077d565b610b97600954610b69610b616119fa565b905090565b6001600160a01b031660009081526020819052604090205490565b6000610bc1612496565b506001600160a01b0382166000908152600a6020908152604080832081518083019092528054808352600190910154928201929092529190610c02906119d5565b9050611c20826020015101421115610c7057610c1c610b54565b8111610c4857610c30308360000151611ac1565b610c3f84828460000151611bc9565b92505050610b36565b610c53610b616119fa565b8111610c7057610c67308360000151611ac1565b610c3081611c78565b6201fa40826020015101421115610caa57610c9084828460000151611cfd565b50610c9f308360000151611ac1565b600192505050610b36565b5060009392505050565b6008546001600160a01b03163314610d13576040805162461bcd60e51b815260206004820152601d60248201527f506f6f6c3a2043414c4c45525f4d5553545f42455f5245474953545259000000604482015290519081900360640190fd5b610d1c81611479565b600754610d39906001600160a01b0316838363ffffffff611e1416565b5050565b60048054604080516020601f60026000196101006001881615020190951694909404938401819004810282018101909252828152606093909290918301828280156107755780601f1061074a57610100808354040283529160200191610775565b611c2081565b60006107a8610db1611389565b846109c38560405180606001604052806025815260200161261b6025913960016000610ddb611389565b6001600160a01b03908116825260208083019390935260409182016000908120918d1681529252902054919063ffffffff61167d16565b60006107a8610e1f611389565b8484611516565b6008546001600160a01b03163314610e85576040805162461bcd60e51b815260206004820152601d60248201527f506f6f6c3a2043414c4c45525f4d5553545f42455f5245474953545259000000604482015290519081900360640190fd5b6000610e8f6110e6565b1115610ea057610ea0600019611e66565b565b6201fa4081565b6000610eb4826119d5565b9050610ebe610b54565b8111610edf57610ece3383611ac1565b610ed9338284611bc9565b50610d39565b610eea333084611516565b600754604080513381526001600160a01b039092166020830152818101849052517fa793bb1c04fd08e2fdc1458efc9547522b60d36f0d5f72c22ea3f8b8b8de57c89181900360600190a1604080518082018252336000908152600a60205291909120548190610f60908563ffffffff61197b16565b815242602091820152336000908152600a825260409020825181559101516001909101555050565b6000610f92611f66565b1561102757610f9f6110e6565b610fa76119fa565b600754604080516370a0823160e01b815230600482015290516001600160a01b03909216916370a0823191602480820192602092909190829003018186803b158015610ff257600080fd5b505afa158015611006573d6000803e3d6000fd5b505050506040513d602081101561101c57600080fd5b50510101905061077d565b61102f6119fa565b600754604080516370a0823160e01b815230600482015290516001600160a01b03909216916370a0823191602480820192602092909190829003018186803b15801561107a57600080fd5b505afa15801561108e573d6000803e3d6000fd5b505050506040513d60208110156110a457600080fd5b505101905090565b6007546001600160a01b031681565b6001600160a01b03918216600090815260016020908152604080832093909416825291909152205490565b600080600560019054906101000a90046001600160a01b03166001600160a01b0316630261bf8b6040518163ffffffff1660e01b815260040160206040518083038186803b15801561113757600080fd5b505afa15801561114b573d6000803e3d6000fd5b505050506040513d602081101561116157600080fd5b5051600654604080516335ea6a7560e01b81526001600160a01b0392831660048201529051929350600092918416916335ea6a759160248082019261018092909190829003018186803b1580156111b757600080fd5b505afa1580156111cb573d6000803e3d6000fd5b505050506040513d6101808110156111e257600080fd5b5060e00151604080516370a0823160e01b815230600482015290519192506001600160a01b038316916370a0823191602480820192602092909190829003018186803b15801561123157600080fd5b505afa158015611245573d6000803e3d6000fd5b505050506040513d602081101561125b57600080fd5b50519250505090565b600080600560019054906101000a90046001600160a01b03166001600160a01b0316630261bf8b6040518163ffffffff1660e01b815260040160206040518083038186803b1580156112b557600080fd5b505afa1580156112c9573d6000803e3d6000fd5b505050506040513d60208110156112df57600080fd5b5051600654604080516335ea6a7560e01b81526001600160a01b0392831660048201529051929350600092918416916335ea6a759160248082019261018092909190829003018186803b15801561133557600080fd5b505afa158015611349573d6000803e3d6000fd5b505050506040513d61018081101561136057600080fd5b5060e0015190506001600160a01b0381166113805760009250505061077d565b60019250505090565b3390565b6001600160a01b0383166113d25760405162461bcd60e51b81526004018080602001828103825260248152602001806125cd6024913960400191505060405180910390fd5b6001600160a01b0382166114175760405162461bcd60e51b81526004018080602001828103825260228152602001806124f66022913960400191505060405180910390fd5b6001600160a01b03808416600081815260016020908152604080832094871680845294825291829020859055815185815291517f8c5be1e5ebec7d5bd14f71427d1e84f3dd0314c0f7b2291e5b200ac8c7c3b9259281900390910190a3505050565b611481611f66565b61148a57611513565b600754604080516370a0823160e01b8152306004820152905183926001600160a01b0316916370a08231916024808301926020929190829003018186803b1580156114d457600080fd5b505afa1580156114e8573d6000803e3d6000fd5b505050506040513d60208110156114fe57600080fd5b50511061150a57611513565b61151381611c78565b50565b6001600160a01b03831661155b5760405162461bcd60e51b81526004018080602001828103825260258152602001806125a86025913960400191505060405180910390fd5b6001600160a01b0382166115a05760405162461bcd60e51b81526004018080602001828103825260238152602001806124b16023913960400191505060405180910390fd5b6115ab838383610ac7565b6115ee81604051806060016040528060268152602001612518602691396001600160a01b038616600090815260208190526040902054919063ffffffff61167d16565b6001600160a01b038085166000908152602081905260408082209390935590841681522054611623908263ffffffff61197b16565b6001600160a01b038084166000818152602081815260409182902094909455805185815290519193928716927fddf252ad1be2c89b69c2b068fc378daa952ba7f163c4a11628f55a4df523b3ef92918290030190a3505050565b6000818484111561170c5760405162461bcd60e51b81526004018080602001828103825283818151815260200191508051906020019080838360005b838110156116d15781810151838201526020016116b9565b50505050905090810190601f1680156116fe5780820380516001836020036101000a031916815260200191505b509250505060405180910390fd5b505050900390565b600082611723575060006107ac565b8282028284828161173057fe5b041461176d5760405162461bcd60e51b815260040180806020018281038252602181526020018061253e6021913960400191505060405180910390fd5b9392505050565b600061176d83836040518060400160405280601a81526020017f536166654d6174683a206469766973696f6e206279207a65726f000000000000815250611fb1565b604080516001600160a01b0380861660248301528416604482015260648082018490528251808303909101815260849091019091526020810180516001600160e01b03166323b872dd60e01b17905261093f908590612016565b6001600160a01b03821661186b576040805162461bcd60e51b815260206004820152601f60248201527f45524332303a206d696e7420746f20746865207a65726f206164647265737300604482015290519081900360640190fd5b61187760008383610ac7565b60025461188a908263ffffffff61197b16565b6002556001600160a01b0382166000908152602081905260409020546118b6908263ffffffff61197b16565b6001600160a01b0383166000818152602081815260408083209490945583518581529351929391927fddf252ad1be2c89b69c2b068fc378daa952ba7f163c4a11628f55a4df523b3ef9281900390910190a35050565b600061192e6064610a3561191e6120c7565b859060ff1663ffffffff61171416565b600954909150611944908263ffffffff61197b16565b60095561194f611f66565b15610d395760006119706119616110e6565b6009549063ffffffff611a7f16565b9050610ac7816120d9565b60008282018381101561176d576040805162461bcd60e51b815260206004820152601b60248201527f536166654d6174683a206164646974696f6e206f766572666c6f770000000000604482015290519081900360640190fd5b6000610b336119e26107b2565b610a356119ed610f88565b859063ffffffff61171416565b6008546007546040805163114396df60e01b81526001600160a01b0392831660048201529051600093929092169163114396df91602480820192602092909190829003018186803b158015611a4e57600080fd5b505afa158015611a62573d6000803e3d6000fd5b505050506040513d6020811015611a7857600080fd5b5051905090565b600061176d83836040518060400160405280601e81526020017f536166654d6174683a207375627472616374696f6e206f766572666c6f77000081525061167d565b6001600160a01b038216611b065760405162461bcd60e51b81526004018080602001828103825260218152602001806125876021913960400191505060405180910390fd5b611b1282600083610ac7565b611b55816040518060600160405280602281526020016124d4602291396001600160a01b038516600090815260208190526040902054919063ffffffff61167d16565b6001600160a01b038316600090815260208190526040902055600254611b81908263ffffffff611a7f16565b6002556040805182815290516000916001600160a01b038516917fddf252ad1be2c89b69c2b068fc378daa952ba7f163c4a11628f55a4df523b3ef9181900360200190a35050565b604080518082018252600080825260208083018281526001600160a01b038089168452600a9092529382209251835592516001909201919091556007549091611c1a9116858563ffffffff611e1416565b600754604080516001600160a01b038088168252909216602083015281810185905260608201849052517f12befe630a49a2c27f28eb8c2b9851051868435fcb150eec9e52056a75442a7f9181900360800190a15060019392505050565b611ca36064610a35611c886120c7565b60ff16611c9785610b69610f88565b9063ffffffff61171416565b600955611cae611f66565b1561151357600954611cbe6110e6565b1115611ce5576000611cd4600954610b696110e6565b9050611cdf81611e66565b50611513565b6000611cf26119616110e6565b9050610d39816120d9565b604080518082018252600080825260208083018281526001600160a01b03808916808552600a84528685209551865591516001909501949094556007548551918252909316908301528183018590526060820184905291517f98c339916e3a31d4c6c51e2a3502bb3788ceeddab8503303a7bd155a9c295aec9181900360800190a160085460075460408051633c13b75560e21b81526001600160a01b0392831660048201528783166024820152604481018790529051919092169163f04edd549160648083019260209291908290030181600087803b158015611de057600080fd5b505af1158015611df4573d6000803e3d6000fd5b505050506040513d6020811015611e0a57600080fd5b5051949350505050565b604080516001600160a01b038416602482015260448082018490528251808303909101815260649091019091526020810180516001600160e01b031663a9059cbb60e01b179052610ac7908490612016565b80611e7057611513565b6000600560019054906101000a90046001600160a01b03166001600160a01b0316630261bf8b6040518163ffffffff1660e01b815260040160206040518083038186803b158015611ec057600080fd5b505afa158015611ed4573d6000803e3d6000fd5b505050506040513d6020811015611eea57600080fd5b505160065460408051631a4ca37b60e21b81526001600160a01b039283166004820152602481018690523060448201529051929350908316916369328dec9160648082019260009290919082900301818387803b158015611f4a57600080fd5b505af1158015611f5e573d6000803e3d6000fd5b505050505050565b6008546040805163423b1b7360e11b815230600482015290516000926001600160a01b03169163847636e6916024808301926020929190829003018186803b158015611a4e57600080fd5b600081836120005760405162461bcd60e51b81526020600482018181528351602484015283519092839260449091019190850190808383600083156116d15781810151838201526020016116b9565b50600083858161200c57fe5b0495945050505050565b606061206b826040518060400160405280602081526020017f5361666545524332303a206c6f772d6c6576656c2063616c6c206661696c6564815250856001600160a01b03166121e19092919063ffffffff16565b805190915015610ac75780806020019051602081101561208a57600080fd5b5051610ac75760405162461bcd60e51b815260040180806020018281038252602a8152602001806125f1602a913960400191505060405180910390fd5b60006120d16121f8565b606403905090565b806120e357611513565b6000600560019054906101000a90046001600160a01b03166001600160a01b0316630261bf8b6040518163ffffffff1660e01b815260040160206040518083038186803b15801561213357600080fd5b505afa158015612147573d6000803e3d6000fd5b505050506040513d602081101561215d57600080fd5b505160065490915061217f906001600160a01b0316828463ffffffff61223d16565b6006546040805163e8eda9df60e01b81526001600160a01b039283166004820152602481018590523060448201526094606482015290519183169163e8eda9df9160848082019260009290919082900301818387803b158015611f4a57600080fd5b60606121f08484600085612323565b949350505050565b60085460408051636b3bc21160e11b815290516000926001600160a01b03169163d6778422916004808301926020929190829003018186803b158015611a4e57600080fd5b60408051636eb1769f60e11b81523060048201526001600160a01b03848116602483015291516000926122ce9285929188169163dd62ed3e91604480820192602092909190829003018186803b15801561229657600080fd5b505afa1580156122aa573d6000803e3d6000fd5b505050506040513d60208110156122c057600080fd5b50519063ffffffff61197b16565b604080516001600160a01b038616602482015260448082018490528251808303909101815260649091019091526020810180516001600160e01b031663095ea7b360e01b17905290915061093f908590612016565b606061232e85612490565b61237f576040805162461bcd60e51b815260206004820152601d60248201527f416464726573733a2063616c6c20746f206e6f6e2d636f6e7472616374000000604482015290519081900360640190fd5b60006060866001600160a01b031685876040518082805190602001908083835b602083106123be5780518252601f19909201916020918201910161239f565b6001836020036101000a03801982511681845116808217855250505050505090500191505060006040518083038185875af1925050503d8060008114612420576040519150601f19603f3d011682016040523d82523d6000602084013e612425565b606091505b509150915081156124395791506121f09050565b8051156124495780518082602001fd5b60405162461bcd60e51b81526020600482018181528651602484015286518793919283926044019190850190808383600083156116d15781810151838201526020016116b9565b3b151590565b60405180604001604052806000815260200160008152509056fe45524332303a207472616e7366657220746f20746865207a65726f206164647265737345524332303a206275726e20616d6f756e7420657863656564732062616c616e636545524332303a20617070726f766520746f20746865207a65726f206164647265737345524332303a207472616e7366657220616d6f756e7420657863656564732062616c616e6365536166654d6174683a206d756c7469706c69636174696f6e206f766572666c6f7745524332303a207472616e7366657220616d6f756e74206578636565647320616c6c6f77616e636545524332303a206275726e2066726f6d20746865207a65726f206164647265737345524332303a207472616e736665722066726f6d20746865207a65726f206164647265737345524332303a20617070726f76652066726f6d20746865207a65726f20616464726573735361666545524332303a204552433230206f7065726174696f6e20646964206e6f74207375636365656445524332303a2064656372656173656420616c6c6f77616e63652062656c6f77207a65726fa2646970667358221220b2376adf1e6a87e7c1d2ca8b030d5601e922c0fc91392bcecb3fa94bff97637a64736f6c6343000602003352656769737472793a20504f4f4c5f5452414e534645525f4645455f4d494e494d554d5f30254465766572736946695f4d61737465725472616e7366657252656769737472795f76302e302e3152656769737472793a205452414e534645525f414c52454144595f524547495354455245444f776e61626c653a206e6577206f776e657220697320746865207a65726f20616464726573734f7261636c654d616e616765723a20544f4b454e5f4e4f545f4f4e5f554e495357415052656769737472793a20504f4f4c5f415641494c4142494c4954595f4d4158494d554d5f313030254f7261636c654d616e616765723a20574554485f524154455f5550444154455f4e4f545f5245515549524544556e697377617056324c6962726172793a204944454e544943414c5f414444524553534553536166654d6174683a206d756c7469706c69636174696f6e206f766572666c6f774f7261636c654d616e616765723a20504552494f445f4e4f545f454c41505345444f776e61626c653a2063616c6c6572206973206e6f7420746865206f776e6572436f6e747261637420696e7374616e63652068617320616c7265616479206265656e20696e697469616c697a65644669786564506f696e743a204d554c5449504c49434154494f4e5f4f564552464c4f5752656769737472793a2043414c4c45525f4d5553545f42455f5452414e534645525f41444d494e52656769737472793a20424f52524f57494e475f455843454544535f4e45435f434f4c4c41544552414c5f4c494d545361666545524332303a204552433230206f7065726174696f6e20646964206e6f74207375636365656452656769737472793a20504f4f4c5f5452414e534645525f4645455f4d4158494d554d5f3125a26469706673582212201efb359871dc17528aff43d8038c816d51c9319b5d1820613d35e0d0200370d064736f6c63430006020033",
  "source": "pragma solidity ^0.6.2;\n\nimport \"@openzeppelin/contracts/token/ERC20/IERC20.sol\";\nimport \"@openzeppelin/contracts/token/ERC20/ERC20.sol\";\nimport \"@openzeppelin/contracts/token/ERC20/SafeERC20.sol\";\nimport \"@openzeppelin/contracts/math/SafeMath.sol\";\nimport \"@openzeppelin/contracts-ethereum-package/contracts/access/Ownable.sol\";\n\nimport \"../starkEx/FactRegistry.sol\";\nimport \"../starkEx/Identity.sol\";\nimport \"./WithdrawalPool.sol\";\nimport \"../oracles/OracleManager.sol\";\n\ncontract MasterTransferRegistry is Initializable, FactRegistry, Identity, OracleManager, OwnableUpgradeSafe  {\n  using SafeERC20 for IERC20;\n  using SafeMath for uint256;\n\n  string contractName;\n  address aaveLendingPoolRegistry;\n  address transferAdmin;\n\n  mapping (address => address) public tokenPools;\n  mapping (address => bool) internal isPool;\n  mapping (address => bool) public isAaveActive;\n  mapping (address => uint256) public lentSupply;\n  mapping (address => uint256) public lentSupplyEquivNEC;\n\n  uint256 public allPoolsLentSupplyEquivNEC;\n\n  // In future this fee can either be set via an equation related to the size of withdrawal and pool\n  // Or via governance of LP token holders\n  // inverseFee = 10000 - fee\n  uint256 public inverseFee;\n  // Ratio of insurance fund to pool funds\n  uint8 public reserveRatio;\n  // Percentage of funds that LP can instantly withdraw\n  uint8 public targetAvailabilityPercentage;\n\n  modifier onlyPool() {\n    require(isPool[msg.sender], \"Registry: CALLER_MUST_BE_POOL\");\n    _;\n  }\n\n  modifier onlyTransferAdmin() {\n    require(msg.sender == transferAdmin, \"Registry: CALLER_MUST_BE_TRANSFER_ADMIN\");\n    _;\n  }\n\n  function initialize(\n    address _uniswapFactory,\n    address _WETH,\n    address _NEC,\n    address _aaveLendingPoolRegistry\n  ) public initializer {\n    __OracleManager_init(_uniswapFactory, _WETH, _NEC);\n    __Ownable_init();\n    contractName = string(abi.encodePacked(\"DeversiFi_MasterTransferRegistry_v0.0.1\"));\n    aaveLendingPoolRegistry = _aaveLendingPoolRegistry;\n    inverseFee = 9990;\n    reserveRatio = 2;\n    targetAvailabilityPercentage = 20;\n    require(inverseFee <= 10000);\n    require(targetAvailabilityPercentage <= 100);\n    require(reserveRatio > 1);\n    transferAdmin = owner();\n  }\n\n  function identify()\n      external view override\n      returns(string memory)\n  {\n      return contractName;\n  }\n\n  event LogRegisteredTransfer(\n      address recipient,\n      address token,\n      uint256 amount,\n      uint256 salt\n  );\n\n  event LogRepaid(\n      address recipient,\n      address token,\n      uint256 amount\n  );\n\n  event LogInsurancePayout(\n      address recipient,\n      uint256 amount\n  );\n\n  event LogStakedNEC(\n      address staker,\n      uint256 amount\n  );\n\n  event LogUnstakedNEC(\n      address staker,\n      uint256 amount\n  );\n\n  event LogNewPoolCreated(\n      address underlyingToken,\n      address newPool\n  );\n\n  /*\n    Transfers funds from the pool to the withdrawer from DeversiFi\n    A fact with the transfer details is registered upon success.\n    Reverts if the fact has already been registered.\n  */\n  function transferForDeversifiWithdrawals(address erc20, address recipient, uint256 amount, uint256 salt)\n      external onlyTransferAdmin {\n      bytes32 transferFact = keccak256(\n          abi.encodePacked(recipient, amount, erc20, salt));\n      require(!_factCheck(transferFact), \"Registry: TRANSFER_ALREADY_REGISTERED\");\n      registerFact(transferFact);\n      emit LogRegisteredTransfer(recipient, erc20, amount, salt);\n\n      if (erc20 == address(0)) {\n        WithdrawalPool(payable(tokenPools[WETH])).makeTemporaryLoanETH(payable(recipient), calculateAmountMinusFee(amount));\n        recordBorrowingFromPool(WETH, amount);\n      } else {\n        WithdrawalPool(payable(tokenPools[erc20])).makeTemporaryLoan(recipient, calculateAmountMinusFee(amount));\n        recordBorrowingFromPool(erc20, amount);\n      }\n  }\n\n  function calculateAmountMinusFee(uint256 amount) internal view returns (uint256) {\n    return amount.mul(inverseFee).div(10000);\n  }\n\n  function recordBorrowingFromPool(address erc20, uint256 amount) internal returns (bool) {\n    allPoolsLentSupplyEquivNEC = allPoolsLentSupplyEquivNEC.sub(lentSupplyEquivNEC[erc20]);\n    lentSupply[erc20] = lentSupply[erc20].add(amount);\n    lentSupplyEquivNEC[erc20] = necExchangeRate(erc20, lentSupply[erc20]);\n    allPoolsLentSupplyEquivNEC = allPoolsLentSupplyEquivNEC.add(lentSupplyEquivNEC[erc20]);\n    require(allPoolsLentSupplyEquivNEC.mul(reserveRatio) <= totalNEC(), \"Registry: BORROWING_EXCEEDS_NEC_COLLATERAL_LIMT\");\n    return true;\n  }\n\n  function repayToPool(address erc20, uint256 amount) external returns (bool) {\n    lentSupply[erc20] = lentSupply[erc20].sub(amount);\n    // Note that to save gas we do not recalculate lentSupplyEquivNEC here since it will be calculated when the next transfer out is made, and is not needed until then\n    IERC20(erc20).safeTransferFrom(msg.sender, tokenPools[erc20], amount);\n    emit LogRepaid(msg.sender, erc20, amount);\n    return true;\n  }\n\n  function totalNEC() internal view returns (uint256) {\n    return IERC20(NEC).balanceOf(address(this));\n  }\n\n  function stakeNECCollateral(uint256 amount) external onlyOwner returns (bool) {\n    IERC20(NEC).safeTransferFrom(msg.sender, address(this), amount);\n    emit LogStakedNEC(msg.sender, amount);\n    return true;\n  }\n\n  function unstakeNECCollateral(uint256 amount) external onlyOwner returns (bool) {\n    uint256 currentBalance = IERC20(NEC).balanceOf(address(this));\n    require(allPoolsLentSupplyEquivNEC.mul(reserveRatio) <= currentBalance.sub(amount));\n    IERC20(NEC).safeTransfer(msg.sender, amount);\n    emit LogUnstakedNEC(msg.sender, amount);\n    return true;\n  }\n\n  function payFromInsuranceFund(address erc20, address recipient, uint256 amount) public onlyPool returns (bool) {\n    uint256 equivalentValueInNEC = necExchangeRate(erc20, amount);\n    IERC20(NEC).safeTransfer(recipient, equivalentValueInNEC.mul(reserveRatio));\n    emit LogInsurancePayout(recipient, amount);\n    return true;\n  }\n\n  function createNewPool(address _newPoolToken) external onlyOwner {\n    require(tokenPools[_newPoolToken] == address(0), \"Registry: TOKEN_NOT_ON_UNISWAP\");\n    registerNewOracle(_newPoolToken);\n    string memory symbol = ERC20(_newPoolToken).symbol();\n    WithdrawalPool newPool  = new WithdrawalPool(\n      string(abi.encodePacked('DVF-LP-', symbol)),\n      _newPoolToken,\n      aaveLendingPoolRegistry\n      );\n\n    tokenPools[_newPoolToken] = address(newPool);\n    isPool[address(newPool)] = true;\n    emit LogNewPoolCreated(_newPoolToken, address(newPool));\n  }\n\n  function setTransferFee(uint256 _newFee) external onlyOwner {\n    // Fee must be between 0 and 1%\n    require(_newFee <= 10000, \"Registry: POOL_TRANSFER_FEE_MINIMUM_0%\");\n    require(_newFee >= 9900, \"Registry: POOL_TRANSFER_FEE_MAXIMUM_1%\");\n    inverseFee = _newFee;\n  }\n\n  function setAvailabilityPercentage(uint8 _newPercentage) external onlyOwner {\n    require(_newPercentage <= 100, \"Registry: POOL_AVAILABILITY_MAXIMUM_100%\");\n    targetAvailabilityPercentage = _newPercentage;\n  }\n\n  function setAaveIsActive(address _tokenAddress, bool _isActive) external onlyOwner {\n    address poolAddress = tokenPools[_tokenAddress];\n    require(poolAddress != address(0), \"Registry: POOL_MUST_EXIST\");\n    isAaveActive[poolAddress] = _isActive;\n    if (isAaveActive[poolAddress] == false) {\n      WithdrawalPool(payable(poolAddress)).withdrawAllFromAave();\n    }\n    if (isAaveActive[poolAddress] == true) {\n      require(WithdrawalPool(payable(poolAddress)).isAssetSupported());\n    }\n  }\n\n  function setTransferAdmin(address _admin) external onlyOwner {\n    transferAdmin = _admin;\n  }\n\n}\n",
  "sourcePath": "/Users/willharborne/Desktop/EFX/repos/lp-contracts/contracts/liquidityProviders/MasterTransferRegistry.sol",
  "compiler": {
    "name": "solc",
    "version": "0.6.2+commit.bacdbe57.Emscripten.clang"
  },
  "schemaVersion": "3.2.4",
  "updatedAt": "2020-11-16T00:53:43.457Z",
  "devdoc": {
    "methods": {
      "owner()": {
        "details": "Returns the address of the current owner."
      },
      "renounceOwnership()": {
        "details": "Leaves the contract without owner. It will not be possible to call `onlyOwner` functions anymore. Can only be called by the current owner.     * NOTE: Renouncing ownership will leave the contract without an owner, thereby removing any functionality that is only available to the owner."
      },
      "transferOwnership(address)": {
        "details": "Transfers ownership of the contract to a new account (`newOwner`). Can only be called by the current owner."
      }
    }
  },
  "userdoc": {
    "methods": {}
  }
}