{
  "contractName": "MockLendingPoolAddressesProvider",
  "abi": [
    {
      "inputs": [
        {
          "internalType": "address",
          "name": "_lendingPoolAddress",
          "type": "address"
        }
      ],
      "stateMutability": "nonpayable",
      "type": "constructor"
    },
    {
      "inputs": [],
      "name": "getLendingPool",
      "outputs": [
        {
          "internalType": "address",
          "name": "",
          "type": "address"
        }
      ],
      "stateMutability": "view",
      "type": "function"
    }
  ],
  "bytecode": "0x608060405234801561001057600080fd5b506040516100f83803806100f88339818101604052602081101561003357600080fd5b5051600080546001600160a01b039092166001600160a01b03199092169190911790556094806100646000396000f3fe6080604052348015600f57600080fd5b506004361060285760003560e01c80630261bf8b14602d575b600080fd5b6033604f565b604080516001600160a01b039092168252519081900360200190f35b6000546001600160a01b03169056fea26469706673582212205a88251716e62bd61c7e818898a22ec1dcbd15709f5a27544b031e3da972777e64736f6c63430006020033",
  "source": "pragma solidity ^0.6.2;\n\ncontract MockLendingPoolAddressesProvider {\n\n    address lendingPoolAddress;\n\n    constructor(address _lendingPoolAddress) public {\n      lendingPoolAddress = _lendingPoolAddress;\n    }\n\n    function getLendingPool() public view returns (address) {\n      return lendingPoolAddress;\n    }\n\n}\n",
  "sourcePath": "/Users/willharborne/Desktop/EFX/repos/lp-contracts/contracts/aave/mocks/MockLendingPoolAddressesProvider.sol",
  "compiler": {
    "name": "solc",
    "version": "0.6.2+commit.bacdbe57.Emscripten.clang"
  },
  "schemaVersion": "3.2.4",
  "updatedAt": "2020-11-16T10:45:36.868Z",
  "devdoc": {
    "methods": {}
  },
  "userdoc": {
    "methods": {}
  }
}