{
  "contractName": "MockLendingPool",
  "abi": [
    {
      "inputs": [
        {
          "internalType": "address",
          "name": "_supportedAsset",
          "type": "address"
        }
      ],
      "stateMutability": "nonpayable",
      "type": "constructor"
    },
    {
      "anonymous": false,
      "inputs": [
        {
          "indexed": true,
          "internalType": "address",
          "name": "owner",
          "type": "address"
        },
        {
          "indexed": true,
          "internalType": "address",
          "name": "spender",
          "type": "address"
        },
        {
          "indexed": false,
          "internalType": "uint256",
          "name": "value",
          "type": "uint256"
        }
      ],
      "name": "Approval",
      "type": "event"
    },
    {
      "anonymous": false,
      "inputs": [
        {
          "indexed": true,
          "internalType": "address",
          "name": "from",
          "type": "address"
        },
        {
          "indexed": true,
          "internalType": "address",
          "name": "to",
          "type": "address"
        },
        {
          "indexed": false,
          "internalType": "uint256",
          "name": "value",
          "type": "uint256"
        }
      ],
      "name": "Transfer",
      "type": "event"
    },
    {
      "inputs": [
        {
          "internalType": "address",
          "name": "owner",
          "type": "address"
        },
        {
          "internalType": "address",
          "name": "spender",
          "type": "address"
        }
      ],
      "name": "allowance",
      "outputs": [
        {
          "internalType": "uint256",
          "name": "",
          "type": "uint256"
        }
      ],
      "stateMutability": "view",
      "type": "function"
    },
    {
      "inputs": [
        {
          "internalType": "address",
          "name": "spender",
          "type": "address"
        },
        {
          "internalType": "uint256",
          "name": "amount",
          "type": "uint256"
        }
      ],
      "name": "approve",
      "outputs": [
        {
          "internalType": "bool",
          "name": "",
          "type": "bool"
        }
      ],
      "stateMutability": "nonpayable",
      "type": "function"
    },
    {
      "inputs": [
        {
          "internalType": "address",
          "name": "account",
          "type": "address"
        }
      ],
      "name": "balanceOf",
      "outputs": [
        {
          "internalType": "uint256",
          "name": "",
          "type": "uint256"
        }
      ],
      "stateMutability": "view",
      "type": "function"
    },
    {
      "inputs": [],
      "name": "decimals",
      "outputs": [
        {
          "internalType": "uint8",
          "name": "",
          "type": "uint8"
        }
      ],
      "stateMutability": "view",
      "type": "function"
    },
    {
      "inputs": [
        {
          "internalType": "address",
          "name": "spender",
          "type": "address"
        },
        {
          "internalType": "uint256",
          "name": "subtractedValue",
          "type": "uint256"
        }
      ],
      "name": "decreaseAllowance",
      "outputs": [
        {
          "internalType": "bool",
          "name": "",
          "type": "bool"
        }
      ],
      "stateMutability": "nonpayable",
      "type": "function"
    },
    {
      "inputs": [
        {
          "internalType": "address",
          "name": "spender",
          "type": "address"
        },
        {
          "internalType": "uint256",
          "name": "addedValue",
          "type": "uint256"
        }
      ],
      "name": "increaseAllowance",
      "outputs": [
        {
          "internalType": "bool",
          "name": "",
          "type": "bool"
        }
      ],
      "stateMutability": "nonpayable",
      "type": "function"
    },
    {
      "inputs": [],
      "name": "name",
      "outputs": [
        {
          "internalType": "string",
          "name": "",
          "type": "string"
        }
      ],
      "stateMutability": "view",
      "type": "function"
    },
    {
      "inputs": [],
      "name": "symbol",
      "outputs": [
        {
          "internalType": "string",
          "name": "",
          "type": "string"
        }
      ],
      "stateMutability": "view",
      "type": "function"
    },
    {
      "inputs": [],
      "name": "totalSupply",
      "outputs": [
        {
          "internalType": "uint256",
          "name": "",
          "type": "uint256"
        }
      ],
      "stateMutability": "view",
      "type": "function"
    },
    {
      "inputs": [
        {
          "internalType": "address",
          "name": "recipient",
          "type": "address"
        },
        {
          "internalType": "uint256",
          "name": "amount",
          "type": "uint256"
        }
      ],
      "name": "transfer",
      "outputs": [
        {
          "internalType": "bool",
          "name": "",
          "type": "bool"
        }
      ],
      "stateMutability": "nonpayable",
      "type": "function"
    },
    {
      "inputs": [
        {
          "internalType": "address",
          "name": "sender",
          "type": "address"
        },
        {
          "internalType": "address",
          "name": "recipient",
          "type": "address"
        },
        {
          "internalType": "uint256",
          "name": "amount",
          "type": "uint256"
        }
      ],
      "name": "transferFrom",
      "outputs": [
        {
          "internalType": "bool",
          "name": "",
          "type": "bool"
        }
      ],
      "stateMutability": "nonpayable",
      "type": "function"
    },
    {
      "inputs": [
        {
          "internalType": "address",
          "name": "asset",
          "type": "address"
        },
        {
          "internalType": "uint256",
          "name": "amount",
          "type": "uint256"
        },
        {
          "internalType": "address",
          "name": "onBehalfOf",
          "type": "address"
        },
        {
          "internalType": "uint16",
          "name": "referralCode",
          "type": "uint16"
        }
      ],
      "name": "deposit",
      "outputs": [],
      "stateMutability": "nonpayable",
      "type": "function"
    },
    {
      "inputs": [
        {
          "internalType": "address",
          "name": "asset",
          "type": "address"
        },
        {
          "internalType": "uint256",
          "name": "amount",
          "type": "uint256"
        },
        {
          "internalType": "address",
          "name": "to",
          "type": "address"
        }
      ],
      "name": "withdraw",
      "outputs": [],
      "stateMutability": "nonpayable",
      "type": "function"
    },
    {
      "inputs": [
        {
          "internalType": "address",
          "name": "asset",
          "type": "address"
        }
      ],
      "name": "getReserveData",
      "outputs": [
        {
          "internalType": "uint256",
          "name": "configuration",
          "type": "uint256"
        },
        {
          "internalType": "uint128",
          "name": "liquidityIndex",
          "type": "uint128"
        },
        {
          "internalType": "uint128",
          "name": "variableBorrowIndex",
          "type": "uint128"
        },
        {
          "internalType": "uint128",
          "name": "currentLiquidityRate",
          "type": "uint128"
        },
        {
          "internalType": "uint128",
          "name": "currentVariableBorrowRate",
          "type": "uint128"
        },
        {
          "internalType": "uint128",
          "name": "currentStableBorrowRate",
          "type": "uint128"
        },
        {
          "internalType": "uint40",
          "name": "lastUpdateTimestamp",
          "type": "uint40"
        },
        {
          "internalType": "address",
          "name": "aTokenAddress",
          "type": "address"
        },
        {
          "internalType": "address",
          "name": "stableDebtTokenAddress",
          "type": "address"
        },
        {
          "internalType": "address",
          "name": "variableDebtTokenAddress",
          "type": "address"
        },
        {
          "internalType": "address",
          "name": "interestRateStrategyAddress",
          "type": "address"
        },
        {
          "internalType": "uint8",
          "name": "id",
          "type": "uint8"
        }
      ],
      "stateMutability": "view",
      "type": "function"
    }
  ],
  "bytecode": "0x608060405234801561001057600080fd5b506040516200110f3803806200110f8339818101604052602081101561003557600080fd5b5051604080518082018252601381527f4161766520496e74657265737420546f6b656e0000000000000000000000000060208281019182528351808501909452600484526320aa25a760e11b908401528151919291610096916003916100e3565b5080516100aa9060049060208401906100e3565b5050600580546001600160a01b0390931661010002610100600160a81b031960ff1990941660121793909316929092179091555061017e565b828054600181600116156101000203166002900490600052602060002090601f016020900481019282601f1061012457805160ff1916838001178555610151565b82800160010185558215610151579182015b82811115610151578251825591602001919060010190610136565b5061015d929150610161565b5090565b61017b91905b8082111561015d5760008155600101610167565b90565b610f81806200018e6000396000f3fe608060405234801561001057600080fd5b50600436106100ea5760003560e01c806369328dec1161008c578063a457c2d711610066578063a457c2d714610361578063a9059cbb1461038d578063dd62ed3e146103b9578063e8eda9df146103e7576100ea565b806369328dec146102fb57806370a082311461033357806395d89b4114610359576100ea565b806323b872dd116100c857806323b872dd146101c6578063313ce567146101fc57806335ea6a751461021a57806339509351146102cf576100ea565b806306fdde03146100ef578063095ea7b31461016c57806318160ddd146101ac575b600080fd5b6100f7610426565b6040805160208082528351818301528351919283929083019185019080838360005b83811015610131578181015183820152602001610119565b50505050905090810190601f16801561015e5780820380516001836020036101000a031916815260200191505b509250505060405180910390f35b6101986004803603604081101561018257600080fd5b506001600160a01b0381351690602001356104bc565b604080519115158252519081900360200190f35b6101b46104d9565b60408051918252519081900360200190f35b610198600480360360608110156101dc57600080fd5b506001600160a01b038135811691602081013590911690604001356104df565b61020461056c565b6040805160ff9092168252519081900360200190f35b6102406004803603602081101561023057600080fd5b50356001600160a01b0316610575565b604080519c8d526fffffffffffffffffffffffffffffffff9b8c1660208e0152998b168c8b0152978a1660608c015295891660808b01529390971660a089015264ffffffffff90911660c08801526001600160a01b0390811660e0880152948516610100870152841661012086015290921661014084015260ff90911661016083015251908190036101800190f35b610198600480360360408110156102e557600080fd5b506001600160a01b0381351690602001356105d5565b6103316004803603606081101561031157600080fd5b506001600160a01b03813581169160208101359160409091013516610629565b005b6101b46004803603602081101561034957600080fd5b50356001600160a01b03166106b3565b6100f76106ce565b6101986004803603604081101561037757600080fd5b506001600160a01b03813516906020013561072f565b610198600480360360408110156103a357600080fd5b506001600160a01b03813516906020013561079d565b6101b4600480360360408110156103cf57600080fd5b506001600160a01b03813581169160200135166107b1565b610331600480360360808110156103fd57600080fd5b5080356001600160a01b0390811691602081013591604082013516906060013561ffff166107dc565b60038054604080516020601f60026000196101006001881615020190951694909404938401819004810282018101909252828152606093909290918301828280156104b25780601f10610487576101008083540402835291602001916104b2565b820191906000526020600020905b81548152906001019060200180831161049557829003601f168201915b5050505050905090565b60006104d06104c961086d565b8484610871565b50600192915050565b60025490565b60006104ec84848461095d565b610562846104f861086d565b61055d85604051806060016040528060288152602001610e95602891396001600160a01b038a1660009081526001602052604081209061053661086d565b6001600160a01b03168152602081019190915260400160002054919063ffffffff610ac416565b610871565b5060019392505050565b60055460ff1690565b600554600090819081908190819081908190819081908190819081906001600160a01b038e81166101009092041614156105b1573094506105b6565b600094505b6000935060009250600091506000905091939597999b5091939597999b565b60006104d06105e261086d565b8461055d85600160006105f361086d565b6001600160a01b03908116825260208083019390935260409182016000908120918c16815292529020549063ffffffff610b5b16565b6106333383610bbc565b6040805163a9059cbb60e01b81523360048201526024810184905290516001600160a01b0385169163a9059cbb9160448083019260209291908290030181600087803b15801561068257600080fd5b505af1158015610696573d6000803e3d6000fd5b505050506040513d60208110156106ac57600080fd5b5050505050565b6001600160a01b031660009081526020819052604090205490565b60048054604080516020601f60026000196101006001881615020190951694909404938401819004810282018101909252828152606093909290918301828280156104b25780601f10610487576101008083540402835291602001916104b2565b60006104d061073c61086d565b8461055d85604051806060016040528060258152602001610f27602591396001600061076661086d565b6001600160a01b03908116825260208083019390935260409182016000908120918d1681529252902054919063ffffffff610ac416565b60006104d06107aa61086d565b848461095d565b6001600160a01b03918216600090815260016020908152604080832093909416825291909152205490565b6107e63384610cc4565b604080516323b872dd60e01b81523360048201523060248201526044810185905290516001600160a01b038616916323b872dd9160648083019260209291908290030181600087803b15801561083b57600080fd5b505af115801561084f573d6000803e3d6000fd5b505050506040513d602081101561086557600080fd5b505050505050565b3390565b6001600160a01b0383166108b65760405162461bcd60e51b8152600401808060200182810382526024815260200180610f036024913960400191505060405180910390fd5b6001600160a01b0382166108fb5760405162461bcd60e51b8152600401808060200182810382526022815260200180610e4d6022913960400191505060405180910390fd5b6001600160a01b03808416600081815260016020908152604080832094871680845294825291829020859055815185815291517f8c5be1e5ebec7d5bd14f71427d1e84f3dd0314c0f7b2291e5b200ac8c7c3b9259281900390910190a3505050565b6001600160a01b0383166109a25760405162461bcd60e51b8152600401808060200182810382526025815260200180610ede6025913960400191505060405180910390fd5b6001600160a01b0382166109e75760405162461bcd60e51b8152600401808060200182810382526023815260200180610e086023913960400191505060405180910390fd5b6109f2838383610dc0565b610a3581604051806060016040528060268152602001610e6f602691396001600160a01b038616600090815260208190526040902054919063ffffffff610ac416565b6001600160a01b038085166000908152602081905260408082209390935590841681522054610a6a908263ffffffff610b5b16565b6001600160a01b038084166000818152602081815260409182902094909455805185815290519193928716927fddf252ad1be2c89b69c2b068fc378daa952ba7f163c4a11628f55a4df523b3ef92918290030190a3505050565b60008184841115610b535760405162461bcd60e51b81526004018080602001828103825283818151815260200191508051906020019080838360005b83811015610b18578181015183820152602001610b00565b50505050905090810190601f168015610b455780820380516001836020036101000a031916815260200191505b509250505060405180910390fd5b505050900390565b600082820183811015610bb5576040805162461bcd60e51b815260206004820152601b60248201527f536166654d6174683a206164646974696f6e206f766572666c6f770000000000604482015290519081900360640190fd5b9392505050565b6001600160a01b038216610c015760405162461bcd60e51b8152600401808060200182810382526021815260200180610ebd6021913960400191505060405180910390fd5b610c0d82600083610dc0565b610c5081604051806060016040528060228152602001610e2b602291396001600160a01b038516600090815260208190526040902054919063ffffffff610ac416565b6001600160a01b038316600090815260208190526040902055600254610c7c908263ffffffff610dc516565b6002556040805182815290516000916001600160a01b038516917fddf252ad1be2c89b69c2b068fc378daa952ba7f163c4a11628f55a4df523b3ef9181900360200190a35050565b6001600160a01b038216610d1f576040805162461bcd60e51b815260206004820152601f60248201527f45524332303a206d696e7420746f20746865207a65726f206164647265737300604482015290519081900360640190fd5b610d2b60008383610dc0565b600254610d3e908263ffffffff610b5b16565b6002556001600160a01b038216600090815260208190526040902054610d6a908263ffffffff610b5b16565b6001600160a01b0383166000818152602081815260408083209490945583518581529351929391927fddf252ad1be2c89b69c2b068fc378daa952ba7f163c4a11628f55a4df523b3ef9281900390910190a35050565b505050565b6000610bb583836040518060400160405280601e81526020017f536166654d6174683a207375627472616374696f6e206f766572666c6f770000815250610ac456fe45524332303a207472616e7366657220746f20746865207a65726f206164647265737345524332303a206275726e20616d6f756e7420657863656564732062616c616e636545524332303a20617070726f766520746f20746865207a65726f206164647265737345524332303a207472616e7366657220616d6f756e7420657863656564732062616c616e636545524332303a207472616e7366657220616d6f756e74206578636565647320616c6c6f77616e636545524332303a206275726e2066726f6d20746865207a65726f206164647265737345524332303a207472616e736665722066726f6d20746865207a65726f206164647265737345524332303a20617070726f76652066726f6d20746865207a65726f206164647265737345524332303a2064656372656173656420616c6c6f77616e63652062656c6f77207a65726fa264697066735822122017e0b47ffe48937ef986168bc46df382562090e5d46ce00d17b8f2c363789efa64736f6c63430006020033",
  "source": "pragma solidity ^0.6.2;\n\nimport \"@openzeppelin/contracts/token/ERC20/IERC20.sol\";\nimport \"@openzeppelin/contracts/token/ERC20/ERC20.sol\";\n\n// For simplicity have combined lending pool and AToken in tests\ncontract MockLendingPool is ERC20 {\n\n  address supportedAsset;\n\n  constructor(address _supportedAsset) public ERC20(\"Aave Interest Token\", \"ATKN\") {\n    supportedAsset = _supportedAsset;\n  }\n\n  function deposit(address asset, uint256 amount, address onBehalfOf, uint16 referralCode) external {\n    _mint(msg.sender, amount);\n    IERC20(asset).transferFrom(msg.sender, address(this), amount);\n  }\n\n  function withdraw(address asset, uint256 amount, address to) external {\n    _burn(msg.sender, amount);\n    IERC20(asset).transfer(msg.sender, amount);\n  }\n\n  function getReserveData(address asset) external view returns(\n    uint256 configuration,\n    uint128 liquidityIndex,\n    uint128 variableBorrowIndex,\n    uint128 currentLiquidityRate,\n    uint128 currentVariableBorrowRate,\n    uint128 currentStableBorrowRate,\n    uint40 lastUpdateTimestamp,\n    address aTokenAddress,\n    address stableDebtTokenAddress,\n    address variableDebtTokenAddress,\n    address interestRateStrategyAddress,\n    uint8 id\n  ) {\n    configuration = 0;\n    liquidityIndex = 0;\n    variableBorrowIndex = 0;\n    currentLiquidityRate = 0;\n    currentVariableBorrowRate = 0;\n    currentStableBorrowRate = 0;\n    lastUpdateTimestamp = 0;\n    if (asset == supportedAsset) {\n      aTokenAddress = address(this);\n    } else {\n      aTokenAddress = address(0);\n    }\n    stableDebtTokenAddress = address(0);\n    variableDebtTokenAddress = address(0);\n    interestRateStrategyAddress = address(0);\n    id = 0;\n  }\n}\n",
  "sourcePath": "/Users/willharborne/Desktop/EFX/repos/lp-contracts/contracts/aave/mocks/MockLendingPool.sol",
  "compiler": {
    "name": "solc",
    "version": "0.6.2+commit.bacdbe57.Emscripten.clang"
  },
  "schemaVersion": "3.2.4",
  "updatedAt": "2020-11-16T10:45:36.864Z",
  "devdoc": {
    "methods": {
      "allowance(address,address)": {
        "details": "See {IERC20-allowance}."
      },
      "approve(address,uint256)": {
        "details": "See {IERC20-approve}.     * Requirements:     * - `spender` cannot be the zero address."
      },
      "balanceOf(address)": {
        "details": "See {IERC20-balanceOf}."
      },
      "decimals()": {
        "details": "Returns the number of decimals used to get its user representation. For example, if `decimals` equals `2`, a balance of `505` tokens should be displayed to a user as `5,05` (`505 / 10 ** 2`).     * Tokens usually opt for a value of 18, imitating the relationship between Ether and Wei. This is the value {ERC20} uses, unless {_setupDecimals} is called.     * NOTE: This information is only used for _display_ purposes: it in no way affects any of the arithmetic of the contract, including {IERC20-balanceOf} and {IERC20-transfer}."
      },
      "decreaseAllowance(address,uint256)": {
        "details": "Atomically decreases the allowance granted to `spender` by the caller.     * This is an alternative to {approve} that can be used as a mitigation for problems described in {IERC20-approve}.     * Emits an {Approval} event indicating the updated allowance.     * Requirements:     * - `spender` cannot be the zero address. - `spender` must have allowance for the caller of at least `subtractedValue`."
      },
      "increaseAllowance(address,uint256)": {
        "details": "Atomically increases the allowance granted to `spender` by the caller.     * This is an alternative to {approve} that can be used as a mitigation for problems described in {IERC20-approve}.     * Emits an {Approval} event indicating the updated allowance.     * Requirements:     * - `spender` cannot be the zero address."
      },
      "name()": {
        "details": "Returns the name of the token."
      },
      "symbol()": {
        "details": "Returns the symbol of the token, usually a shorter version of the name."
      },
      "totalSupply()": {
        "details": "See {IERC20-totalSupply}."
      },
      "transfer(address,uint256)": {
        "details": "See {IERC20-transfer}.     * Requirements:     * - `recipient` cannot be the zero address. - the caller must have a balance of at least `amount`."
      },
      "transferFrom(address,address,uint256)": {
        "details": "See {IERC20-transferFrom}.     * Emits an {Approval} event indicating the updated allowance. This is not required by the EIP. See the note at the beginning of {ERC20};     * Requirements: - `sender` and `recipient` cannot be the zero address. - `sender` must have a balance of at least `amount`. - the caller must have allowance for ``sender``'s tokens of at least `amount`."
      }
    }
  },
  "userdoc": {
    "methods": {}
  }
}