{
  "contractName": "OracleManager",
  "abi": [
    {
      "inputs": [],
      "name": "PERIOD",
      "outputs": [
        {
          "internalType": "uint256",
          "name": "",
          "type": "uint256"
        }
      ],
      "stateMutability": "view",
      "type": "function"
    },
    {
      "inputs": [],
      "name": "WETH",
      "outputs": [
        {
          "internalType": "address",
          "name": "",
          "type": "address"
        }
      ],
      "stateMutability": "view",
      "type": "function"
    },
    {
      "inputs": [
        {
          "internalType": "address",
          "name": "",
          "type": "address"
        }
      ],
      "name": "blockTimestampLastUpdate",
      "outputs": [
        {
          "internalType": "uint32",
          "name": "",
          "type": "uint32"
        }
      ],
      "stateMutability": "view",
      "type": "function"
    },
    {
      "inputs": [],
      "name": "uniswapFactory",
      "outputs": [
        {
          "internalType": "address",
          "name": "",
          "type": "address"
        }
      ],
      "stateMutability": "view",
      "type": "function"
    },
    {
      "inputs": [
        {
          "internalType": "address",
          "name": "",
          "type": "address"
        }
      ],
      "name": "uniswapPairs",
      "outputs": [
        {
          "internalType": "contract IUniswapV2Pair",
          "name": "",
          "type": "address"
        }
      ],
      "stateMutability": "view",
      "type": "function"
    },
    {
      "inputs": [
        {
          "internalType": "address",
          "name": "token",
          "type": "address"
        }
      ],
      "name": "updateExchangeRate",
      "outputs": [
        {
          "internalType": "bool",
          "name": "",
          "type": "bool"
        }
      ],
      "stateMutability": "nonpayable",
      "type": "function"
    },
    {
      "inputs": [
        {
          "internalType": "address",
          "name": "token",
          "type": "address"
        },
        {
          "internalType": "uint256",
          "name": "amountInToken",
          "type": "uint256"
        }
      ],
      "name": "necExchangeRate",
      "outputs": [
        {
          "internalType": "uint256",
          "name": "amountInNEC",
          "type": "uint256"
        }
      ],
      "stateMutability": "view",
      "type": "function"
    },
    {
      "inputs": [
        {
          "internalType": "address",
          "name": "token",
          "type": "address"
        }
      ],
      "name": "registerNewOracle",
      "outputs": [
        {
          "internalType": "bool",
          "name": "",
          "type": "bool"
        }
      ],
      "stateMutability": "nonpayable",
      "type": "function"
    }
  ],
  "bytecode": "0x608060405234801561001057600080fd5b50610f74806100206000396000f3fe608060405234801561001057600080fd5b50600436106100885760003560e01c8063a199f8341161005b578063a199f8341461014f578063ad5c46481461018e578063b4d1d79514610196578063f0b810231461019e57610088565b806321da1b1d1461008d57806367e00e88146100c75780638391e98e146101095780638bdb2afa14610147575b600080fd5b6100b3600480360360208110156100a357600080fd5b50356001600160a01b03166101c4565b604080519115158252519081900360200190f35b6100ed600480360360208110156100dd57600080fd5b50356001600160a01b0316610461565b604080516001600160a01b039092168252519081900360200190f35b6101356004803603604081101561011f57600080fd5b506001600160a01b03813516906020013561047c565b60408051918252519081900360200190f35b6100ed610601565b6101756004803603602081101561016557600080fd5b50356001600160a01b0316610610565b6040805163ffffffff9092168252519081900360200190f35b6100ed610628565b610135610637565b6100b3600480360360208110156101b457600080fd5b50356001600160a01b031661063d565b6001600160a01b038181166000908152603b60205260408120549091161515806101fb57506034546001600160a01b038381169116145b156102085750600161045c565b603354603454600091610229916001600160a01b03918216918691166109a5565b90506000806000836001600160a01b0316630902f1ac6040518163ffffffff1660e01b815260040160606040518083038186803b15801561026957600080fd5b505afa15801561027d573d6000803e3d6000fd5b505050506040513d606081101561029357600080fd5b50805160208201516040909201516001600160701b03918216955091169250905082158015906102c257508115155b610313576040805162461bcd60e51b815260206004820152601a60248201527f4f7261636c654d616e616765723a204e4f5f5245534552564553000000000000604482015290519081900360640190fd5b836001600160a01b0316635909c0d56040518163ffffffff1660e01b815260040160206040518083038186803b15801561034c57600080fd5b505afa158015610360573d6000803e3d6000fd5b505050506040513d602081101561037657600080fd5b50516001600160a01b03808816600090815260386020908152604091829020939093558051635a3d549360e01b8152905191871692635a3d549392600480840193829003018186803b1580156103cb57600080fd5b505afa1580156103df573d6000803e3d6000fd5b505050506040513d60208110156103f557600080fd5b50516001600160a01b03878116600090815260396020908152604080832094909455603a8152838220805463ffffffff191663ffffffff9690961695909517909455603b909352912080546001600160a01b03191694909116939093179092555060019150505b919050565b603b602052600090815260409020546001600160a01b031681565b6035546000906001600160a01b038481169116141561049c5750806105a9565b6034546001600160a01b038481169116141561050e576035546001600160a01b0316600090815260376020908152604091829020825191820190925290546001600160e01b031681526104fe906104f9908463ffffffff610a6516565b610ae3565b6001600160901b031690506105a9565b6035546001600160a01b0316600090815260376020908152604091829020825191820190925290546001600160e01b0316815261054a90610aea565b6001600160a01b038416600090815260366020908152604091829020825191820190925290546001600160e01b031681526001600160701b03919091169061059c906104f9908563ffffffff610a6516565b026001600160901b031690505b806105fb576040805162461bcd60e51b815260206004820152601960248201527f4f7261636c654d616e616765723a2050524943455f5a45524f00000000000000604482015290519081900360640190fd5b92915050565b6033546001600160a01b031681565b603a6020526000908152604090205463ffffffff1681565b6034546001600160a01b031681565b610e1081565b6034546000906001600160a01b038381169116141561068d5760405162461bcd60e51b815260040180806020018281038252602c815260200180610eaa602c913960400191505060405180910390fd5b6001600160a01b038281166000908152603b6020526040902054166106e35760405162461bcd60e51b8152600401808060200182810382526023815260200180610e876023913960400191505060405180910390fd5b6001600160a01b038083166000908152603b602052604081205490911690808061070c84610afa565b6001600160a01b0389166000908152603a6020526040902054929550909350915063ffffffff908116820390610e10908216101561077b5760405162461bcd60e51b8152600401808060200182810382526021815260200180610efb6021913960400191505060405180910390fd5b610783610e61565b60405180602001604052808363ffffffff16603860008c6001600160a01b03166001600160a01b03168152602001908152602001600020548803816107c457fe5b046001600160e01b031690526001600160a01b038916600090815260386020526040902086905590506107f5610e61565b60405180602001604052808463ffffffff16603960008d6001600160a01b03166001600160a01b031681526020019081526020016000205488038161083657fe5b046001600160e01b031690526001600160a01b038a811660009081526039602090815260408083208a9055603a825291829020805463ffffffff191663ffffffff8a161790556034548251630dfe168160e01b81529251949550831693928b1692630dfe1681926004808201939291829003018186803b1580156108b957600080fd5b505afa1580156108cd573d6000803e3d6000fd5b505050506040513d60208110156108e357600080fd5b50516001600160a01b03161415610947576001600160a01b0389166000908152603760209081526040808320855181546001600160e01b039182166001600160e01b0319918216179092556036909352922083518154921691909216179055610996565b6001600160a01b0389166000908152603660209081526040808320855181546001600160e01b039182166001600160e01b03199182161790925560379093529220835181549216919092161790555b50600198975050505050505050565b60008060006109b48585610cc9565b604080516bffffffffffffffffffffffff19606094851b811660208084019190915293851b81166034830152825160288184030181526048830184528051908501206001600160f81b031960688401529a90941b9093166069840152607d8301989098527f96e8ac4277198ff8b6f785478aa9a39f403cb768dd02cbee326c3e7da348845f609d808401919091528851808403909101815260bd909201909752805196019590952095945050505050565b610a6d610e73565b6000821580610a9357505082516001600160e01b031682810290838281610a9057fe5b04145b610ace5760405162461bcd60e51b8152600401808060200182810382526023815260200180610f1c6023913960400191505060405180910390fd5b60408051602081019091529081529392505050565b5160701c90565b5160701c6001600160701b031690565b6000806000610b07610da7565b9050836001600160a01b0316635909c0d56040518163ffffffff1660e01b815260040160206040518083038186803b158015610b4257600080fd5b505afa158015610b56573d6000803e3d6000fd5b505050506040513d6020811015610b6c57600080fd5b505160408051635a3d549360e01b815290519194506001600160a01b03861691635a3d549391600480820192602092909190829003018186803b158015610bb257600080fd5b505afa158015610bc6573d6000803e3d6000fd5b505050506040513d6020811015610bdc57600080fd5b505160408051630240bc6b60e21b81529051919350600091829182916001600160a01b03891691630902f1ac916004808301926060929190829003018186803b158015610c2857600080fd5b505afa158015610c3c573d6000803e3d6000fd5b505050506040513d6060811015610c5257600080fd5b5080516020820151604090920151909450909250905063ffffffff80821690851614610cbf5780840363ffffffff8116610c8c8486610db1565b516001600160e01b031602969096019563ffffffff8116610cad8585610db1565b516001600160e01b0316029590950194505b5050509193909250565b600080826001600160a01b0316846001600160a01b03161415610d1d5760405162461bcd60e51b8152600401808060200182810382526025815260200180610ed66025913960400191505060405180910390fd5b826001600160a01b0316846001600160a01b031610610d3d578284610d40565b83835b90925090506001600160a01b038216610da0576040805162461bcd60e51b815260206004820152601e60248201527f556e697377617056324c6962726172793a205a45524f5f414444524553530000604482015290519081900360640190fd5b9250929050565b63ffffffff421690565b610db9610e61565b6000826001600160701b031611610e17576040805162461bcd60e51b815260206004820152601760248201527f4669786564506f696e743a204449565f42595f5a45524f000000000000000000604482015290519081900360640190fd5b6040805160208101909152806001600160701b0384166dffffffffffffffffffffffffffff60701b607087901b1681610e4c57fe5b046001600160e01b0316815250905092915050565b60408051602081019091526000815290565b604051806020016040528060008152509056fe4f7261636c654d616e616765723a20544f4b454e5f4e4f545f4f4e5f554e49535741504f7261636c654d616e616765723a20574554485f524154455f5550444154455f4e4f545f5245515549524544556e697377617056324c6962726172793a204944454e544943414c5f4144445245535345534f7261636c654d616e616765723a20504552494f445f4e4f545f454c41505345444669786564506f696e743a204d554c5449504c49434154494f4e5f4f564552464c4f57a2646970667358221220ba3e5a7c8b3a876735bf06a4747d5894a714a2deafa755bc00ea5d4d2ec8984064736f6c63430006020033",
  "source": "pragma solidity ^0.6.2;\n\nimport '@uniswap/lib/contracts/libraries/FixedPoint.sol';\nimport '@uniswap/v2-core/contracts/interfaces/IUniswapV2Pair.sol';\n\nimport \"./UniswapV2OracleLibrary.sol\";\nimport \"./UniswapV2Library.sol\";\n\nimport \"@openzeppelin/contracts-ethereum-package/contracts/Initializable.sol\";\n\ncontract OracleManager is Initializable {\n  using FixedPoint for *;\n\n  address public uniswapFactory;\n  address public WETH;\n  address NEC;\n\n  uint public constant PERIOD = 1 hours;\n\n  // token to WETH price\n  mapping (address => FixedPoint.uq112x112) internal T2WPrice;\n  // WETH to token price\n  mapping (address => FixedPoint.uq112x112) internal W2TPrice;\n  mapping (address => uint256) internal price0CumulativeLastUpdate;\n  mapping (address => uint256) internal price1CumulativeLastUpdate;\n  mapping (address => uint32) public blockTimestampLastUpdate;\n\n  mapping (address => IUniswapV2Pair) public uniswapPairs;\n\n  function __OracleManager_init(address _factory, address _WETH, address _NEC) internal initializer {\n    uniswapFactory = _factory;\n    WETH = _WETH;\n    NEC = _NEC;\n    registerNewOracle(NEC);\n  }\n\n  function updateExchangeRate(address token) external returns (bool) {\n    require(token != WETH, 'OracleManager: WETH_RATE_UPDATE_NOT_REQUIRED');\n    require(address(uniswapPairs[token]) != address(0), 'OracleManager: TOKEN_NOT_ON_UNISWAP');\n\n    IUniswapV2Pair pair = uniswapPairs[token];\n    (uint price0Cumulative, uint price1Cumulative, uint32 blockTimestamp) =\n    UniswapV2OracleLibrary.currentCumulativePrices(address(pair));\n    uint32 timeElapsed = blockTimestamp - blockTimestampLastUpdate[token]; // overflow is desired\n\n    // ensure that at least one full period has passed since the last update\n    require(timeElapsed >= PERIOD, 'OracleManager: PERIOD_NOT_ELAPSED');\n\n    // overflow is desired, casting never truncates\n    // cumulative price is in (uq112x112 price * seconds) units so we simply wrap it after division by time elapsed\n    FixedPoint.uq112x112 memory p0 = FixedPoint.uq112x112(uint224((price0Cumulative - price0CumulativeLastUpdate[token]) / timeElapsed));\n    price0CumulativeLastUpdate[token] = price0Cumulative;\n    FixedPoint.uq112x112 memory p1 = FixedPoint.uq112x112(uint224((price1Cumulative - price1CumulativeLastUpdate[token]) / timeElapsed));\n    price1CumulativeLastUpdate[token] = price1Cumulative;\n    blockTimestampLastUpdate[token] = blockTimestamp;\n\n    if (pair.token0() == WETH) {\n      W2TPrice[token] = p0;\n      T2WPrice[token] = p1;\n    } else {\n      T2WPrice[token] = p0;\n      W2TPrice[token] = p1;\n    }\n    return true;\n  }\n\n  // For a specified token and amount\n  // Returns the equivalent value as a quantity of NEC\n  function necExchangeRate(address token, uint256 amountInToken) public view returns (uint256 amountInNEC) {\n    if (token == NEC) {\n      amountInNEC = amountInToken;\n    } else if (token == WETH) {\n      amountInNEC = W2TPrice[NEC].mul(amountInToken).decode144();\n    } else {\n      amountInNEC = T2WPrice[token].mul(amountInToken).decode144() * W2TPrice[NEC].decode();\n    }\n    require(amountInNEC != 0, 'OracleManager: PRICE_ZERO');\n  }\n\n  function registerNewOracle(address token) public returns (bool) {\n    if (address(uniswapPairs[token]) != address(0) ||\n      token == WETH\n    ) {\n      return true;\n    }\n    IUniswapV2Pair _pair = IUniswapV2Pair(UniswapV2Library.pairFor(uniswapFactory, token, WETH));\n    (uint reserve0, uint reserve1, uint32 blockTimestampLast) = _pair.getReserves();\n    require(reserve0 != 0 && reserve1 != 0, 'OracleManager: NO_RESERVES'); // ensure that there's liquidity in the pair\n    price0CumulativeLastUpdate[token] = _pair.price0CumulativeLast();\n    price1CumulativeLastUpdate[token] = _pair.price1CumulativeLast();\n    blockTimestampLastUpdate[token] = blockTimestampLast;\n    uniswapPairs[token] = _pair;\n    return true;\n  }\n\n}\n",
  "sourcePath": "/Users/willharborne/Desktop/EFX/repos/lp-contracts/contracts/oracles/OracleManager.sol",
  "compiler": {
    "name": "solc",
    "version": "0.6.2+commit.bacdbe57.Emscripten.clang"
  },
  "schemaVersion": "3.2.4",
  "updatedAt": "2020-11-15T22:48:39.264Z",
  "devdoc": {
    "methods": {}
  },
  "userdoc": {
    "methods": {}
  }
}