{
  "contractName": "TransferRegistry",
  "abi": [
    {
      "anonymous": false,
      "inputs": [
        {
          "indexed": false,
          "internalType": "address",
          "name": "recipient",
          "type": "address"
        },
        {
          "indexed": false,
          "internalType": "address",
          "name": "token",
          "type": "address"
        },
        {
          "indexed": false,
          "internalType": "uint256",
          "name": "amount",
          "type": "uint256"
        },
        {
          "indexed": false,
          "internalType": "uint256",
          "name": "salt",
          "type": "uint256"
        }
      ],
      "name": "LogRegisteredTransfer",
      "type": "event"
    },
    {
      "inputs": [],
      "name": "hasRegisteredFact",
      "outputs": [
        {
          "internalType": "bool",
          "name": "",
          "type": "bool"
        }
      ],
      "stateMutability": "view",
      "type": "function"
    },
    {
      "inputs": [
        {
          "internalType": "bytes32",
          "name": "fact",
          "type": "bytes32"
        }
      ],
      "name": "isValid",
      "outputs": [
        {
          "internalType": "bool",
          "name": "",
          "type": "bool"
        }
      ],
      "stateMutability": "view",
      "type": "function"
    },
    {
      "inputs": [],
      "name": "identify",
      "outputs": [
        {
          "internalType": "string",
          "name": "",
          "type": "string"
        }
      ],
      "stateMutability": "view",
      "type": "function"
    },
    {
      "inputs": [
        {
          "internalType": "address payable",
          "name": "recipient",
          "type": "address"
        },
        {
          "internalType": "uint256",
          "name": "salt",
          "type": "uint256"
        }
      ],
      "name": "transfer",
      "outputs": [],
      "stateMutability": "payable",
      "type": "function"
    },
    {
      "inputs": [
        {
          "internalType": "address",
          "name": "recipient",
          "type": "address"
        },
        {
          "internalType": "address",
          "name": "erc20",
          "type": "address"
        },
        {
          "internalType": "uint256",
          "name": "amount",
          "type": "uint256"
        },
        {
          "internalType": "uint256",
          "name": "salt",
          "type": "uint256"
        }
      ],
      "name": "transferERC20",
      "outputs": [],
      "stateMutability": "nonpayable",
      "type": "function"
    }
  ],
  "bytecode": "0x608060405234801561001057600080fd5b506106d8806100206000396000f3fe60806040526004361061004a5760003560e01c806355a2ba681461004f5780636a9385671461009a578063a9059cbb146100d8578063d6354e1514610104578063eeb7286614610119575b600080fd5b34801561005b57600080fd5b506100986004803603608081101561007257600080fd5b506001600160a01b038135811691602081013590911690604081013590606001356101a3565b005b3480156100a657600080fd5b506100c4600480360360208110156100bd57600080fd5b50356102bd565b604080519115158252519081900360200190f35b610098600480360360408110156100ee57600080fd5b506001600160a01b0381351690602001356102ce565b34801561011057600080fd5b506100c46103dd565b34801561012557600080fd5b5061012e6103e6565b6040805160208082528351818301528351919283929083019185019080838360005b83811015610168578181015183820152602001610150565b50505050905090810190601f1680156101955780820380516001836020036101000a031916815260200191505b509250505060405180910390f35b60408051606086811b6bffffffffffffffffffffffff19908116602080850191909152603484018790529187901b166054830152606880830185905283518084039091018152608890920190925280519101206101ff81610406565b15610251576040805162461bcd60e51b815260206004820152601b60248201527f5452414e534645525f414c52454144595f524547495354455245440000000000604482015290519081900360640190fd5b61025a8161041b565b604080516001600160a01b038088168252861660208201528082018590526060810184905290517f36c96ccc320eab9b6da1de6cc1e8ebc52a51cb114710b9c7db204cdad3067ce19181900360800190a16102b685858561044f565b5050505050565b60006102c882610406565b92915050565b604080516bffffffffffffffffffffffff19606085901b16602080830191909152346034830152600060548301526068808301859052835180840390910181526088909201909252805191012061032481610406565b15610376576040805162461bcd60e51b815260206004820152601b60248201527f5452414e534645525f414c52454144595f524547495354455245440000000000604482015290519081900360640190fd5b61037f8161041b565b604080516001600160a01b03851681526000602082015234818301526060810184905290517f36c96ccc320eab9b6da1de6cc1e8ebc52a51cb114710b9c7db204cdad3067ce19181900360800190a16103d883346104a7565b505050565b60015460ff1690565b606060405180606001604052806021815260200161068260219139905090565b60009081526020819052604090205460ff1690565b6000818152602081905260409020805460ff191660019081179091555460ff1661044c576001805460ff1916811790555b50565b604080513360248201526001600160a01b038516604482015260648082018490528251808303909101815260849091019091526020810180516001600160e01b03166323b872dd60e01b1790526103d89083906104dd565b6040516001600160a01b0383169082156108fc029083906000818181858888f193505050501580156103d8573d6000803e3d6000fd5b60006060836001600160a01b0316836040518082805190602001908083835b6020831061051b5780518252601f1990920191602091820191016104fc565b6001836020036101000a0380198251168184511680821785525050505050509050019150506000604051808303816000865af19150503d806000811461057d576040519150601f19603f3d011682016040523d82523d6000602084013e610582565b606091505b50915091508181906106125760405162461bcd60e51b81526004018080602001828103825283818151815260200191508051906020019080838360005b838110156105d75781810151838201526020016105bf565b50505050905090810190601f1680156106045780820380516001836020036101000a031916815260200191505b509250505060405180910390fd5b5080511561067b5780806020019051602081101561062f57600080fd5b505161067b576040805162461bcd60e51b81526020600482015260166024820152751513d2d15397d3d4115490551253d397d1905253115160521b604482015290519081900360640190fd5b5050505056fe537461726b576172655f5472616e7366657252656769737472795f323032305f31a264697066735822122092e9feaa780e4654615896e447be8fd572eb03cf699799e3aa3804d18204a25764736f6c63430006020033",
  "source": "/*\n  Copyright 2019,2020 StarkWare Industries Ltd.\n\n  Licensed under the Apache License, Version 2.0 (the \"License\").\n  You may not use this file except in compliance with the License.\n  You may obtain a copy of the License at\n\n  https://www.starkware.co/open-source-license/\n\n  Unless required by applicable law or agreed to in writing,\n  software distributed under the License is distributed on an \"AS IS\" BASIS,\n  WITHOUT WARRANTIES OR CONDITIONS OF ANY KIND, either express or implied.\n  See the License for the specific language governing permissions\n  and limitations under the License.\n*/\npragma solidity ^0.6.2;\n\nimport \"./FactRegistry.sol\";\nimport \"./Identity.sol\";\nimport \"@openzeppelin/contracts/token/ERC20/IERC20.sol\";\n\ncontract TransferRegistry is FactRegistry, Identity {\n\n    event LogRegisteredTransfer(\n        address recipient,\n        address token,\n        uint256 amount,\n        uint256 salt\n    );\n\n    function identify()\n        external view override\n        returns(string memory)\n    {\n        return \"StarkWare_TransferRegistry_2020_1\";\n    }\n\n    /*\n      Safe wrapper around ERC20/ERC721 calls.\n      This is required because many deployed ERC20 contracts don't return a value.\n      See https://github.com/ethereum/solidity/issues/4116.\n    */\n    function safeTokenContractCall(address tokenAddress, bytes memory callData) internal {\n        // solium-disable-next-line security/no-low-level-calls\n        // NOLINTNEXTLINE: low-level-calls.\n        (bool success, bytes memory returndata) = address(tokenAddress).call(callData);\n        require(success, string(returndata));\n\n        if (returndata.length > 0) {\n            require(abi.decode(returndata, (bool)), \"TOKEN_OPERATION_FAILED\");\n        }\n    }\n\n    /*\n      The actual transfer is extracted to a function, so that we can easily mock the contract.\n    */\n    function performEthTransfer(address payable recipient, uint256 value)\n        internal {\n        recipient.transfer(value);\n    }\n\n    /*\n      The actual transfer is extracted to a function, so that we can easily mock the contract.\n    */\n    function performErc20Transfer(address recipient, address erc20, uint256 amount)\n        internal {\n        safeTokenContractCall(\n            erc20,\n            abi.encodeWithSelector(IERC20(0).transferFrom.selector, msg.sender, recipient, amount)\n        );\n    }\n\n    /*\n      Passes on the transaction ETH value onto the recipient address,\n      and register the associated fact.\n      Reverts if the fact has already been registered.\n    */\n    function transfer(address payable recipient, uint256 salt) // NOLINT: erc20-interface.\n        payable\n        external {\n        bytes32 transferFact = keccak256(\n            abi.encodePacked(recipient, msg.value, address(0x0), salt));\n        require(!_factCheck(transferFact), \"TRANSFER_ALREADY_REGISTERED\");\n        registerFact(transferFact);\n        emit LogRegisteredTransfer(recipient, address(0x0), msg.value, salt);\n        performEthTransfer(recipient, msg.value);\n    }\n\n    /*\n      Transfer the specified amount of erc20 tokens from msg.sender balance to the recipient's\n      balance.\n      Pre-conditions to successful transfer are that the msg.sender has sufficient balance,\n      and the the approval (for the transfer) was granted to this contract.\n      A fact with the transfer details is registered upon success.\n      Reverts if the fact has already been registered.\n    */\n    function transferERC20(address recipient, address erc20, uint256 amount, uint256 salt)\n        external {\n        bytes32 transferFact = keccak256(\n            abi.encodePacked(recipient, amount, erc20, salt));\n        require(!_factCheck(transferFact), \"TRANSFER_ALREADY_REGISTERED\");\n        registerFact(transferFact);\n        emit LogRegisteredTransfer(recipient, erc20, amount, salt);\n        performErc20Transfer(recipient, erc20, amount);\n    }\n\n}\n",
  "sourcePath": "/Users/willharborne/Desktop/EFX/repos/lp-contracts/contracts/starkEx/TransferRegistry.sol",
  "compiler": {
    "name": "solc",
    "version": "0.6.2+commit.bacdbe57.Emscripten.clang"
  },
  "schemaVersion": "3.2.4",
  "updatedAt": "2020-11-15T22:48:39.300Z",
  "devdoc": {
    "methods": {}
  },
  "userdoc": {
    "methods": {}
  }
}