{
  "contractName": "WithdrawalPool",
  "abi": [
    {
      "inputs": [
        {
          "internalType": "string",
          "name": "_symbol",
          "type": "string"
        },
        {
          "internalType": "address",
          "name": "_poolToken",
          "type": "address"
        },
        {
          "internalType": "address",
          "name": "_aaveLendingPoolRegistry",
          "type": "address"
        }
      ],
      "stateMutability": "nonpayable",
      "type": "constructor"
    },
    {
      "anonymous": false,
      "inputs": [
        {
          "indexed": true,
          "internalType": "address",
          "name": "owner",
          "type": "address"
        },
        {
          "indexed": true,
          "internalType": "address",
          "name": "spender",
          "type": "address"
        },
        {
          "indexed": false,
          "internalType": "uint256",
          "name": "value",
          "type": "uint256"
        }
      ],
      "name": "Approval",
      "type": "event"
    },
    {
      "anonymous": false,
      "inputs": [
        {
          "indexed": false,
          "internalType": "address",
          "name": "leaver",
          "type": "address"
        },
        {
          "indexed": false,
          "internalType": "address",
          "name": "token",
          "type": "address"
        },
        {
          "indexed": false,
          "internalType": "uint256",
          "name": "amountToken",
          "type": "uint256"
        },
        {
          "indexed": false,
          "internalType": "uint256",
          "name": "amountShares",
          "type": "uint256"
        }
      ],
      "name": "LogExit",
      "type": "event"
    },
    {
      "anonymous": false,
      "inputs": [
        {
          "indexed": false,
          "internalType": "address",
          "name": "leaver",
          "type": "address"
        },
        {
          "indexed": false,
          "internalType": "address",
          "name": "token",
          "type": "address"
        },
        {
          "indexed": false,
          "internalType": "uint256",
          "name": "amountToken",
          "type": "uint256"
        },
        {
          "indexed": false,
          "internalType": "uint256",
          "name": "amountShares",
          "type": "uint256"
        }
      ],
      "name": "LogInsuranceClaim",
      "type": "event"
    },
    {
      "anonymous": false,
      "inputs": [
        {
          "indexed": false,
          "internalType": "address",
          "name": "joiner",
          "type": "address"
        },
        {
          "indexed": false,
          "internalType": "address",
          "name": "token",
          "type": "address"
        },
        {
          "indexed": false,
          "internalType": "uint256",
          "name": "amountToken",
          "type": "uint256"
        },
        {
          "indexed": false,
          "internalType": "uint256",
          "name": "amountShares",
          "type": "uint256"
        }
      ],
      "name": "LogJoinedPool",
      "type": "event"
    },
    {
      "anonymous": false,
      "inputs": [
        {
          "indexed": false,
          "internalType": "address",
          "name": "leaver",
          "type": "address"
        },
        {
          "indexed": false,
          "internalType": "address",
          "name": "token",
          "type": "address"
        },
        {
          "indexed": false,
          "internalType": "uint256",
          "name": "shares",
          "type": "uint256"
        }
      ],
      "name": "LogPendingExit",
      "type": "event"
    },
    {
      "anonymous": false,
      "inputs": [
        {
          "indexed": true,
          "internalType": "address",
          "name": "from",
          "type": "address"
        },
        {
          "indexed": true,
          "internalType": "address",
          "name": "to",
          "type": "address"
        },
        {
          "indexed": false,
          "internalType": "uint256",
          "name": "value",
          "type": "uint256"
        }
      ],
      "name": "Transfer",
      "type": "event"
    },
    {
      "inputs": [],
      "name": "MAXIMUM_EXIT_PERIOD",
      "outputs": [
        {
          "internalType": "uint256",
          "name": "",
          "type": "uint256"
        }
      ],
      "stateMutability": "view",
      "type": "function"
    },
    {
      "inputs": [],
      "name": "MINIMUM_EXIT_PERIOD",
      "outputs": [
        {
          "internalType": "uint256",
          "name": "",
          "type": "uint256"
        }
      ],
      "stateMutability": "view",
      "type": "function"
    },
    {
      "inputs": [
        {
          "internalType": "address",
          "name": "owner",
          "type": "address"
        },
        {
          "internalType": "address",
          "name": "spender",
          "type": "address"
        }
      ],
      "name": "allowance",
      "outputs": [
        {
          "internalType": "uint256",
          "name": "",
          "type": "uint256"
        }
      ],
      "stateMutability": "view",
      "type": "function"
    },
    {
      "inputs": [
        {
          "internalType": "address",
          "name": "spender",
          "type": "address"
        },
        {
          "internalType": "uint256",
          "name": "amount",
          "type": "uint256"
        }
      ],
      "name": "approve",
      "outputs": [
        {
          "internalType": "bool",
          "name": "",
          "type": "bool"
        }
      ],
      "stateMutability": "nonpayable",
      "type": "function"
    },
    {
      "inputs": [
        {
          "internalType": "address",
          "name": "account",
          "type": "address"
        }
      ],
      "name": "balanceOf",
      "outputs": [
        {
          "internalType": "uint256",
          "name": "",
          "type": "uint256"
        }
      ],
      "stateMutability": "view",
      "type": "function"
    },
    {
      "inputs": [],
      "name": "decimals",
      "outputs": [
        {
          "internalType": "uint8",
          "name": "",
          "type": "uint8"
        }
      ],
      "stateMutability": "view",
      "type": "function"
    },
    {
      "inputs": [
        {
          "internalType": "address",
          "name": "spender",
          "type": "address"
        },
        {
          "internalType": "uint256",
          "name": "subtractedValue",
          "type": "uint256"
        }
      ],
      "name": "decreaseAllowance",
      "outputs": [
        {
          "internalType": "bool",
          "name": "",
          "type": "bool"
        }
      ],
      "stateMutability": "nonpayable",
      "type": "function"
    },
    {
      "inputs": [
        {
          "internalType": "address",
          "name": "",
          "type": "address"
        }
      ],
      "name": "exitRequests",
      "outputs": [
        {
          "internalType": "uint256",
          "name": "shares",
          "type": "uint256"
        },
        {
          "internalType": "uint256",
          "name": "requestTime",
          "type": "uint256"
        }
      ],
      "stateMutability": "view",
      "type": "function"
    },
    {
      "inputs": [],
      "name": "inAaveSupply",
      "outputs": [
        {
          "internalType": "uint256",
          "name": "",
          "type": "uint256"
        }
      ],
      "stateMutability": "view",
      "type": "function"
    },
    {
      "inputs": [
        {
          "internalType": "address",
          "name": "spender",
          "type": "address"
        },
        {
          "internalType": "uint256",
          "name": "addedValue",
          "type": "uint256"
        }
      ],
      "name": "increaseAllowance",
      "outputs": [
        {
          "internalType": "bool",
          "name": "",
          "type": "bool"
        }
      ],
      "stateMutability": "nonpayable",
      "type": "function"
    },
    {
      "inputs": [],
      "name": "name",
      "outputs": [
        {
          "internalType": "string",
          "name": "",
          "type": "string"
        }
      ],
      "stateMutability": "view",
      "type": "function"
    },
    {
      "inputs": [],
      "name": "poolToken",
      "outputs": [
        {
          "internalType": "address",
          "name": "",
          "type": "address"
        }
      ],
      "stateMutability": "view",
      "type": "function"
    },
    {
      "inputs": [],
      "name": "provider",
      "outputs": [
        {
          "internalType": "contract ILendingPoolAddressesProvider",
          "name": "",
          "type": "address"
        }
      ],
      "stateMutability": "view",
      "type": "function"
    },
    {
      "inputs": [],
      "name": "reservedUnderlyingBalance",
      "outputs": [
        {
          "internalType": "uint256",
          "name": "",
          "type": "uint256"
        }
      ],
      "stateMutability": "view",
      "type": "function"
    },
    {
      "inputs": [],
      "name": "symbol",
      "outputs": [
        {
          "internalType": "string",
          "name": "",
          "type": "string"
        }
      ],
      "stateMutability": "view",
      "type": "function"
    },
    {
      "inputs": [],
      "name": "totalSupply",
      "outputs": [
        {
          "internalType": "uint256",
          "name": "",
          "type": "uint256"
        }
      ],
      "stateMutability": "view",
      "type": "function"
    },
    {
      "inputs": [
        {
          "internalType": "address",
          "name": "recipient",
          "type": "address"
        },
        {
          "internalType": "uint256",
          "name": "amount",
          "type": "uint256"
        }
      ],
      "name": "transfer",
      "outputs": [
        {
          "internalType": "bool",
          "name": "",
          "type": "bool"
        }
      ],
      "stateMutability": "nonpayable",
      "type": "function"
    },
    {
      "inputs": [
        {
          "internalType": "address",
          "name": "sender",
          "type": "address"
        },
        {
          "internalType": "address",
          "name": "recipient",
          "type": "address"
        },
        {
          "internalType": "uint256",
          "name": "amount",
          "type": "uint256"
        }
      ],
      "name": "transferFrom",
      "outputs": [
        {
          "internalType": "bool",
          "name": "",
          "type": "bool"
        }
      ],
      "stateMutability": "nonpayable",
      "type": "function"
    },
    {
      "inputs": [],
      "name": "transferRegistry",
      "outputs": [
        {
          "internalType": "address",
          "name": "",
          "type": "address"
        }
      ],
      "stateMutability": "view",
      "type": "function"
    },
    {
      "stateMutability": "payable",
      "type": "receive"
    },
    {
      "inputs": [
        {
          "internalType": "uint256",
          "name": "amountUnderlying",
          "type": "uint256"
        }
      ],
      "name": "joinPool",
      "outputs": [],
      "stateMutability": "nonpayable",
      "type": "function"
    },
    {
      "inputs": [
        {
          "internalType": "uint256",
          "name": "amountPoolShares",
          "type": "uint256"
        }
      ],
      "name": "exitPool",
      "outputs": [],
      "stateMutability": "nonpayable",
      "type": "function"
    },
    {
      "inputs": [
        {
          "internalType": "address",
          "name": "exiter",
          "type": "address"
        }
      ],
      "name": "finaliseExit",
      "outputs": [
        {
          "internalType": "bool",
          "name": "",
          "type": "bool"
        }
      ],
      "stateMutability": "nonpayable",
      "type": "function"
    },
    {
      "inputs": [
        {
          "internalType": "address",
          "name": "recipient",
          "type": "address"
        },
        {
          "internalType": "uint256",
          "name": "amount",
          "type": "uint256"
        }
      ],
      "name": "makeTemporaryLoan",
      "outputs": [],
      "stateMutability": "nonpayable",
      "type": "function"
    },
    {
      "inputs": [
        {
          "internalType": "address payable",
          "name": "recipient",
          "type": "address"
        },
        {
          "internalType": "uint256",
          "name": "amount",
          "type": "uint256"
        }
      ],
      "name": "makeTemporaryLoanETH",
      "outputs": [],
      "stateMutability": "nonpayable",
      "type": "function"
    },
    {
      "inputs": [],
      "name": "totalPoolSize",
      "outputs": [
        {
          "internalType": "uint256",
          "name": "",
          "type": "uint256"
        }
      ],
      "stateMutability": "view",
      "type": "function"
    },
    {
      "inputs": [
        {
          "internalType": "address",
          "name": "owner",
          "type": "address"
        }
      ],
      "name": "underlyingTokensOwned",
      "outputs": [
        {
          "internalType": "uint256",
          "name": "",
          "type": "uint256"
        }
      ],
      "stateMutability": "view",
      "type": "function"
    },
    {
      "inputs": [],
      "name": "amountAvailableForInstantExit",
      "outputs": [
        {
          "internalType": "uint256",
          "name": "",
          "type": "uint256"
        }
      ],
      "stateMutability": "view",
      "type": "function"
    },
    {
      "inputs": [],
      "name": "withdrawAllFromAave",
      "outputs": [],
      "stateMutability": "nonpayable",
      "type": "function"
    }
  ],
  "bytecode": "0x60806040523480156200001157600080fd5b506040516200278238038062002782833981810160405260608110156200003757600080fd5b81019080805160405193929190846401000000008211156200005857600080fd5b9083019060208201858111156200006e57600080fd5b82516401000000008111828201881017156200008957600080fd5b82525081516020918201929091019080838360005b83811015620000b85781810151838201526020016200009e565b50505050905090810190601f168015620000e65780820380516001836020036101000a031916815260200191505b5060409081526020828101519290910151855192945092508291849186918291829182916200011b916003918401906200019d565b508051620001319060049060208401906200019d565b5050600580546001600160a01b0396871661010002610100600160a81b031960ff19909216601217919091161790555050600680549284166001600160a01b03199384161790555060078054949092169381169390931790555060088054909116331790555062000242565b828054600181600116156101000203166002900490600052602060002090601f016020900481019282601f10620001e057805160ff191683800117855562000210565b8280016001018555821562000210579182015b8281111562000210578251825591602001919060010190620001f3565b506200021e92915062000222565b5090565b6200023f91905b808211156200021e576000815560010162000229565b90565b61253080620002526000396000f3fe6080604052600436106101bb5760003560e01c806370a08231116100ec578063b1dec9eb1161008a578063c4353d8d11610064578063c4353d8d1461064f578063cbdf382c14610664578063dd62ed3e14610679578063de761c8b146106b4576101c2565b8063b1dec9eb146105fb578063bdde3a3414610610578063be1d24ad14610625576101c2565b806395d89b41116100c657806395d89b411461055f578063a222d7e914610574578063a457c2d714610589578063a9059cbb146105c2576101c2565b806370a08231146104c057806376e7ad92146104f35780637a5464e214610526576101c2565b806330027a9711610159578063395093511161013357806339509351146103f357806343f2a85c1461042c57806351da8acf1461045f5780636578ecc4146104ab576101c2565b806330027a9714610389578063313ce5671461039e57806334e7a19f146103c9576101c2565b806318160ddd1161019557806318160ddd146102cf5780631d62ddd3146102f657806323b872dd1461033157806329ab4dcb14610374576101c2565b806306fdde03146101c7578063085d488314610251578063095ea7b314610282576101c2565b366101c257005b600080fd5b3480156101d357600080fd5b506101dc6106c9565b6040805160208082528351818301528351919283929083019185019080838360005b838110156102165781810151838201526020016101fe565b50505050905090810190601f1680156102435780820380516001836020036101000a031916815260200191505b509250505060405180910390f35b34801561025d57600080fd5b50610266610760565b604080516001600160a01b039092168252519081900360200190f35b34801561028e57600080fd5b506102bb600480360360408110156102a557600080fd5b506001600160a01b038135169060200135610774565b604080519115158252519081900360200190f35b3480156102db57600080fd5b506102e4610792565b60408051918252519081900360200190f35b34801561030257600080fd5b5061032f6004803603604081101561031957600080fd5b506001600160a01b038135169060200135610798565b005b34801561033d57600080fd5b506102bb6004803603606081101561035457600080fd5b506001600160a01b03813581169160208101359091169060400135610925565b34801561038057600080fd5b506102666109b2565b34801561039557600080fd5b506102e46109c1565b3480156103aa57600080fd5b506103b36109c7565b6040805160ff9092168252519081900360200190f35b3480156103d557600080fd5b5061032f600480360360208110156103ec57600080fd5b50356109d0565b3480156103ff57600080fd5b506102bb6004803603604081101561041657600080fd5b506001600160a01b038135169060200135610aac565b34801561043857600080fd5b506102e46004803603602081101561044f57600080fd5b50356001600160a01b0316610b00565b34801561046b57600080fd5b506104926004803603602081101561048257600080fd5b50356001600160a01b0316610b1b565b6040805192835260208301919091528051918290030190f35b3480156104b757600080fd5b506102e4610b34565b3480156104cc57600080fd5b506102e4600480360360208110156104e357600080fd5b50356001600160a01b0316610b7c565b3480156104ff57600080fd5b506102bb6004803603602081101561051657600080fd5b50356001600160a01b0316610b97565b34801561053257600080fd5b5061032f6004803603604081101561054957600080fd5b506001600160a01b038135169060200135610c94565b34801561056b57600080fd5b506101dc610d1d565b34801561058057600080fd5b506102e4610d7e565b34801561059557600080fd5b506102bb600480360360408110156105ac57600080fd5b506001600160a01b038135169060200135610d84565b3480156105ce57600080fd5b506102bb600480360360408110156105e557600080fd5b506001600160a01b038135169060200135610df2565b34801561060757600080fd5b5061032f610e06565b34801561061c57600080fd5b506102e4610e82565b34801561063157600080fd5b5061032f6004803603602081101561064857600080fd5b5035610e89565b34801561065b57600080fd5b506102e4610f68565b34801561067057600080fd5b5061026661108c565b34801561068557600080fd5b506102e46004803603604081101561069c57600080fd5b506001600160a01b038135811691602001351661109b565b3480156106c057600080fd5b506102e46110c6565b60038054604080516020601f60026000196101006001881615020190951694909404938401819004810282018101909252828152606093909290918301828280156107555780601f1061072a57610100808354040283529160200191610755565b820191906000526020600020905b81548152906001019060200180831161073857829003601f168201915b505050505090505b90565b60055461010090046001600160a01b031681565b6000610788610781611244565b8484611248565b5060015b92915050565b60025490565b6008546001600160a01b031633146107f7576040805162461bcd60e51b815260206004820152601d60248201527f506f6f6c3a2043414c4c45525f4d5553545f42455f5245474953545259000000604482015290519081900360640190fd5b600854604080516315ab88c960e31b815290516000926001600160a01b03169163ad5c4648916004808301926020929190829003018186803b15801561083c57600080fd5b505afa158015610850573d6000803e3d6000fd5b505050506040513d602081101561086657600080fd5b50516007549091506001600160a01b0380831691161461088257fe5b61088b82611334565b806001600160a01b0316632e1a7d4d836040518263ffffffff1660e01b815260040180828152602001915050600060405180830381600087803b1580156108d157600080fd5b505af11580156108e5573d6000803e3d6000fd5b50506040516001600160a01b038616925084156108fc02915084906000818181858888f1935050505015801561091f573d6000803e3d6000fd5b50505050565b60006109328484846113d1565b6109a88461093e611244565b6109a38560405180606001604052806028815260200161241a602891396001600160a01b038a1660009081526001602052604081209061097c611244565b6001600160a01b03168152602081019190915260400160002054919063ffffffff61153816565b611248565b5060019392505050565b6008546001600160a01b031681565b60095481565b60055460ff1690565b60006109da610792565b905060006109e6610f68565b6109fa575068056bc75e2d63100000610a24565b610a21610a05610f68565b610a15848663ffffffff6115cf16565b9063ffffffff61162f16565b90505b600754604080513381526001600160a01b03909216602083015281810185905260608201839052517f3beacad699560392d63db279b742fd6a5c94e0258a7f2f99dbddeb4ddc058c289181900360800190a1600754610a94906001600160a01b031633308663ffffffff61167116565b610a9e33826116cb565b610aa7836117c7565b505050565b6000610788610ab9611244565b846109a38560016000610aca611244565b6001600160a01b03908116825260208083019390935260409182016000908120918c16815292529020549063ffffffff61183616565b6000610b13610b0e83610b7c565b611890565b90505b919050565b600a602052600090815260409020805460019091015482565b6000610b55610b416118b5565b610b49610f68565b9063ffffffff61193a16565b6009541115610b665750600061075d565b610b77600954610b49610b416118b5565b905090565b6001600160a01b031660009081526020819052604090205490565b6000610ba1612351565b506001600160a01b0382166000908152600a6020908152604080832081518083019092528054808352600190910154928201929092529190610be290611890565b9050611c20826020015101421115610c5057610bfc610b34565b8111610c2857610c1030836000015161197c565b610c1f84828460000151611a84565b92505050610b16565b610c33610b416118b5565b8111610c5057610c4730836000015161197c565b610c1081611b33565b6201fa40826020015101421115610c8a57610c7084828460000151611bb8565b50610c7f30836000015161197c565b600192505050610b16565b5060009392505050565b6008546001600160a01b03163314610cf3576040805162461bcd60e51b815260206004820152601d60248201527f506f6f6c3a2043414c4c45525f4d5553545f42455f5245474953545259000000604482015290519081900360640190fd5b610cfc81611334565b600754610d19906001600160a01b0316838363ffffffff611ccf16565b5050565b60048054604080516020601f60026000196101006001881615020190951694909404938401819004810282018101909252828152606093909290918301828280156107555780601f1061072a57610100808354040283529160200191610755565b611c2081565b6000610788610d91611244565b846109a3856040518060600160405280602581526020016124d66025913960016000610dbb611244565b6001600160a01b03908116825260208083019390935260409182016000908120918d1681529252902054919063ffffffff61153816565b6000610788610dff611244565b84846113d1565b6008546001600160a01b03163314610e65576040805162461bcd60e51b815260206004820152601d60248201527f506f6f6c3a2043414c4c45525f4d5553545f42455f5245474953545259000000604482015290519081900360640190fd5b6000610e6f6110c6565b1115610e8057610e80600019611d21565b565b6201fa4081565b6000610e9482611890565b9050610e9e610b34565b8111610ebf57610eae338361197c565b610eb9338284611a84565b50610d19565b610eca3330846113d1565b600754604080513381526001600160a01b039092166020830152818101849052517fa793bb1c04fd08e2fdc1458efc9547522b60d36f0d5f72c22ea3f8b8b8de57c89181900360600190a1604080518082018252336000908152600a60205291909120548190610f40908563ffffffff61183616565b815242602091820152336000908152600a825260409020825181559101516001909101555050565b6000610f72611e21565b1561100757610f7f6110c6565b610f876118b5565b600754604080516370a0823160e01b815230600482015290516001600160a01b03909216916370a0823191602480820192602092909190829003018186803b158015610fd257600080fd5b505afa158015610fe6573d6000803e3d6000fd5b505050506040513d6020811015610ffc57600080fd5b50510101905061075d565b61100f6118b5565b600754604080516370a0823160e01b815230600482015290516001600160a01b03909216916370a0823191602480820192602092909190829003018186803b15801561105a57600080fd5b505afa15801561106e573d6000803e3d6000fd5b505050506040513d602081101561108457600080fd5b505101905090565b6007546001600160a01b031681565b6001600160a01b03918216600090815260016020908152604080832093909416825291909152205490565b600080600560019054906101000a90046001600160a01b03166001600160a01b0316630261bf8b6040518163ffffffff1660e01b815260040160206040518083038186803b15801561111757600080fd5b505afa15801561112b573d6000803e3d6000fd5b505050506040513d602081101561114157600080fd5b5051600654604080516335ea6a7560e01b81526001600160a01b0392831660048201529051929350600092918416916335ea6a759160248082019261018092909190829003018186803b15801561119757600080fd5b505afa1580156111ab573d6000803e3d6000fd5b505050506040513d6101808110156111c257600080fd5b5060e00151604080516370a0823160e01b815230600482015290519192506001600160a01b038316916370a0823191602480820192602092909190829003018186803b15801561121157600080fd5b505afa158015611225573d6000803e3d6000fd5b505050506040513d602081101561123b57600080fd5b50519250505090565b3390565b6001600160a01b03831661128d5760405162461bcd60e51b81526004018080602001828103825260248152602001806124886024913960400191505060405180910390fd5b6001600160a01b0382166112d25760405162461bcd60e51b81526004018080602001828103825260228152602001806123b16022913960400191505060405180910390fd5b6001600160a01b03808416600081815260016020908152604080832094871680845294825291829020859055815185815291517f8c5be1e5ebec7d5bd14f71427d1e84f3dd0314c0f7b2291e5b200ac8c7c3b9259281900390910190a3505050565b61133c611e21565b611345576113ce565b600754604080516370a0823160e01b8152306004820152905183926001600160a01b0316916370a08231916024808301926020929190829003018186803b15801561138f57600080fd5b505afa1580156113a3573d6000803e3d6000fd5b505050506040513d60208110156113b957600080fd5b5051106113c5576113ce565b6113ce81611b33565b50565b6001600160a01b0383166114165760405162461bcd60e51b81526004018080602001828103825260258152602001806124636025913960400191505060405180910390fd5b6001600160a01b03821661145b5760405162461bcd60e51b815260040180806020018281038252602381526020018061236c6023913960400191505060405180910390fd5b611466838383610aa7565b6114a9816040518060600160405280602681526020016123d3602691396001600160a01b038616600090815260208190526040902054919063ffffffff61153816565b6001600160a01b0380851660009081526020819052604080822093909355908416815220546114de908263ffffffff61183616565b6001600160a01b038084166000818152602081815260409182902094909455805185815290519193928716927fddf252ad1be2c89b69c2b068fc378daa952ba7f163c4a11628f55a4df523b3ef92918290030190a3505050565b600081848411156115c75760405162461bcd60e51b81526004018080602001828103825283818151815260200191508051906020019080838360005b8381101561158c578181015183820152602001611574565b50505050905090810190601f1680156115b95780820380516001836020036101000a031916815260200191505b509250505060405180910390fd5b505050900390565b6000826115de5750600061078c565b828202828482816115eb57fe5b04146116285760405162461bcd60e51b81526004018080602001828103825260218152602001806123f96021913960400191505060405180910390fd5b9392505050565b600061162883836040518060400160405280601a81526020017f536166654d6174683a206469766973696f6e206279207a65726f000000000000815250611e6c565b604080516001600160a01b0380861660248301528416604482015260648082018490528251808303909101815260849091019091526020810180516001600160e01b03166323b872dd60e01b17905261091f908590611ed1565b6001600160a01b038216611726576040805162461bcd60e51b815260206004820152601f60248201527f45524332303a206d696e7420746f20746865207a65726f206164647265737300604482015290519081900360640190fd5b61173260008383610aa7565b600254611745908263ffffffff61183616565b6002556001600160a01b038216600090815260208190526040902054611771908263ffffffff61183616565b6001600160a01b0383166000818152602081815260408083209490945583518581529351929391927fddf252ad1be2c89b69c2b068fc378daa952ba7f163c4a11628f55a4df523b3ef9281900390910190a35050565b60006117e96064610a156117d9611f82565b859060ff1663ffffffff6115cf16565b6009549091506117ff908263ffffffff61183616565b60095561180a611e21565b15610d1957600061182b61181c6110c6565b6009549063ffffffff61193a16565b9050610aa781611f94565b600082820183811015611628576040805162461bcd60e51b815260206004820152601b60248201527f536166654d6174683a206164646974696f6e206f766572666c6f770000000000604482015290519081900360640190fd5b6000610b1361189d610792565b610a156118a8610f68565b859063ffffffff6115cf16565b6008546007546040805163114396df60e01b81526001600160a01b0392831660048201529051600093929092169163114396df91602480820192602092909190829003018186803b15801561190957600080fd5b505afa15801561191d573d6000803e3d6000fd5b505050506040513d602081101561193357600080fd5b5051905090565b600061162883836040518060400160405280601e81526020017f536166654d6174683a207375627472616374696f6e206f766572666c6f770000815250611538565b6001600160a01b0382166119c15760405162461bcd60e51b81526004018080602001828103825260218152602001806124426021913960400191505060405180910390fd5b6119cd82600083610aa7565b611a108160405180606001604052806022815260200161238f602291396001600160a01b038516600090815260208190526040902054919063ffffffff61153816565b6001600160a01b038316600090815260208190526040902055600254611a3c908263ffffffff61193a16565b6002556040805182815290516000916001600160a01b038516917fddf252ad1be2c89b69c2b068fc378daa952ba7f163c4a11628f55a4df523b3ef9181900360200190a35050565b604080518082018252600080825260208083018281526001600160a01b038089168452600a9092529382209251835592516001909201919091556007549091611ad59116858563ffffffff611ccf16565b600754604080516001600160a01b038088168252909216602083015281810185905260608201849052517f12befe630a49a2c27f28eb8c2b9851051868435fcb150eec9e52056a75442a7f9181900360800190a15060019392505050565b611b5e6064610a15611b43611f82565b60ff16611b5285610b49610f68565b9063ffffffff6115cf16565b600955611b69611e21565b156113ce57600954611b796110c6565b1115611ba0576000611b8f600954610b496110c6565b9050611b9a81611d21565b506113ce565b6000611bad61181c6110c6565b9050610d1981611f94565b604080518082018252600080825260208083018281526001600160a01b03808916808552600a84528685209551865591516001909501949094556007548551918252909316908301528183018590526060820184905291517f98c339916e3a31d4c6c51e2a3502bb3788ceeddab8503303a7bd155a9c295aec9181900360800190a160085460075460408051633c13b75560e21b81526001600160a01b0392831660048201528783166024820152604481018790529051919092169163f04edd549160648083019260209291908290030181600087803b158015611c9b57600080fd5b505af1158015611caf573d6000803e3d6000fd5b505050506040513d6020811015611cc557600080fd5b5051949350505050565b604080516001600160a01b038416602482015260448082018490528251808303909101815260649091019091526020810180516001600160e01b031663a9059cbb60e01b179052610aa7908490611ed1565b80611d2b576113ce565b6000600560019054906101000a90046001600160a01b03166001600160a01b0316630261bf8b6040518163ffffffff1660e01b815260040160206040518083038186803b158015611d7b57600080fd5b505afa158015611d8f573d6000803e3d6000fd5b505050506040513d6020811015611da557600080fd5b505160065460408051631a4ca37b60e21b81526001600160a01b039283166004820152602481018690523060448201529051929350908316916369328dec9160648082019260009290919082900301818387803b158015611e0557600080fd5b505af1158015611e19573d6000803e3d6000fd5b505050505050565b6008546040805163423b1b7360e11b815230600482015290516000926001600160a01b03169163847636e6916024808301926020929190829003018186803b15801561190957600080fd5b60008183611ebb5760405162461bcd60e51b815260206004820181815283516024840152835190928392604490910191908501908083836000831561158c578181015183820152602001611574565b506000838581611ec757fe5b0495945050505050565b6060611f26826040518060400160405280602081526020017f5361666545524332303a206c6f772d6c6576656c2063616c6c206661696c6564815250856001600160a01b031661209c9092919063ffffffff16565b805190915015610aa757808060200190516020811015611f4557600080fd5b5051610aa75760405162461bcd60e51b815260040180806020018281038252602a8152602001806124ac602a913960400191505060405180910390fd5b6000611f8c6120b3565b606403905090565b80611f9e576113ce565b6000600560019054906101000a90046001600160a01b03166001600160a01b0316630261bf8b6040518163ffffffff1660e01b815260040160206040518083038186803b158015611fee57600080fd5b505afa158015612002573d6000803e3d6000fd5b505050506040513d602081101561201857600080fd5b505160065490915061203a906001600160a01b0316828463ffffffff6120f816565b6006546040805163e8eda9df60e01b81526001600160a01b039283166004820152602481018590523060448201526094606482015290519183169163e8eda9df9160848082019260009290919082900301818387803b158015611e0557600080fd5b60606120ab84846000856121de565b949350505050565b60085460408051636b3bc21160e11b815290516000926001600160a01b03169163d6778422916004808301926020929190829003018186803b15801561190957600080fd5b60408051636eb1769f60e11b81523060048201526001600160a01b03848116602483015291516000926121899285929188169163dd62ed3e91604480820192602092909190829003018186803b15801561215157600080fd5b505afa158015612165573d6000803e3d6000fd5b505050506040513d602081101561217b57600080fd5b50519063ffffffff61183616565b604080516001600160a01b038616602482015260448082018490528251808303909101815260649091019091526020810180516001600160e01b031663095ea7b360e01b17905290915061091f908590611ed1565b60606121e98561234b565b61223a576040805162461bcd60e51b815260206004820152601d60248201527f416464726573733a2063616c6c20746f206e6f6e2d636f6e7472616374000000604482015290519081900360640190fd5b60006060866001600160a01b031685876040518082805190602001908083835b602083106122795780518252601f19909201916020918201910161225a565b6001836020036101000a03801982511681845116808217855250505050505090500191505060006040518083038185875af1925050503d80600081146122db576040519150601f19603f3d011682016040523d82523d6000602084013e6122e0565b606091505b509150915081156122f45791506120ab9050565b8051156123045780518082602001fd5b60405162461bcd60e51b815260206004820181815286516024840152865187939192839260440191908501908083836000831561158c578181015183820152602001611574565b3b151590565b60405180604001604052806000815260200160008152509056fe45524332303a207472616e7366657220746f20746865207a65726f206164647265737345524332303a206275726e20616d6f756e7420657863656564732062616c616e636545524332303a20617070726f766520746f20746865207a65726f206164647265737345524332303a207472616e7366657220616d6f756e7420657863656564732062616c616e6365536166654d6174683a206d756c7469706c69636174696f6e206f766572666c6f7745524332303a207472616e7366657220616d6f756e74206578636565647320616c6c6f77616e636545524332303a206275726e2066726f6d20746865207a65726f206164647265737345524332303a207472616e736665722066726f6d20746865207a65726f206164647265737345524332303a20617070726f76652066726f6d20746865207a65726f20616464726573735361666545524332303a204552433230206f7065726174696f6e20646964206e6f74207375636365656445524332303a2064656372656173656420616c6c6f77616e63652062656c6f77207a65726fa26469706673582212206ebd36181826b42a5b5bec85abd03f49d8340235bd77f5269c3e05ba9bbb8ab764736f6c63430006020033",
  "source": "pragma solidity ^0.6.2;\n\nimport \"@openzeppelin/contracts/token/ERC20/IERC20.sol\";\nimport \"@openzeppelin/contracts/token/ERC20/SafeERC20.sol\";\nimport \"@openzeppelin/contracts/math/SafeMath.sol\";\n\nimport \"./WithdrawalPoolToken.sol\";\nimport \"./MasterTransferRegistry.sol\";\nimport \"../aave/AaveManager.sol\";\nimport \"../tokens/IWETH.sol\";\n\ncontract WithdrawalPool is WithdrawalPoolToken, AaveManager {\n  using SafeERC20 for IERC20;\n  using SafeMath for uint256;\n\n  address public poolToken;\n  address public transferRegistry;\n  uint256 constant INITIAL_SUPPLY = 100 * 10 ** 18;\n  uint256 public constant MINIMUM_EXIT_PERIOD = 2 hours;\n  uint256 public constant MAXIMUM_EXIT_PERIOD = 36 hours;\n\n  // The amount of underlying tokens that are not available to withdraw instantly\n  uint256 public reservedUnderlyingBalance;\n\n  struct PendingExit {\n    uint256 shares;\n    uint256 requestTime;\n  }\n\n  mapping (address => PendingExit) public exitRequests;\n\n  modifier onlyRegistry() {\n    require(msg.sender == transferRegistry, \"Pool: CALLER_MUST_BE_REGISTRY\");\n    _;\n  }\n\n  constructor (\n    string memory _symbol,\n    address _poolToken,\n    address _aaveLendingPoolRegistry\n  ) public WithdrawalPoolToken(_symbol, _symbol) AaveManager(_aaveLendingPoolRegistry, _poolToken) {\n    poolToken = _poolToken;\n    transferRegistry = msg.sender;\n  }\n\n  receive() external payable {}\n\n  event LogJoinedPool(\n      address joiner,\n      address token,\n      uint256 amountToken,\n      uint256 amountShares\n  );\n\n  event LogPendingExit(\n      address leaver,\n      address token,\n      uint256 shares\n  );\n\n  event LogExit(\n      address leaver,\n      address token,\n      uint256 amountToken,\n      uint256 amountShares\n  );\n\n  event LogInsuranceClaim(\n      address leaver,\n      address token,\n      uint256 amountToken,\n      uint256 amountShares\n  );\n\n  function joinPool(uint256 amountUnderlying) public {\n    uint256 totalPoolShares = totalSupply();\n    uint256 newPoolShares;\n    if (totalPoolSize() == 0) {\n       newPoolShares = INITIAL_SUPPLY;\n    } else {\n       newPoolShares = totalPoolShares.mul(amountUnderlying).div(totalPoolSize());\n    }\n    emit LogJoinedPool(msg.sender, poolToken, amountUnderlying, newPoolShares);\n    IERC20(poolToken).safeTransferFrom(msg.sender, address(this), amountUnderlying);\n    _mint(msg.sender, newPoolShares);\n    increaseReservedBalance(amountUnderlying);\n  }\n\n  function exitPool(uint256 amountPoolShares) public {\n    uint256 amountUnderlying = sharesToUnderlying(amountPoolShares);\n    if (amountUnderlying <= amountAvailableForInstantExit()) {\n      _burn(msg.sender, amountPoolShares);\n      processNormalExit(msg.sender, amountUnderlying, amountPoolShares);\n    } else {\n      _transfer(msg.sender, address(this), amountPoolShares);\n      emit LogPendingExit(msg.sender, poolToken, amountPoolShares);\n      exitRequests[msg.sender] = PendingExit({\n        shares: exitRequests[msg.sender].shares.add(amountPoolShares),\n        requestTime: now\n      });\n    }\n  }\n\n  function finaliseExit(address exiter) public returns (bool) {\n    PendingExit memory pending = exitRequests[exiter];\n\n    uint256 amountUnderlying = sharesToUnderlying(pending.shares);\n    if (now > pending.requestTime + MINIMUM_EXIT_PERIOD) {\n      if (amountUnderlying <= amountAvailableForInstantExit()) {\n        _burn(address(this), pending.shares);\n        return processNormalExit(exiter, amountUnderlying, pending.shares);\n      } else if (amountUnderlying <= totalPoolSize().sub(lentSupply())) {\n        _burn(address(this), pending.shares);\n        resetReservedBalance(amountUnderlying);\n        return processNormalExit(exiter, amountUnderlying, pending.shares);\n      }\n    }\n    if (now > pending.requestTime + MAXIMUM_EXIT_PERIOD) {\n      payFromInsuranceFund(exiter, amountUnderlying, pending.shares);\n      _burn(address(this), pending.shares);\n      return true;\n    }\n    return false;\n  }\n\n  function processNormalExit(address exiter, uint256 amount, uint256 shares) internal returns (bool) {\n    exitRequests[exiter] = PendingExit({ shares: 0, requestTime: 0 });\n    IERC20(poolToken).safeTransfer(exiter, amount);\n    emit LogExit(exiter, poolToken, amount, shares);\n    return true;\n  }\n\n  function makeTemporaryLoan(address recipient, uint256 amount) public onlyRegistry {\n    withdrawFromAaveIfRequired(amount);\n    IERC20(poolToken).safeTransfer(recipient, amount);\n  }\n\n  function makeTemporaryLoanETH(address payable recipient, uint256 amount) public onlyRegistry {\n    address WETH = MasterTransferRegistry(transferRegistry).WETH();\n    assert(poolToken == WETH);\n    withdrawFromAaveIfRequired(amount);\n    IWETH(WETH).withdraw(amount);\n    recipient.transfer(amount);\n  }\n\n\n  // INFORMATION - Pool\n\n  function totalPoolSize() public view returns (uint256) {\n    if (isAaveActive()) {\n      return IERC20(poolToken).balanceOf(address(this)) + lentSupply() + inAaveSupply();\n    }\n    return IERC20(poolToken).balanceOf(address(this)) + lentSupply();\n  }\n\n  function underlyingTokensOwned(address owner) public view returns (uint256) {\n    return sharesToUnderlying(balanceOf(owner));\n  }\n\n  function sharesToUnderlying(uint256 amount) internal view returns (uint256) {\n    return amount.mul(totalPoolSize()).div(totalSupply());\n  }\n\n  function amountAvailableForInstantExit() public view returns (uint256) {\n    if (reservedUnderlyingBalance > totalPoolSize().sub(lentSupply())) {\n      return 0;\n    }\n    return totalPoolSize().sub(lentSupply()).sub(reservedUnderlyingBalance);\n  }\n\n  // MasterTransferRegistry - Functions calling to the registry\n\n  function payFromInsuranceFund(address exiter, uint256 amount, uint256 shares) internal returns (bool) {\n    exitRequests[exiter] = PendingExit({ shares: 0, requestTime: 0 });\n    emit LogInsuranceClaim(exiter, poolToken, amount, shares);\n    return MasterTransferRegistry(transferRegistry).payFromInsuranceFund(poolToken, exiter, amount);\n  }\n\n  function lentSupply() internal view returns (uint256) {\n    return MasterTransferRegistry(transferRegistry).lentSupply(poolToken);\n  }\n\n  function targetAvailabilityPercentage() internal view returns (uint8) {\n    return MasterTransferRegistry(transferRegistry).targetAvailabilityPercentage();\n  }\n\n  function targetReservedPercentage() internal view returns (uint8) {\n    return 100 - targetAvailabilityPercentage();\n  }\n\n  function isAaveActive() internal view returns (bool) {\n    return MasterTransferRegistry(transferRegistry).isAaveActive(address(this));\n  }\n\n  // RESERVED BALANCE - Internal functions for managing reserved balances\n\n  function increaseReservedBalance(uint256 amount) internal {\n    uint256 amountToReserve = amount.mul(targetReservedPercentage()).div(100);\n    reservedUnderlyingBalance = reservedUnderlyingBalance.add(amountToReserve);\n    if (isAaveActive()) {\n      uint256 amountToDeposit = reservedUnderlyingBalance.sub(inAaveSupply());\n      depositToAave(amountToDeposit);\n    }\n  }\n\n  function resetReservedBalance(uint256 amount) internal {\n    reservedUnderlyingBalance = totalPoolSize().sub(amount).mul(targetReservedPercentage()).div(100);\n    if (isAaveActive()) {\n      if (inAaveSupply() > reservedUnderlyingBalance) {\n        uint256 amountToWithdraw = inAaveSupply().sub(reservedUnderlyingBalance);\n        withdrawFromAave(amountToWithdraw);\n      } else {\n        uint256 amountToDeposit = reservedUnderlyingBalance.sub(inAaveSupply());\n        depositToAave(amountToDeposit);\n      }\n    }\n  }\n\n  function withdrawFromAaveIfRequired(uint256 amount) internal {\n    if (!isAaveActive()) return;\n    if (IERC20(poolToken).balanceOf(address(this)) >= amount) return;\n\n    resetReservedBalance(amount);\n  }\n\n  function withdrawAllFromAave() public onlyRegistry {\n    if(inAaveSupply() > 0) {\n      withdrawFromAave(uint256(-1));\n    }\n  }\n\n}\n",
  "sourcePath": "/Users/willharborne/Desktop/EFX/repos/lp-contracts/contracts/liquidityProviders/WithdrawalPool.sol",
  "compiler": {
    "name": "solc",
    "version": "0.6.2+commit.bacdbe57.Emscripten.clang"
  },
  "schemaVersion": "3.2.4",
  "updatedAt": "2020-11-15T22:48:39.244Z",
  "devdoc": {
    "methods": {
      "allowance(address,address)": {
        "details": "See {IERC20-allowance}."
      },
      "approve(address,uint256)": {
        "details": "See {IERC20-approve}.     * Requirements:     * - `spender` cannot be the zero address."
      },
      "balanceOf(address)": {
        "details": "See {IERC20-balanceOf}."
      },
      "decimals()": {
        "details": "Returns the number of decimals used to get its user representation. For example, if `decimals` equals `2`, a balance of `505` tokens should be displayed to a user as `5,05` (`505 / 10 ** 2`).     * Tokens usually opt for a value of 18, imitating the relationship between Ether and Wei. This is the value {ERC20} uses, unless {_setupDecimals} is called.     * NOTE: This information is only used for _display_ purposes: it in no way affects any of the arithmetic of the contract, including {IERC20-balanceOf} and {IERC20-transfer}."
      },
      "decreaseAllowance(address,uint256)": {
        "details": "Atomically decreases the allowance granted to `spender` by the caller.     * This is an alternative to {approve} that can be used as a mitigation for problems described in {IERC20-approve}.     * Emits an {Approval} event indicating the updated allowance.     * Requirements:     * - `spender` cannot be the zero address. - `spender` must have allowance for the caller of at least `subtractedValue`."
      },
      "increaseAllowance(address,uint256)": {
        "details": "Atomically increases the allowance granted to `spender` by the caller.     * This is an alternative to {approve} that can be used as a mitigation for problems described in {IERC20-approve}.     * Emits an {Approval} event indicating the updated allowance.     * Requirements:     * - `spender` cannot be the zero address."
      },
      "name()": {
        "details": "Returns the name of the token."
      },
      "symbol()": {
        "details": "Returns the symbol of the token, usually a shorter version of the name."
      },
      "totalSupply()": {
        "details": "See {IERC20-totalSupply}."
      },
      "transfer(address,uint256)": {
        "details": "See {IERC20-transfer}.     * Requirements:     * - `recipient` cannot be the zero address. - the caller must have a balance of at least `amount`."
      },
      "transferFrom(address,address,uint256)": {
        "details": "See {IERC20-transferFrom}.     * Emits an {Approval} event indicating the updated allowance. This is not required by the EIP. See the note at the beginning of {ERC20};     * Requirements: - `sender` and `recipient` cannot be the zero address. - `sender` must have a balance of at least `amount`. - the caller must have allowance for ``sender``'s tokens of at least `amount`."
      }
    }
  },
  "userdoc": {
    "methods": {}
  }
}