{
  "contractName": "WithdrawalPool",
  "abi": [
    {
      "inputs": [
        {
          "internalType": "string",
          "name": "_symbol",
          "type": "string"
        },
        {
          "internalType": "address",
          "name": "_poolToken",
          "type": "address"
        },
        {
          "internalType": "address",
          "name": "_aaveLendingPoolRegistry",
          "type": "address"
        }
      ],
      "stateMutability": "nonpayable",
      "type": "constructor"
    },
    {
      "anonymous": false,
      "inputs": [
        {
          "indexed": true,
          "internalType": "address",
          "name": "owner",
          "type": "address"
        },
        {
          "indexed": true,
          "internalType": "address",
          "name": "spender",
          "type": "address"
        },
        {
          "indexed": false,
          "internalType": "uint256",
          "name": "value",
          "type": "uint256"
        }
      ],
      "name": "Approval",
      "type": "event"
    },
    {
      "anonymous": false,
      "inputs": [
        {
          "indexed": false,
          "internalType": "address",
          "name": "leaver",
          "type": "address"
        },
        {
          "indexed": false,
          "internalType": "address",
          "name": "token",
          "type": "address"
        },
        {
          "indexed": false,
          "internalType": "uint256",
          "name": "amountToken",
          "type": "uint256"
        },
        {
          "indexed": false,
          "internalType": "uint256",
          "name": "amountShares",
          "type": "uint256"
        }
      ],
      "name": "LogExit",
      "type": "event"
    },
    {
      "anonymous": false,
      "inputs": [
        {
          "indexed": false,
          "internalType": "address",
          "name": "leaver",
          "type": "address"
        },
        {
          "indexed": false,
          "internalType": "address",
          "name": "token",
          "type": "address"
        },
        {
          "indexed": false,
          "internalType": "uint256",
          "name": "amountToken",
          "type": "uint256"
        },
        {
          "indexed": false,
          "internalType": "uint256",
          "name": "amountShares",
          "type": "uint256"
        }
      ],
      "name": "LogInsuranceClaim",
      "type": "event"
    },
    {
      "anonymous": false,
      "inputs": [
        {
          "indexed": false,
          "internalType": "address",
          "name": "joiner",
          "type": "address"
        },
        {
          "indexed": false,
          "internalType": "address",
          "name": "token",
          "type": "address"
        },
        {
          "indexed": false,
          "internalType": "uint256",
          "name": "amountToken",
          "type": "uint256"
        },
        {
          "indexed": false,
          "internalType": "uint256",
          "name": "amountShares",
          "type": "uint256"
        }
      ],
      "name": "LogJoinedPool",
      "type": "event"
    },
    {
      "anonymous": false,
      "inputs": [
        {
          "indexed": false,
          "internalType": "address",
          "name": "leaver",
          "type": "address"
        },
        {
          "indexed": false,
          "internalType": "address",
          "name": "token",
          "type": "address"
        },
        {
          "indexed": false,
          "internalType": "uint256",
          "name": "shares",
          "type": "uint256"
        }
      ],
      "name": "LogPendingExit",
      "type": "event"
    },
    {
      "anonymous": false,
      "inputs": [
        {
          "indexed": true,
          "internalType": "address",
          "name": "from",
          "type": "address"
        },
        {
          "indexed": true,
          "internalType": "address",
          "name": "to",
          "type": "address"
        },
        {
          "indexed": false,
          "internalType": "uint256",
          "name": "value",
          "type": "uint256"
        }
      ],
      "name": "Transfer",
      "type": "event"
    },
    {
      "inputs": [],
      "name": "MAXIMUM_EXIT_PERIOD",
      "outputs": [
        {
          "internalType": "uint256",
          "name": "",
          "type": "uint256"
        }
      ],
      "stateMutability": "view",
      "type": "function"
    },
    {
      "inputs": [],
      "name": "MINIMUM_EXIT_PERIOD",
      "outputs": [
        {
          "internalType": "uint256",
          "name": "",
          "type": "uint256"
        }
      ],
      "stateMutability": "view",
      "type": "function"
    },
    {
      "inputs": [
        {
          "internalType": "address",
          "name": "owner",
          "type": "address"
        },
        {
          "internalType": "address",
          "name": "spender",
          "type": "address"
        }
      ],
      "name": "allowance",
      "outputs": [
        {
          "internalType": "uint256",
          "name": "",
          "type": "uint256"
        }
      ],
      "stateMutability": "view",
      "type": "function"
    },
    {
      "inputs": [
        {
          "internalType": "address",
          "name": "spender",
          "type": "address"
        },
        {
          "internalType": "uint256",
          "name": "amount",
          "type": "uint256"
        }
      ],
      "name": "approve",
      "outputs": [
        {
          "internalType": "bool",
          "name": "",
          "type": "bool"
        }
      ],
      "stateMutability": "nonpayable",
      "type": "function"
    },
    {
      "inputs": [
        {
          "internalType": "address",
          "name": "account",
          "type": "address"
        }
      ],
      "name": "balanceOf",
      "outputs": [
        {
          "internalType": "uint256",
          "name": "",
          "type": "uint256"
        }
      ],
      "stateMutability": "view",
      "type": "function"
    },
    {
      "inputs": [],
      "name": "decimals",
      "outputs": [
        {
          "internalType": "uint8",
          "name": "",
          "type": "uint8"
        }
      ],
      "stateMutability": "view",
      "type": "function"
    },
    {
      "inputs": [
        {
          "internalType": "address",
          "name": "spender",
          "type": "address"
        },
        {
          "internalType": "uint256",
          "name": "subtractedValue",
          "type": "uint256"
        }
      ],
      "name": "decreaseAllowance",
      "outputs": [
        {
          "internalType": "bool",
          "name": "",
          "type": "bool"
        }
      ],
      "stateMutability": "nonpayable",
      "type": "function"
    },
    {
      "inputs": [
        {
          "internalType": "address",
          "name": "",
          "type": "address"
        }
      ],
      "name": "exitRequests",
      "outputs": [
        {
          "internalType": "uint256",
          "name": "shares",
          "type": "uint256"
        },
        {
          "internalType": "uint256",
          "name": "requestTime",
          "type": "uint256"
        }
      ],
      "stateMutability": "view",
      "type": "function"
    },
    {
      "inputs": [],
      "name": "inAaveSupply",
      "outputs": [
        {
          "internalType": "uint256",
          "name": "",
          "type": "uint256"
        }
      ],
      "stateMutability": "view",
      "type": "function"
    },
    {
      "inputs": [
        {
          "internalType": "address",
          "name": "spender",
          "type": "address"
        },
        {
          "internalType": "uint256",
          "name": "addedValue",
          "type": "uint256"
        }
      ],
      "name": "increaseAllowance",
      "outputs": [
        {
          "internalType": "bool",
          "name": "",
          "type": "bool"
        }
      ],
      "stateMutability": "nonpayable",
      "type": "function"
    },
    {
      "inputs": [],
      "name": "isAssetSupported",
      "outputs": [
        {
          "internalType": "bool",
          "name": "",
          "type": "bool"
        }
      ],
      "stateMutability": "view",
      "type": "function"
    },
    {
      "inputs": [],
      "name": "name",
      "outputs": [
        {
          "internalType": "string",
          "name": "",
          "type": "string"
        }
      ],
      "stateMutability": "view",
      "type": "function"
    },
    {
      "inputs": [],
      "name": "poolToken",
      "outputs": [
        {
          "internalType": "address",
          "name": "",
          "type": "address"
        }
      ],
      "stateMutability": "view",
      "type": "function"
    },
    {
      "inputs": [],
      "name": "provider",
      "outputs": [
        {
          "internalType": "contract ILendingPoolAddressesProvider",
          "name": "",
          "type": "address"
        }
      ],
      "stateMutability": "view",
      "type": "function"
    },
    {
      "inputs": [],
      "name": "reservedUnderlyingBalance",
      "outputs": [
        {
          "internalType": "uint256",
          "name": "",
          "type": "uint256"
        }
      ],
      "stateMutability": "view",
      "type": "function"
    },
    {
      "inputs": [],
      "name": "symbol",
      "outputs": [
        {
          "internalType": "string",
          "name": "",
          "type": "string"
        }
      ],
      "stateMutability": "view",
      "type": "function"
    },
    {
      "inputs": [],
      "name": "totalSupply",
      "outputs": [
        {
          "internalType": "uint256",
          "name": "",
          "type": "uint256"
        }
      ],
      "stateMutability": "view",
      "type": "function"
    },
    {
      "inputs": [
        {
          "internalType": "address",
          "name": "recipient",
          "type": "address"
        },
        {
          "internalType": "uint256",
          "name": "amount",
          "type": "uint256"
        }
      ],
      "name": "transfer",
      "outputs": [
        {
          "internalType": "bool",
          "name": "",
          "type": "bool"
        }
      ],
      "stateMutability": "nonpayable",
      "type": "function"
    },
    {
      "inputs": [
        {
          "internalType": "address",
          "name": "sender",
          "type": "address"
        },
        {
          "internalType": "address",
          "name": "recipient",
          "type": "address"
        },
        {
          "internalType": "uint256",
          "name": "amount",
          "type": "uint256"
        }
      ],
      "name": "transferFrom",
      "outputs": [
        {
          "internalType": "bool",
          "name": "",
          "type": "bool"
        }
      ],
      "stateMutability": "nonpayable",
      "type": "function"
    },
    {
      "inputs": [],
      "name": "transferRegistry",
      "outputs": [
        {
          "internalType": "address",
          "name": "",
          "type": "address"
        }
      ],
      "stateMutability": "view",
      "type": "function"
    },
    {
      "stateMutability": "payable",
      "type": "receive"
    },
    {
      "inputs": [
        {
          "internalType": "uint256",
          "name": "amountUnderlying",
          "type": "uint256"
        }
      ],
      "name": "joinPool",
      "outputs": [],
      "stateMutability": "nonpayable",
      "type": "function"
    },
    {
      "inputs": [
        {
          "internalType": "uint256",
          "name": "amountPoolShares",
          "type": "uint256"
        }
      ],
      "name": "exitPool",
      "outputs": [],
      "stateMutability": "nonpayable",
      "type": "function"
    },
    {
      "inputs": [
        {
          "internalType": "address",
          "name": "exiter",
          "type": "address"
        }
      ],
      "name": "finaliseExit",
      "outputs": [
        {
          "internalType": "bool",
          "name": "",
          "type": "bool"
        }
      ],
      "stateMutability": "nonpayable",
      "type": "function"
    },
    {
      "inputs": [
        {
          "internalType": "address",
          "name": "recipient",
          "type": "address"
        },
        {
          "internalType": "uint256",
          "name": "amount",
          "type": "uint256"
        }
      ],
      "name": "makeTemporaryLoan",
      "outputs": [],
      "stateMutability": "nonpayable",
      "type": "function"
    },
    {
      "inputs": [
        {
          "internalType": "address payable",
          "name": "recipient",
          "type": "address"
        },
        {
          "internalType": "uint256",
          "name": "amount",
          "type": "uint256"
        }
      ],
      "name": "makeTemporaryLoanETH",
      "outputs": [],
      "stateMutability": "nonpayable",
      "type": "function"
    },
    {
      "inputs": [],
      "name": "totalPoolSize",
      "outputs": [
        {
          "internalType": "uint256",
          "name": "",
          "type": "uint256"
        }
      ],
      "stateMutability": "view",
      "type": "function"
    },
    {
      "inputs": [
        {
          "internalType": "address",
          "name": "owner",
          "type": "address"
        }
      ],
      "name": "underlyingTokensOwned",
      "outputs": [
        {
          "internalType": "uint256",
          "name": "",
          "type": "uint256"
        }
      ],
      "stateMutability": "view",
      "type": "function"
    },
    {
      "inputs": [],
      "name": "amountAvailableForInstantExit",
      "outputs": [
        {
          "internalType": "uint256",
          "name": "",
          "type": "uint256"
        }
      ],
      "stateMutability": "view",
      "type": "function"
    },
    {
      "inputs": [],
      "name": "withdrawAllFromAave",
      "outputs": [],
      "stateMutability": "nonpayable",
      "type": "function"
    }
  ],
  "bytecode": "0x60806040523480156200001157600080fd5b50604051620028c7380380620028c7833981810160405260608110156200003757600080fd5b81019080805160405193929190846401000000008211156200005857600080fd5b9083019060208201858111156200006e57600080fd5b82516401000000008111828201881017156200008957600080fd5b82525081516020918201929091019080838360005b83811015620000b85781810151838201526020016200009e565b50505050905090810190601f168015620000e65780820380516001836020036101000a031916815260200191505b5060409081526020828101519290910151855192945092508291849186918291829182916200011b916003918401906200019d565b508051620001319060049060208401906200019d565b5050600580546001600160a01b0396871661010002610100600160a81b031960ff19909216601217919091161790555050600680549284166001600160a01b03199384161790555060078054949092169381169390931790555060088054909116331790555062000242565b828054600181600116156101000203166002900490600052602060002090601f016020900481019282601f10620001e057805160ff191683800117855562000210565b8280016001018555821562000210579182015b8281111562000210578251825591602001919060010190620001f3565b506200021e92915062000222565b5090565b6200023f91905b808211156200021e576000815560010162000229565b90565b61267580620002526000396000f3fe6080604052600436106101c65760003560e01c806370a08231116100f7578063b1dec9eb11610095578063cbdf382c11610064578063cbdf382c1461066f578063dd62ed3e14610684578063de761c8b146106bf578063f5671abc146106d4576101cd565b8063b1dec9eb14610606578063bdde3a341461061b578063be1d24ad14610630578063c4353d8d1461065a576101cd565b806395d89b41116100d157806395d89b411461056a578063a222d7e91461057f578063a457c2d714610594578063a9059cbb146105cd576101cd565b806370a08231146104cb57806376e7ad92146104fe5780637a5464e214610531576101cd565b806330027a9711610164578063395093511161013e57806339509351146103fe57806343f2a85c1461043757806351da8acf1461046a5780636578ecc4146104b6576101cd565b806330027a9714610394578063313ce567146103a957806334e7a19f146103d4576101cd565b806318160ddd116101a057806318160ddd146102da5780631d62ddd31461030157806323b872dd1461033c57806329ab4dcb1461037f576101cd565b806306fdde03146101d2578063085d48831461025c578063095ea7b31461028d576101cd565b366101cd57005b600080fd5b3480156101de57600080fd5b506101e76106e9565b6040805160208082528351818301528351919283929083019185019080838360005b83811015610221578181015183820152602001610209565b50505050905090810190601f16801561024e5780820380516001836020036101000a031916815260200191505b509250505060405180910390f35b34801561026857600080fd5b50610271610780565b604080516001600160a01b039092168252519081900360200190f35b34801561029957600080fd5b506102c6600480360360408110156102b057600080fd5b506001600160a01b038135169060200135610794565b604080519115158252519081900360200190f35b3480156102e657600080fd5b506102ef6107b2565b60408051918252519081900360200190f35b34801561030d57600080fd5b5061033a6004803603604081101561032457600080fd5b506001600160a01b0381351690602001356107b8565b005b34801561034857600080fd5b506102c66004803603606081101561035f57600080fd5b506001600160a01b03813581169160208101359091169060400135610945565b34801561038b57600080fd5b506102716109d2565b3480156103a057600080fd5b506102ef6109e1565b3480156103b557600080fd5b506103be6109e7565b6040805160ff9092168252519081900360200190f35b3480156103e057600080fd5b5061033a600480360360208110156103f757600080fd5b50356109f0565b34801561040a57600080fd5b506102c66004803603604081101561042157600080fd5b506001600160a01b038135169060200135610acc565b34801561044357600080fd5b506102ef6004803603602081101561045a57600080fd5b50356001600160a01b0316610b20565b34801561047657600080fd5b5061049d6004803603602081101561048d57600080fd5b50356001600160a01b0316610b3b565b6040805192835260208301919091528051918290030190f35b3480156104c257600080fd5b506102ef610b54565b3480156104d757600080fd5b506102ef600480360360208110156104ee57600080fd5b50356001600160a01b0316610b9c565b34801561050a57600080fd5b506102c66004803603602081101561052157600080fd5b50356001600160a01b0316610bb7565b34801561053d57600080fd5b5061033a6004803603604081101561055457600080fd5b506001600160a01b038135169060200135610cb4565b34801561057657600080fd5b506101e7610d3d565b34801561058b57600080fd5b506102ef610d9e565b3480156105a057600080fd5b506102c6600480360360408110156105b757600080fd5b506001600160a01b038135169060200135610da4565b3480156105d957600080fd5b506102c6600480360360408110156105f057600080fd5b506001600160a01b038135169060200135610e12565b34801561061257600080fd5b5061033a610e26565b34801561062757600080fd5b506102ef610ea2565b34801561063c57600080fd5b5061033a6004803603602081101561065357600080fd5b5035610ea9565b34801561066657600080fd5b506102ef610f88565b34801561067b57600080fd5b506102716110ac565b34801561069057600080fd5b506102ef600480360360408110156106a757600080fd5b506001600160a01b03813581169160200135166110bb565b3480156106cb57600080fd5b506102ef6110e6565b3480156106e057600080fd5b506102c6611264565b60038054604080516020601f60026000196101006001881615020190951694909404938401819004810282018101909252828152606093909290918301828280156107755780601f1061074a57610100808354040283529160200191610775565b820191906000526020600020905b81548152906001019060200180831161075857829003601f168201915b505050505090505b90565b60055461010090046001600160a01b031681565b60006107a86107a1611389565b848461138d565b5060015b92915050565b60025490565b6008546001600160a01b03163314610817576040805162461bcd60e51b815260206004820152601d60248201527f506f6f6c3a2043414c4c45525f4d5553545f42455f5245474953545259000000604482015290519081900360640190fd5b600854604080516315ab88c960e31b815290516000926001600160a01b03169163ad5c4648916004808301926020929190829003018186803b15801561085c57600080fd5b505afa158015610870573d6000803e3d6000fd5b505050506040513d602081101561088657600080fd5b50516007549091506001600160a01b038083169116146108a257fe5b6108ab82611479565b806001600160a01b0316632e1a7d4d836040518263ffffffff1660e01b815260040180828152602001915050600060405180830381600087803b1580156108f157600080fd5b505af1158015610905573d6000803e3d6000fd5b50506040516001600160a01b038616925084156108fc02915084906000818181858888f1935050505015801561093f573d6000803e3d6000fd5b50505050565b6000610952848484611516565b6109c88461095e611389565b6109c38560405180606001604052806028815260200161255f602891396001600160a01b038a1660009081526001602052604081209061099c611389565b6001600160a01b03168152602081019190915260400160002054919063ffffffff61167d16565b61138d565b5060019392505050565b6008546001600160a01b031681565b60095481565b60055460ff1690565b60006109fa6107b2565b90506000610a06610f88565b610a1a575068056bc75e2d63100000610a44565b610a41610a25610f88565b610a35848663ffffffff61171416565b9063ffffffff61177416565b90505b600754604080513381526001600160a01b03909216602083015281810185905260608201839052517f3beacad699560392d63db279b742fd6a5c94e0258a7f2f99dbddeb4ddc058c289181900360800190a1600754610ab4906001600160a01b031633308663ffffffff6117b616565b610abe3382611810565b610ac78361190c565b505050565b60006107a8610ad9611389565b846109c38560016000610aea611389565b6001600160a01b03908116825260208083019390935260409182016000908120918c16815292529020549063ffffffff61197b16565b6000610b33610b2e83610b9c565b6119d5565b90505b919050565b600a602052600090815260409020805460019091015482565b6000610b75610b616119fa565b610b69610f88565b9063ffffffff611a7f16565b6009541115610b865750600061077d565b610b97600954610b69610b616119fa565b905090565b6001600160a01b031660009081526020819052604090205490565b6000610bc1612496565b506001600160a01b0382166000908152600a6020908152604080832081518083019092528054808352600190910154928201929092529190610c02906119d5565b9050611c20826020015101421115610c7057610c1c610b54565b8111610c4857610c30308360000151611ac1565b610c3f84828460000151611bc9565b92505050610b36565b610c53610b616119fa565b8111610c7057610c67308360000151611ac1565b610c3081611c78565b6201fa40826020015101421115610caa57610c9084828460000151611cfd565b50610c9f308360000151611ac1565b600192505050610b36565b5060009392505050565b6008546001600160a01b03163314610d13576040805162461bcd60e51b815260206004820152601d60248201527f506f6f6c3a2043414c4c45525f4d5553545f42455f5245474953545259000000604482015290519081900360640190fd5b610d1c81611479565b600754610d39906001600160a01b0316838363ffffffff611e1416565b5050565b60048054604080516020601f60026000196101006001881615020190951694909404938401819004810282018101909252828152606093909290918301828280156107755780601f1061074a57610100808354040283529160200191610775565b611c2081565b60006107a8610db1611389565b846109c38560405180606001604052806025815260200161261b6025913960016000610ddb611389565b6001600160a01b03908116825260208083019390935260409182016000908120918d1681529252902054919063ffffffff61167d16565b60006107a8610e1f611389565b8484611516565b6008546001600160a01b03163314610e85576040805162461bcd60e51b815260206004820152601d60248201527f506f6f6c3a2043414c4c45525f4d5553545f42455f5245474953545259000000604482015290519081900360640190fd5b6000610e8f6110e6565b1115610ea057610ea0600019611e66565b565b6201fa4081565b6000610eb4826119d5565b9050610ebe610b54565b8111610edf57610ece3383611ac1565b610ed9338284611bc9565b50610d39565b610eea333084611516565b600754604080513381526001600160a01b039092166020830152818101849052517fa793bb1c04fd08e2fdc1458efc9547522b60d36f0d5f72c22ea3f8b8b8de57c89181900360600190a1604080518082018252336000908152600a60205291909120548190610f60908563ffffffff61197b16565b815242602091820152336000908152600a825260409020825181559101516001909101555050565b6000610f92611f66565b1561102757610f9f6110e6565b610fa76119fa565b600754604080516370a0823160e01b815230600482015290516001600160a01b03909216916370a0823191602480820192602092909190829003018186803b158015610ff257600080fd5b505afa158015611006573d6000803e3d6000fd5b505050506040513d602081101561101c57600080fd5b50510101905061077d565b61102f6119fa565b600754604080516370a0823160e01b815230600482015290516001600160a01b03909216916370a0823191602480820192602092909190829003018186803b15801561107a57600080fd5b505afa15801561108e573d6000803e3d6000fd5b505050506040513d60208110156110a457600080fd5b505101905090565b6007546001600160a01b031681565b6001600160a01b03918216600090815260016020908152604080832093909416825291909152205490565b600080600560019054906101000a90046001600160a01b03166001600160a01b0316630261bf8b6040518163ffffffff1660e01b815260040160206040518083038186803b15801561113757600080fd5b505afa15801561114b573d6000803e3d6000fd5b505050506040513d602081101561116157600080fd5b5051600654604080516335ea6a7560e01b81526001600160a01b0392831660048201529051929350600092918416916335ea6a759160248082019261018092909190829003018186803b1580156111b757600080fd5b505afa1580156111cb573d6000803e3d6000fd5b505050506040513d6101808110156111e257600080fd5b5060e00151604080516370a0823160e01b815230600482015290519192506001600160a01b038316916370a0823191602480820192602092909190829003018186803b15801561123157600080fd5b505afa158015611245573d6000803e3d6000fd5b505050506040513d602081101561125b57600080fd5b50519250505090565b600080600560019054906101000a90046001600160a01b03166001600160a01b0316630261bf8b6040518163ffffffff1660e01b815260040160206040518083038186803b1580156112b557600080fd5b505afa1580156112c9573d6000803e3d6000fd5b505050506040513d60208110156112df57600080fd5b5051600654604080516335ea6a7560e01b81526001600160a01b0392831660048201529051929350600092918416916335ea6a759160248082019261018092909190829003018186803b15801561133557600080fd5b505afa158015611349573d6000803e3d6000fd5b505050506040513d61018081101561136057600080fd5b5060e0015190506001600160a01b0381166113805760009250505061077d565b60019250505090565b3390565b6001600160a01b0383166113d25760405162461bcd60e51b81526004018080602001828103825260248152602001806125cd6024913960400191505060405180910390fd5b6001600160a01b0382166114175760405162461bcd60e51b81526004018080602001828103825260228152602001806124f66022913960400191505060405180910390fd5b6001600160a01b03808416600081815260016020908152604080832094871680845294825291829020859055815185815291517f8c5be1e5ebec7d5bd14f71427d1e84f3dd0314c0f7b2291e5b200ac8c7c3b9259281900390910190a3505050565b611481611f66565b61148a57611513565b600754604080516370a0823160e01b8152306004820152905183926001600160a01b0316916370a08231916024808301926020929190829003018186803b1580156114d457600080fd5b505afa1580156114e8573d6000803e3d6000fd5b505050506040513d60208110156114fe57600080fd5b50511061150a57611513565b61151381611c78565b50565b6001600160a01b03831661155b5760405162461bcd60e51b81526004018080602001828103825260258152602001806125a86025913960400191505060405180910390fd5b6001600160a01b0382166115a05760405162461bcd60e51b81526004018080602001828103825260238152602001806124b16023913960400191505060405180910390fd5b6115ab838383610ac7565b6115ee81604051806060016040528060268152602001612518602691396001600160a01b038616600090815260208190526040902054919063ffffffff61167d16565b6001600160a01b038085166000908152602081905260408082209390935590841681522054611623908263ffffffff61197b16565b6001600160a01b038084166000818152602081815260409182902094909455805185815290519193928716927fddf252ad1be2c89b69c2b068fc378daa952ba7f163c4a11628f55a4df523b3ef92918290030190a3505050565b6000818484111561170c5760405162461bcd60e51b81526004018080602001828103825283818151815260200191508051906020019080838360005b838110156116d15781810151838201526020016116b9565b50505050905090810190601f1680156116fe5780820380516001836020036101000a031916815260200191505b509250505060405180910390fd5b505050900390565b600082611723575060006107ac565b8282028284828161173057fe5b041461176d5760405162461bcd60e51b815260040180806020018281038252602181526020018061253e6021913960400191505060405180910390fd5b9392505050565b600061176d83836040518060400160405280601a81526020017f536166654d6174683a206469766973696f6e206279207a65726f000000000000815250611fb1565b604080516001600160a01b0380861660248301528416604482015260648082018490528251808303909101815260849091019091526020810180516001600160e01b03166323b872dd60e01b17905261093f908590612016565b6001600160a01b03821661186b576040805162461bcd60e51b815260206004820152601f60248201527f45524332303a206d696e7420746f20746865207a65726f206164647265737300604482015290519081900360640190fd5b61187760008383610ac7565b60025461188a908263ffffffff61197b16565b6002556001600160a01b0382166000908152602081905260409020546118b6908263ffffffff61197b16565b6001600160a01b0383166000818152602081815260408083209490945583518581529351929391927fddf252ad1be2c89b69c2b068fc378daa952ba7f163c4a11628f55a4df523b3ef9281900390910190a35050565b600061192e6064610a3561191e6120c7565b859060ff1663ffffffff61171416565b600954909150611944908263ffffffff61197b16565b60095561194f611f66565b15610d395760006119706119616110e6565b6009549063ffffffff611a7f16565b9050610ac7816120d9565b60008282018381101561176d576040805162461bcd60e51b815260206004820152601b60248201527f536166654d6174683a206164646974696f6e206f766572666c6f770000000000604482015290519081900360640190fd5b6000610b336119e26107b2565b610a356119ed610f88565b859063ffffffff61171416565b6008546007546040805163114396df60e01b81526001600160a01b0392831660048201529051600093929092169163114396df91602480820192602092909190829003018186803b158015611a4e57600080fd5b505afa158015611a62573d6000803e3d6000fd5b505050506040513d6020811015611a7857600080fd5b5051905090565b600061176d83836040518060400160405280601e81526020017f536166654d6174683a207375627472616374696f6e206f766572666c6f77000081525061167d565b6001600160a01b038216611b065760405162461bcd60e51b81526004018080602001828103825260218152602001806125876021913960400191505060405180910390fd5b611b1282600083610ac7565b611b55816040518060600160405280602281526020016124d4602291396001600160a01b038516600090815260208190526040902054919063ffffffff61167d16565b6001600160a01b038316600090815260208190526040902055600254611b81908263ffffffff611a7f16565b6002556040805182815290516000916001600160a01b038516917fddf252ad1be2c89b69c2b068fc378daa952ba7f163c4a11628f55a4df523b3ef9181900360200190a35050565b604080518082018252600080825260208083018281526001600160a01b038089168452600a9092529382209251835592516001909201919091556007549091611c1a9116858563ffffffff611e1416565b600754604080516001600160a01b038088168252909216602083015281810185905260608201849052517f12befe630a49a2c27f28eb8c2b9851051868435fcb150eec9e52056a75442a7f9181900360800190a15060019392505050565b611ca36064610a35611c886120c7565b60ff16611c9785610b69610f88565b9063ffffffff61171416565b600955611cae611f66565b1561151357600954611cbe6110e6565b1115611ce5576000611cd4600954610b696110e6565b9050611cdf81611e66565b50611513565b6000611cf26119616110e6565b9050610d39816120d9565b604080518082018252600080825260208083018281526001600160a01b03808916808552600a84528685209551865591516001909501949094556007548551918252909316908301528183018590526060820184905291517f98c339916e3a31d4c6c51e2a3502bb3788ceeddab8503303a7bd155a9c295aec9181900360800190a160085460075460408051633c13b75560e21b81526001600160a01b0392831660048201528783166024820152604481018790529051919092169163f04edd549160648083019260209291908290030181600087803b158015611de057600080fd5b505af1158015611df4573d6000803e3d6000fd5b505050506040513d6020811015611e0a57600080fd5b5051949350505050565b604080516001600160a01b038416602482015260448082018490528251808303909101815260649091019091526020810180516001600160e01b031663a9059cbb60e01b179052610ac7908490612016565b80611e7057611513565b6000600560019054906101000a90046001600160a01b03166001600160a01b0316630261bf8b6040518163ffffffff1660e01b815260040160206040518083038186803b158015611ec057600080fd5b505afa158015611ed4573d6000803e3d6000fd5b505050506040513d6020811015611eea57600080fd5b505160065460408051631a4ca37b60e21b81526001600160a01b039283166004820152602481018690523060448201529051929350908316916369328dec9160648082019260009290919082900301818387803b158015611f4a57600080fd5b505af1158015611f5e573d6000803e3d6000fd5b505050505050565b6008546040805163423b1b7360e11b815230600482015290516000926001600160a01b03169163847636e6916024808301926020929190829003018186803b158015611a4e57600080fd5b600081836120005760405162461bcd60e51b81526020600482018181528351602484015283519092839260449091019190850190808383600083156116d15781810151838201526020016116b9565b50600083858161200c57fe5b0495945050505050565b606061206b826040518060400160405280602081526020017f5361666545524332303a206c6f772d6c6576656c2063616c6c206661696c6564815250856001600160a01b03166121e19092919063ffffffff16565b805190915015610ac75780806020019051602081101561208a57600080fd5b5051610ac75760405162461bcd60e51b815260040180806020018281038252602a8152602001806125f1602a913960400191505060405180910390fd5b60006120d16121f8565b606403905090565b806120e357611513565b6000600560019054906101000a90046001600160a01b03166001600160a01b0316630261bf8b6040518163ffffffff1660e01b815260040160206040518083038186803b15801561213357600080fd5b505afa158015612147573d6000803e3d6000fd5b505050506040513d602081101561215d57600080fd5b505160065490915061217f906001600160a01b0316828463ffffffff61223d16565b6006546040805163e8eda9df60e01b81526001600160a01b039283166004820152602481018590523060448201526094606482015290519183169163e8eda9df9160848082019260009290919082900301818387803b158015611f4a57600080fd5b60606121f08484600085612323565b949350505050565b60085460408051636b3bc21160e11b815290516000926001600160a01b03169163d6778422916004808301926020929190829003018186803b158015611a4e57600080fd5b60408051636eb1769f60e11b81523060048201526001600160a01b03848116602483015291516000926122ce9285929188169163dd62ed3e91604480820192602092909190829003018186803b15801561229657600080fd5b505afa1580156122aa573d6000803e3d6000fd5b505050506040513d60208110156122c057600080fd5b50519063ffffffff61197b16565b604080516001600160a01b038616602482015260448082018490528251808303909101815260649091019091526020810180516001600160e01b031663095ea7b360e01b17905290915061093f908590612016565b606061232e85612490565b61237f576040805162461bcd60e51b815260206004820152601d60248201527f416464726573733a2063616c6c20746f206e6f6e2d636f6e7472616374000000604482015290519081900360640190fd5b60006060866001600160a01b031685876040518082805190602001908083835b602083106123be5780518252601f19909201916020918201910161239f565b6001836020036101000a03801982511681845116808217855250505050505090500191505060006040518083038185875af1925050503d8060008114612420576040519150601f19603f3d011682016040523d82523d6000602084013e612425565b606091505b509150915081156124395791506121f09050565b8051156124495780518082602001fd5b60405162461bcd60e51b81526020600482018181528651602484015286518793919283926044019190850190808383600083156116d15781810151838201526020016116b9565b3b151590565b60405180604001604052806000815260200160008152509056fe45524332303a207472616e7366657220746f20746865207a65726f206164647265737345524332303a206275726e20616d6f756e7420657863656564732062616c616e636545524332303a20617070726f766520746f20746865207a65726f206164647265737345524332303a207472616e7366657220616d6f756e7420657863656564732062616c616e6365536166654d6174683a206d756c7469706c69636174696f6e206f766572666c6f7745524332303a207472616e7366657220616d6f756e74206578636565647320616c6c6f77616e636545524332303a206275726e2066726f6d20746865207a65726f206164647265737345524332303a207472616e736665722066726f6d20746865207a65726f206164647265737345524332303a20617070726f76652066726f6d20746865207a65726f20616464726573735361666545524332303a204552433230206f7065726174696f6e20646964206e6f74207375636365656445524332303a2064656372656173656420616c6c6f77616e63652062656c6f77207a65726fa264697066735822122091b80a8108eafbc2d0e3f4f5714a149dde3f948ce8a739599a2dd7538ed2805b64736f6c63430006020033",
  "source": "pragma solidity ^0.6.2;\n\nimport \"@openzeppelin/contracts/token/ERC20/IERC20.sol\";\nimport \"@openzeppelin/contracts/token/ERC20/SafeERC20.sol\";\nimport \"@openzeppelin/contracts/math/SafeMath.sol\";\n\nimport \"./WithdrawalPoolToken.sol\";\nimport \"./MasterTransferRegistry.sol\";\nimport \"../aave/AaveManager.sol\";\nimport \"../tokens/IWETH.sol\";\n\ncontract WithdrawalPool is WithdrawalPoolToken, AaveManager {\n  using SafeERC20 for IERC20;\n  using SafeMath for uint256;\n\n  address public poolToken;\n  address public transferRegistry;\n  uint256 constant INITIAL_SUPPLY = 100 * 10 ** 18;\n  uint256 public constant MINIMUM_EXIT_PERIOD = 2 hours;\n  uint256 public constant MAXIMUM_EXIT_PERIOD = 36 hours;\n\n  // The amount of underlying tokens that are not available to withdraw instantly\n  uint256 public reservedUnderlyingBalance;\n\n  struct PendingExit {\n    uint256 shares;\n    uint256 requestTime;\n  }\n\n  mapping (address => PendingExit) public exitRequests;\n\n  modifier onlyRegistry() {\n    require(msg.sender == transferRegistry, \"Pool: CALLER_MUST_BE_REGISTRY\");\n    _;\n  }\n\n  constructor (\n    string memory _symbol,\n    address _poolToken,\n    address _aaveLendingPoolRegistry\n  ) public WithdrawalPoolToken(_symbol, _symbol) AaveManager(_aaveLendingPoolRegistry, _poolToken) {\n    poolToken = _poolToken;\n    transferRegistry = msg.sender;\n  }\n\n  receive() external payable {}\n\n  event LogJoinedPool(\n      address joiner,\n      address token,\n      uint256 amountToken,\n      uint256 amountShares\n  );\n\n  event LogPendingExit(\n      address leaver,\n      address token,\n      uint256 shares\n  );\n\n  event LogExit(\n      address leaver,\n      address token,\n      uint256 amountToken,\n      uint256 amountShares\n  );\n\n  event LogInsuranceClaim(\n      address leaver,\n      address token,\n      uint256 amountToken,\n      uint256 amountShares\n  );\n\n  function joinPool(uint256 amountUnderlying) public {\n    uint256 totalPoolShares = totalSupply();\n    uint256 newPoolShares;\n    if (totalPoolSize() == 0) {\n       newPoolShares = INITIAL_SUPPLY;\n    } else {\n       newPoolShares = totalPoolShares.mul(amountUnderlying).div(totalPoolSize());\n    }\n    emit LogJoinedPool(msg.sender, poolToken, amountUnderlying, newPoolShares);\n    IERC20(poolToken).safeTransferFrom(msg.sender, address(this), amountUnderlying);\n    _mint(msg.sender, newPoolShares);\n    increaseReservedBalance(amountUnderlying);\n  }\n\n  function exitPool(uint256 amountPoolShares) public {\n    uint256 amountUnderlying = sharesToUnderlying(amountPoolShares);\n    if (amountUnderlying <= amountAvailableForInstantExit()) {\n      _burn(msg.sender, amountPoolShares);\n      processNormalExit(msg.sender, amountUnderlying, amountPoolShares);\n    } else {\n      _transfer(msg.sender, address(this), amountPoolShares);\n      emit LogPendingExit(msg.sender, poolToken, amountPoolShares);\n      exitRequests[msg.sender] = PendingExit({\n        shares: exitRequests[msg.sender].shares.add(amountPoolShares),\n        requestTime: now\n      });\n    }\n  }\n\n  function finaliseExit(address exiter) public returns (bool) {\n    PendingExit memory pending = exitRequests[exiter];\n\n    uint256 amountUnderlying = sharesToUnderlying(pending.shares);\n    if (now > pending.requestTime + MINIMUM_EXIT_PERIOD) {\n      if (amountUnderlying <= amountAvailableForInstantExit()) {\n        _burn(address(this), pending.shares);\n        return processNormalExit(exiter, amountUnderlying, pending.shares);\n      } else if (amountUnderlying <= totalPoolSize().sub(lentSupply())) {\n        _burn(address(this), pending.shares);\n        resetReservedBalance(amountUnderlying);\n        return processNormalExit(exiter, amountUnderlying, pending.shares);\n      }\n    }\n    if (now > pending.requestTime + MAXIMUM_EXIT_PERIOD) {\n      payFromInsuranceFund(exiter, amountUnderlying, pending.shares);\n      _burn(address(this), pending.shares);\n      return true;\n    }\n    return false;\n  }\n\n  function processNormalExit(address exiter, uint256 amount, uint256 shares) internal returns (bool) {\n    exitRequests[exiter] = PendingExit({ shares: 0, requestTime: 0 });\n    IERC20(poolToken).safeTransfer(exiter, amount);\n    emit LogExit(exiter, poolToken, amount, shares);\n    return true;\n  }\n\n  function makeTemporaryLoan(address recipient, uint256 amount) public onlyRegistry {\n    withdrawFromAaveIfRequired(amount);\n    IERC20(poolToken).safeTransfer(recipient, amount);\n  }\n\n  function makeTemporaryLoanETH(address payable recipient, uint256 amount) public onlyRegistry {\n    address WETH = MasterTransferRegistry(transferRegistry).WETH();\n    assert(poolToken == WETH);\n    withdrawFromAaveIfRequired(amount);\n    IWETH(WETH).withdraw(amount);\n    recipient.transfer(amount);\n  }\n\n\n  // INFORMATION - Pool\n\n  function totalPoolSize() public view returns (uint256) {\n    if (isAaveActive()) {\n      return IERC20(poolToken).balanceOf(address(this)) + lentSupply() + inAaveSupply();\n    }\n    return IERC20(poolToken).balanceOf(address(this)) + lentSupply();\n  }\n\n  function underlyingTokensOwned(address owner) public view returns (uint256) {\n    return sharesToUnderlying(balanceOf(owner));\n  }\n\n  function sharesToUnderlying(uint256 amount) internal view returns (uint256) {\n    return amount.mul(totalPoolSize()).div(totalSupply());\n  }\n\n  function amountAvailableForInstantExit() public view returns (uint256) {\n    if (reservedUnderlyingBalance > totalPoolSize().sub(lentSupply())) {\n      return 0;\n    }\n    return totalPoolSize().sub(lentSupply()).sub(reservedUnderlyingBalance);\n  }\n\n  // MasterTransferRegistry - Functions calling to the registry\n\n  function payFromInsuranceFund(address exiter, uint256 amount, uint256 shares) internal returns (bool) {\n    exitRequests[exiter] = PendingExit({ shares: 0, requestTime: 0 });\n    emit LogInsuranceClaim(exiter, poolToken, amount, shares);\n    return MasterTransferRegistry(transferRegistry).payFromInsuranceFund(poolToken, exiter, amount);\n  }\n\n  function lentSupply() internal view returns (uint256) {\n    return MasterTransferRegistry(transferRegistry).lentSupply(poolToken);\n  }\n\n  function targetAvailabilityPercentage() internal view returns (uint8) {\n    return MasterTransferRegistry(transferRegistry).targetAvailabilityPercentage();\n  }\n\n  function targetReservedPercentage() internal view returns (uint8) {\n    return 100 - targetAvailabilityPercentage();\n  }\n\n  function isAaveActive() internal view returns (bool) {\n    return MasterTransferRegistry(transferRegistry).isAaveActive(address(this));\n  }\n\n  // RESERVED BALANCE - Internal functions for managing reserved balances\n\n  function increaseReservedBalance(uint256 amount) internal {\n    uint256 amountToReserve = amount.mul(targetReservedPercentage()).div(100);\n    reservedUnderlyingBalance = reservedUnderlyingBalance.add(amountToReserve);\n    if (isAaveActive()) {\n      uint256 amountToDeposit = reservedUnderlyingBalance.sub(inAaveSupply());\n      depositToAave(amountToDeposit);\n    }\n  }\n\n  function resetReservedBalance(uint256 amount) internal {\n    reservedUnderlyingBalance = totalPoolSize().sub(amount).mul(targetReservedPercentage()).div(100);\n    if (isAaveActive()) {\n      if (inAaveSupply() > reservedUnderlyingBalance) {\n        uint256 amountToWithdraw = inAaveSupply().sub(reservedUnderlyingBalance);\n        withdrawFromAave(amountToWithdraw);\n      } else {\n        uint256 amountToDeposit = reservedUnderlyingBalance.sub(inAaveSupply());\n        depositToAave(amountToDeposit);\n      }\n    }\n  }\n\n  function withdrawFromAaveIfRequired(uint256 amount) internal {\n    if (!isAaveActive()) return;\n    if (IERC20(poolToken).balanceOf(address(this)) >= amount) return;\n\n    resetReservedBalance(amount);\n  }\n\n  function withdrawAllFromAave() public onlyRegistry {\n    if(inAaveSupply() > 0) {\n      withdrawFromAave(uint256(-1));\n    }\n  }\n\n}\n",
  "sourcePath": "/Users/willharborne/Desktop/EFX/repos/lp-contracts/contracts/liquidityProviders/WithdrawalPool.sol",
  "compiler": {
    "name": "solc",
    "version": "0.6.2+commit.bacdbe57.Emscripten.clang"
  },
  "schemaVersion": "3.2.4",
  "updatedAt": "2020-11-16T10:45:36.893Z",
  "devdoc": {
    "methods": {
      "allowance(address,address)": {
        "details": "See {IERC20-allowance}."
      },
      "approve(address,uint256)": {
        "details": "See {IERC20-approve}.     * Requirements:     * - `spender` cannot be the zero address."
      },
      "balanceOf(address)": {
        "details": "See {IERC20-balanceOf}."
      },
      "decimals()": {
        "details": "Returns the number of decimals used to get its user representation. For example, if `decimals` equals `2`, a balance of `505` tokens should be displayed to a user as `5,05` (`505 / 10 ** 2`).     * Tokens usually opt for a value of 18, imitating the relationship between Ether and Wei. This is the value {ERC20} uses, unless {_setupDecimals} is called.     * NOTE: This information is only used for _display_ purposes: it in no way affects any of the arithmetic of the contract, including {IERC20-balanceOf} and {IERC20-transfer}."
      },
      "decreaseAllowance(address,uint256)": {
        "details": "Atomically decreases the allowance granted to `spender` by the caller.     * This is an alternative to {approve} that can be used as a mitigation for problems described in {IERC20-approve}.     * Emits an {Approval} event indicating the updated allowance.     * Requirements:     * - `spender` cannot be the zero address. - `spender` must have allowance for the caller of at least `subtractedValue`."
      },
      "increaseAllowance(address,uint256)": {
        "details": "Atomically increases the allowance granted to `spender` by the caller.     * This is an alternative to {approve} that can be used as a mitigation for problems described in {IERC20-approve}.     * Emits an {Approval} event indicating the updated allowance.     * Requirements:     * - `spender` cannot be the zero address."
      },
      "name()": {
        "details": "Returns the name of the token."
      },
      "symbol()": {
        "details": "Returns the symbol of the token, usually a shorter version of the name."
      },
      "totalSupply()": {
        "details": "See {IERC20-totalSupply}."
      },
      "transfer(address,uint256)": {
        "details": "See {IERC20-transfer}.     * Requirements:     * - `recipient` cannot be the zero address. - the caller must have a balance of at least `amount`."
      },
      "transferFrom(address,address,uint256)": {
        "details": "See {IERC20-transferFrom}.     * Emits an {Approval} event indicating the updated allowance. This is not required by the EIP. See the note at the beginning of {ERC20};     * Requirements: - `sender` and `recipient` cannot be the zero address. - `sender` must have a balance of at least `amount`. - the caller must have allowance for ``sender``'s tokens of at least `amount`."
      }
    }
  },
  "userdoc": {
    "methods": {}
  }
}